:100000000C9412070C94A00A0C9459070C945907ED
:100010000C9459070C9459070C9459070C945907E0
:100020000C9459070C9459070C94EE100C94C011C1
:100030000C9459070C9459070C9459070C945907C0
:100040000C9459070C94312A0C9459070C945907B5
:100050000C9459070C94EF1F0C9459070C945907F2
:100060000C9459070C9459070C9459070C94590790
:100070000C9459070C9459070C9459070C94590780
:100080000C9459070C9459070C9459070C94590770
:100090000C94EB090C9459070C9459070C945907CC
:1000A0000C9459070C9459070C9459072D124F12B0
:1000B0003D134F123D139412B7123D130C131F132F
:1000C0006C166C168A168A16D516F31669186918F6
:1000D000FE166918AF17AF175A1869186918631810
:1000E000BC17BC17BC17BC17BC17BC17BC17BC1778
:1000F000BC17BC17BC17BC17BC17BC17BC17BC1768
:10010000CB17D817DF17E617F01714001A000800EE
:1001100015001700000004001600070009000A007F
:1001200000001D001B00060019000500000029004A
:1001300039282B0000222C00E00000001C001800D1
:100140000C001200130000000B000D000E000F0049
:100150003300000011001000360037003800F0A313
:1001600028002A0051003400E60034003600370031
:1001700013001C00000004001200080018000C000E
:100180000000330014000D000E001B0000000100F1
:1001900001000100010001000100000009000A0047
:1001A000060015000F00000007000B0017001100EB
:1001B00016000000050010001A0019001D000100C3
:1001C0000100010001000100010014001A000900F3
:1001D00013000A00000004001500160017000700B5
:1001E00000001D001B0006001900050000000100B2
:1001F0000100010001000100010000000D000F00DE
:1002000018001C00330000000B00110008000C0057
:10021000120000000E001000360037003800010008
:10022000010001000100010001001E001F0020006C
:1002300021002200000026022F0052003000270279
:1002400000002E00500051004F002D000000010062
:100250000100010001000100010000002300240052
:10026000250026002700000031004C002E0046002B
:10027000350000004A004B004E004D0049000100CF
:10028000F0A40100010001000100010001000100D3
:100290000100010000000100010001000100010057
:1002A00000003A003B003C003D003E000000010021
:1002B0000100010001000100010000000100010037
:1002C0000100010001000000010001000100010027
:1002D000010000003F0040004100420043000100D7
:1002E0000100F0A501000100010001000100010072
:1002F000010001F8000001000100010001000100FF
:1003000000000100010001000100010000000100E7
:1003100001000100010001000100000001000100D6
:1003200001000100010000000100010001000100C6
:1003300001000000010001000100010001000100B6
:1003400001000100F3A0010001000A002530313650
:1003500062003A200025303258000A722F632030A4
:100360003132333435363738394142434445460A11
:10037000005B735D004B6579626F6172642073741A
:100380006172742E0A0055534220636F6E6669676E
:10039000757265642E0A005B575D005B535D005B00
:1003A000525D005B445D005B435D0028036E0069A5
:1003B000006700680074006D0061007200650073E2
:1003C000002D006B006500790062006F0061007213
:1003D0000064000000140374006D006B002D0073B6
:1003E0000070006C00690074000000040309040937
:1003F000028D00050100A032090400000103010183
:1004000000092111010001223F00070581030800B6
:100410000A09040100010301020009211101000180
:10042000224D000705820308000A090402000103A7
:100430000000000921110100012236000705830395
:1004400008000A0904030002030000000921110149
:100450000001222000070584032000010705040392
:10046000200001090404000103000000092111011A
:100470000001223900070585031000011201100157
:1004800000000008EDFE44440100010200010501E6
:100490000906A101050719E029E7150025019508BE
:1004A000750181020508190129059505750191025B
:1004B000950175039101050719002977150025019C
:1004C000957875018102C00631FF0974A101097593
:1004D000150025FF9520750881020976150025FF76
:1004E000952075089102C005010980A101850216B9
:1004F000010026B7001A01002AB700751095018186
:1005000000C0050C0901A1018503160100269C020B
:100510001A01002A9C02751095018100C00501098D
:1005200002A1010901A100050919012905150025EC
:100530000195057501810295017503810105010988
:100540003009311581257F95027508810609381516
:1005500081257F950175088106050C0A38021581F1
:10056000257F950175088106C0C005010906A10116
:10057000050719E029E71500250195087501810295
:100580009501750881010508190129059505750171
:1005900091029501750391010507190029FF1500C6
:1005A00025FF950675088100C00A002530325820C5
:1005B000006B6579626F6172645F7265706F7274EF
:1005C0003A20000A0025303258006B6579626F616D
:1005D00072645F7365745F6C65643A200064656C77
:1005E0005F6B65795F6269743A2063616E2774207E
:1005F00064656C3A20253032580A006164645F6B90
:1006000065795F6269743A2063616E277420616462
:10061000643A20253032580A00646F6E652E0A0055
:10062000626F6F676D61676963207363616E3A2003
:100630002E2E2E2000290A002575002F002575007A
:100640005D2800256400200025640020002564004A
:1006500020002564007C0025303258006D6F7573D2
:10066000656B6579205B62746E7C782079207620DA
:10067000685D287265702F61636C293A205B006D9C
:100680006B5F776865656C5F74696D655F746F5FDC
:100690006D6178203D2025640A006D6B5F77686589
:1006A000656C5F6D61785F7370656564203D2025C2
:1006B000640A006D6B5F74696D655F746F5F6D6177
:1006C00078203D2025640A006D6B5F6D61785F7353
:1006D00070656564203D2025640A006D6B5F696E5E
:1006E00074657276616C203D2025640A006D6B5F35
:1006F00064656C6179203D2025640A006D6B5F772D
:100700006865656C5F74696D655F746F5F6D617856
:10071000203D2025640A006D6B5F776865656C5F1E
:100720006D61785F7370656564203D2025640A0003
:100730006D6B5F74696D655F746F5F6D6178203D8F
:100740002025640A006D6B5F6D61785F737065656D
:1007500064203D2025640A006D6B5F696E746572CC
:1007600076616C203D2025640A006D6B5F64656CCA
:100770006179203D2025640A000A00257500363A7B
:1007800020776865656C5F74696D655F746F5F6D18
:1007900061783A20000A00257500353A20776865AF
:1007A000656C5F6D61785F73706565643A20000AFF
:1007B00000257500343A2074696D655F746F5F6D54
:1007C00061783A20000A00257500333A206D61787F
:1007D0005F73706565643A20000A00257500323A3F
:1007E00020696E74657276616C286D73293A2000F9
:1007F0000A00257500313A2064656C6179282A3138
:10080000306D73293A20000A092D2056616C7565F8
:1008100073202D0A004D3E004D25643E20003F0010
:100820007365742064656661756C740A00433E20CC
:100830000077686572652064656C74613A20637541
:1008400072736F723D25642C20776865656C3D2559
:10085000640A53656520687474703A2F2F656E2E94
:1008600077696B6970656469612E6F72672F77694C
:100870006B692F4D6F7573655F6B6579730A000A3D
:10088000092D204D6F7573656B6579202D0A4553D1
:10089000432F713A09717569740A313A0964656CBC
:1008A0006179282A31306D73290A323A09696E74E8
:1008B000657276616C286D73290A333A096D617827
:1008C0005F73706565640A343A0974696D655F74B5
:1008D0006F5F6D61780A353A09776865656C5F6DA1
:1008E00061785F73706565640A363A097768656593
:1008F0006C5F74696D655F746F5F6D61780A0A7013
:100900003A097072696E742076616C7565730A6459
:100910003A097365742064656661756C74730A7551
:10092000703A092B310A646F776E3A092D310A70DB
:100930006775703A092B31300A7067646F776E3AC9
:10094000092D31300A0A7370656564203D206465A5
:100950006C7461202A206D61785F73706565642016
:100960002A2028726570656174202F2074696D6576
:100970005F746F5F6D6178290A003F004D3E200073
:10098000433E20004C25640A000A092D20436F6E67
:10099000736F6C65202D0A4553432F713A097175A9
:1009A00069740A6D3A096D6F7573656B65790A0034
:1009B0000A092D204D61676963202D0A643A096494
:1009C000656275670A783A096465627567206D61CA
:1009D000747269780A6B3A096465627567206B65A1
:1009E00079626F6172640A6D3A09646562756720A5
:1009F0006D6F7573650A763A0976657273696F6E05
:100A00000A733A097374617475730A633A09636F00
:100A10006E736F6C65206D6F64650A302D343A0912
:100A20006C61796572302D34284631302D46342979
:100A30000A506175733A09626F6F746C6F61646517
:100A4000720A653A09656570726F6D0A6E3A094EF1
:100A50004B524F0A7A3A09736C656570204C4544D5
:100A600020746573740A000A002575002E6E6B727F
:100A70006F3A20000A002575002E737761705F625F
:100A800061636B736C6173685F6261636B737061E8
:100A900063653A20000A002575002E737761705F48
:100AA00067726176655F6573633A20000A00257599
:100AB000002E6E6F5F6775693A20000A0025750089
:100AC0002E737761705F72616C745F726775693ADB
:100AD00020000A002575002E737761705F6C616CD1
:100AE000745F6C6775693A20000A002575002E63F3
:100AF0006170736C6F636B5F746F5F636F6E747242
:100B00006F6C3A20000A002575002E737761705FC4
:100B1000636F6E74726F6C5F636170736C6F636B25
:100B20003A20000A0025303258006B65796D6170FB
:100B30005F636F6E6669672E7261773A20000A0004
:100B40002575002E6D6F7573653A20000A002575B6
:100B5000002E6B6579626F6172643A20000A00258D
:100B600075002E6D61747269783A20000A0025754F
:100B7000002E656E61626C653A20000A00253032F5
:100B8000580064656275675F636F6E6669672E7291
:100B900061773A20000A0025750064656661756C0E
:100BA000745F6C617965723A20003F004E4B524F82
:100BB0003A206F66660A004E4B524F3A206F6E0A1B
:100BC0000074696D65725F636F756E743A202530CD
:100BD000346C580A006B6579626F6172645F6E6B8A
:100BE000726F3A2025580A006B6579626F617264F2
:100BF0005F69646C653A2025580A006B6579626FFD
:100C00006172645F70726F746F636F6C3A20255805
:100C10000A00686F73745F6B6579626F6172645FFD
:100C20006C65647328293A2025580A000A092D208A
:100C3000537461747573202D0A004743433A20347E
:100C40002E392E32204156522D4C4942433A203201
:100C50002E302E30204156525F415243483A206197
:100C60007672350A004F5054494F4E533A204C5536
:100C7000464120424F4F544D41474943204D4F5527
:100C800053454B45592045585452414B45592043F3
:100C90004F4E534F4C4520434F4D4D414E44204EF7
:100CA0004B524F20343039360A004255494C443AB1
:100CB00020756E6B6E6F776E202831343A33383A78
:100CC0003430204E6F762032322032303137290ACC
:100CD000005649443A2030784645454428746D6BA7
:100CE0002D73706C697429205049443A203078344F
:100CF000343434286E696768746D617265732D6B66
:100D00006579626F61726429205645523A203078C5
:100D1000303030310A00444553433A20746D6B2023
:100D200073706C6974206B6579626F6172642066A0
:100D300069726D776172650A000A092D2056657225
:100D400073696F6E202D0A000A6D6F7573653A2006
:100D50006F66660A000A6D6F7573653A206F6E0ADA
:100D6000000A6B6579626F6172643A206F66660A89
:100D7000000A6B6579626F6172643A206F6E0A00D7
:100D80000A6D61747269783A206F66660A000A6DAE
:100D900061747269783A206F6E0A000A6465627540
:100DA000673A206F6E0A000A64656275673A206FC1
:100DB00066660A000A0A626F6F746C6F616465721E
:100DC0002E2E2E2000433E20006565636F6E6669FF
:100DD000673A0A00536C656570204C454420746581
:100DE00073740A0000000000000000000000000111
:100DF0000204060A0F17202C3A4A5D71879DB3C77B
:100E0000DAE9F5FCFFFCF5E9DAC7B39D87715D4AC5
:100E10003A2C20170F0A060402010000000000000F
:100E20000000000011241FBECFEFDAE0DEBFCDBF0F
:100E300004B603FE27C080913D0290913E02A0912E
:100E40003F02B09140028730904BA740B04BD1F4A5
:100E500010923D0210923E0210923F021092400208
:100E600014BE84B7877F84BF0FB6F894A89580918D
:100E70006000886180936000109260000FBEE0E027
:100E8000F8E3099511E0A0E0B1E0ECE1F8E502C07B
:100E900005900D92A834B107D9F722E0A8E4B1E09B
:100EA00001C01D92AD33B207E1F70E941D0E0C94F4
:100EB0000C2C0C940000FF93EF93E0914801F0910B
:100EC0004901309709F00995EF91FF910895FC01D0
:100ED0008591803011F0EFDFFBCF0895FF27E0E22E
:100EE00030E247FF0CC0419597FF09C0EDE26095E5
:100EF000709580959095611D711D811D911D27FF35
:100F000002C0219530E350E2AA27660F771F881FA1
:100F1000991FAA1FA41710F0A41B63955A95A9F74F
:100F2000AA3008F0A95FA05DAF93F3956115710534
:100F30008105910541F7ED3211F4EF93F395F21726
:100F400018F43F93F395FBCF8F91B5DFFA95E1F756
:100F50000895E991F9918591803021F0853219F059
:100F6000AADFF9CF089520E0E89455915532C1F3F6
:100F7000503311F4689455915A3348F4505390F318
:100F8000220F022E220F220F200D250FF4CF0EF478
:100F9000219589919991533619F3533729F1533596
:100FA00059F1BC0188279927E8945C3621F489918E
:100FB000999168945591543639F446EF7EF077FF55
:100FC0000DC08FEF9FEF0AC055374AE039F0583512
:100FD00040E121F0523642E009F00895FF93EF938B
:100FE0007DDFEF91FF91B7CFFF93EF93FC018191EC
:100FF0008030B9F360DFFBCFFF93EF9368DFF1CF71
:10100000DF93CF93CDB7DEB72596A3DFCF91DF91E6
:101010000895811103C080E090E002C087E797E760
:1010200090930108809300089AE088E10FB6F89445
:10103000A895809360000FBE90936000FFCFFC01E5
:10104000958192959F70613029F118F0623031F1ED
:1010500008958281882359F00E94F51D811123C0D3
:101060000E94041E81111FC089E20C94E7140E94A3
:10107000F51D811107C00E94041E811103C089E281
:101080000C94BA150E94111E0E94FB1D0E94D91CCF
:101090000C94BB18953039F480E003C0953019F4F6
:1010A00081E00E9409080895ACE1B1E041E050E020
:1010B0008D91E82FE295EF70F0E021A18F70BA01D9
:1010C00002C0660F771F8A95E2F7CB01962F9095A5
:1010D000922391A392A1892B82A371E0A032B7073A
:1010E00039F7089580911C028360886080931C0208
:1010F0000E945408A6E1B1E041E050E08D91E82F54
:10110000E295EF70F0E021A18F70BA0102C0660F86
:10111000771F8A95E2F7CB01962F9095922391A3A2
:1011200092A1892B82A371E0AC31B70739F7559AA8
:10113000209AAAE4B1E0E2E5F1E088E08E0F119296
:101140001D928E13FCCF08958F929F92AF92BF9203
:10115000CF92DF92EF92FF920F931F93CF93DF9383
:1011600080910101811103C0C4E0D0E002C0C0E061
:10117000D0E0AE01465B5E4F7A016A010CE111E0FE
:10118000AA24A394B12C95E0892E24E0922E900EEF
:10119000F80181918F01E82FE295EF70F0E021A135
:1011A0008F70A50102C0440F551F8A95E2F7CA014E
:1011B000922F982B91A392A18095892382A350EA24
:1011C0005A95F1F7E6E1F1E020E040E050E031919E
:1011D000A32FA295AF70B0E090968C9190E03F70F5
:1011E00002C0959587953A95E2F780FD07C0C50145
:1011F000042E01C0880F0A94EAF702C080E090E054
:10120000282B4F5F5F4F4630510509F7F60180816B
:10121000821719F02083809200010E945408FFEF8A
:10122000CF1ADF0A9012B4CF809100018823B1F069
:10123000815080930001882339F08FE99FE0019766
:10124000F1F700C000000AC0CE5ADE4F80E0F7017F
:1012500091917F0199938F5F8430C9F781E0DF918D
:10126000CF911F910F91FF90EF90DF90CF90BF90A3
:10127000AF909F908F900895CF93DF93809101015D
:10128000811103C0C0E0D0E002C0C4E0D0E00E9401
:10129000130B009779F4CE5ADE4F20E030E0F901CD
:1012A000E156FE4F408149932F5F3F4F2430310577
:1012B000B1F702C081E090E0DF91CF910895CF9324
:1012C0000E94A408C82F0E943C09892BC1F05D9898
:1012D00090915A019F5F90935A01963098F08091B7
:1012E0000101811103C0E0E0F0E002C0E4E0F0E0C1
:1012F000EE5AFE4F108211821282138203C05D9A51
:1013000010925A018C2FCF9108950E94A4088091C9
:101310000101811103C0E4E0F0E002C0E0E0F0E090
:10132000EE5AFE4F80E090E02191DC01A156BE4FC5
:101330002C93019684309105B9F70895E82FF0E0D9
:10134000EE5AFE4F80810895CF92DF92EF92FF9286
:101350000F931F93CF93DF938AE593E00E94670773
:1013600082E5E82E81E0F82EC0E0D0E095E5C92EB8
:1013700093E0D92E0CE413E0DF93CF93DF92CF926A
:101380000E94000882E593E00E946707F7018191BF
:101390007F0190E00E94551F9F938F931F930F939F
:1013A0000E9400088AE493E00E94670721968DB7A7
:1013B0009EB708960FB6F8949EBF0FBE8DBFC8307B
:1013C000D105D1F6DF91CF911F910F91FF90EF9052
:1013D000DF90CF9008951F920F920FB60F921124B5
:1013E0008F939F93EF93FF938091B900887F80380C
:1013F00069F038F48823C9F18036C9F510925B0191
:1014000036C0883A09F1883BF9F031C080915B0120
:10141000811111C08091BB0080935C0180915C01BF
:10142000803420F010925C0180E001C081E091E006
:1014300090935B011DC0E0915C01F0E08091BB00E6
:10144000E35AFE4F808308C0E0915C01F0E0E35A6C
:10145000FE4F80818093BB0080915C0190E00196FB
:101460008F73992780935C0102C01092BC0081E0C9
:101470009091BC0095688295880F880F807C892B9D
:101480008093BC00FF91EF919F918F910F900FBEC1
:101490000F901F901895509A08955098589A089553
:1014A000589A08950E944B0A589880E88A95F1F757
:1014B0000C94500A0E944D0A489BFECF80E88A9502
:1014C000F1F708950E944D0A98E080E029B121705B
:1014D000880F822B20E82A95F1F725E02A95F1F76D
:1014E0000000915099F708950F931F93CF93082F01
:1014F0000E944B0AC8E010E0C15088F0C8010C2ED1
:1015000002C0959587950A94E2F780FF03C00E9478
:10151000500A01C0589880E88A95F1F7EDCFCF9135
:101520001F910F9108950E944B0A0C94500A0E943B
:101530004D0AE89AE9E6F0E080818C7F8083089587
:101540001F920F920FB60F921124CF92DF92EF925B
:10155000FF921F932F933F934F935F936F937F93CC
:101560008F939F93AF93BF93EF93FF93CF93DF93AB
:101570001F92CDB7DEB70E94520AC12CD12C10E0C9
:10158000C60181569E4F7C01FC0180810E94740A35
:101590000E94520AF7018081180FFFEFCF1ADF0A6D
:1015A00084E0C816D10461F7812F0E94740A0E945A
:1015B000520A90E89A95F1F7E0E4EA95F1F70E9473
:1015C000620A80939E010E94520A10919E010E941D
:1015D000620A89830E94520A0E944D0A8981181763
:1015E00021F080919D01816003C080919D018E7FDB
:1015F00080939D010F90DF91CF91FF91EF91BF916B
:10160000AF919F918F917F916F915F914F913F919A
:101610002F911F91FF90EF90DF90CF900F900FBE12
:101620000F901F901895CF92DF92EF92FF921F9329
:10163000CF93DF931F92CDB7DEB7F8940E944B0A89
:10164000589825E02A95F1F700000E944D0A0E9463
:10165000500A30E83A95F1F7489934C00E945A0A86
:10166000C12CD12C10E00E94620AF601E156FE4F17
:101670007F0180830E945A0AF7018081180FFFEFD3
:10168000CF1ADF0A24E0C216D10469F70E94620A69
:1016900089830E945A0A8981181314C080919E017F
:1016A0000E94740A0E945A0A80919E010E94740A44
:1016B0000E945A0A0E944B0A0E94500A789480E0C5
:1016C00090E003C0789481E090E00F90DF91CF919B
:1016D0001F91FF90EF90DF90CF900895E8EDF0E03C
:1016E0008081806180838AE18A95F1F700C08091D2
:1016F000D9008170089587E090E00E94DB2B91E093
:10170000811101C090E0909301010E946E0B88232B
:1017100019F00E94930A02C00E94970A78940895D3
:101720000E9472080E948509FDCF0E947B0B0E94D7
:101730006E0B811102C00E94900B08950895809154
:10174000B60108959FB7F8941092A5019FBF90919C
:101750003302943009F057C09091E9009F703091A6
:10176000EC00232F217030FD20E8922B24E0209301
:10177000E9002091EB0020FF43C02091EE0027FFFD
:101780003FC02091A301222321F02091E80025FFF2
:1017900037C01092A30126E03091E80035FD15C056
:1017A00030913302343061F53091EB0035FD28C0C3
:1017B000215021F481E08093A30122C0EFE9FFE0F2
:1017C0003197F1F700C00000E7CF8093F1008091DE
:1017D000E80085FD0AC08091E80080FFFCCF809181
:1017E000E8008E778093E80006C08FB7F89421E078
:1017F0002093A5018FBF9F709093E90080E008952A
:101800009F709093E9008FEF0895CF93DF9300D0FE
:101810001F92CDB7DEB79C0180913302843019F559
:1018200093E099833B832A839093E9008FEF909113
:10183000E800815095FD06C095ED9A95F1F70000FE
:101840008111F5CF8091E80085FF0DC040E050E0A8
:1018500063E070E0CE0101960E94DE0E8091E80008
:101860008E778093E8000F900F900F90DF91CF91CB
:101870000895CF93DF9300D01F92CDB7DEB72091AC
:101880003302243021F522E029839B838A8383E07D
:101890008093E9008FEF9091E800815095FD06C09C
:1018A00095ED9A95F1F700008111F5CF8091E80050
:1018B00085FF0DC040E050E063E070E0CE0101968E
:1018C0000E94DE0E8091E8008E778093E8000F90F2
:1018D0000F900F90DF91CF91089520913302243023
:1018E000F1F422E02093E9002FEF3091E80021503D
:1018F00035FD06C035ED3A95F1F700002111F5CF21
:101900002091E80025FF0BC040E050E065E070E06A
:101910000E94DE0E8091E8008E778093E8000895A3
:10192000CF93DF9320913302243009F048C0EC01BB
:1019300080910C018823E1F080910D018823C1F092
:1019400085E08093E9008FEF9091E800815095FD4C
:1019500006C095E19A95F1F700008111F5CF8091CD
:10196000E80085FF2CC040E050E060E170E017C067
:1019700081E08093E9008FEF9091E800815095FD20
:1019800006C095ED9A95F1F700008111F5CF809191
:10199000E80085FF14C040E050E068E070E0CE0150
:1019A0000E94DE0E8091E8008E778093E80080E14F
:1019B000FE01A6EAB1E001900D928A95E1F7DF9170
:1019C000CF91089587EA93E00E94670780913202E1
:1019D000811109C00E9473100E94D0108091E20012
:1019E00084608093E200089583EA93E00E94670791
:1019F0001092320208958FE993E00C9467078BE907
:101A000093E00E9467070C941E2A87E993E00E94E6
:101A100067070E94AE1F0E94242A0E945A130C944A
:101A20009E0B2091A4012F5F822F62E30E94A12BC5
:101A3000992319F02093A40108951092A401809194
:101A4000A501882371F180913302843041F58091A2
:101A5000E9008F702091EC00922F917020FD90E8AA
:101A6000892B94E09093E9009091EB0090FF14C0D3
:101A70009091EE0097FF10C09091E80095FF03C091
:101A80001092F100F9CF9091E80090FF05C090917D
:101A9000E8009E779093E8008F708093E9001092A1
:101AA000A501089542E061EC81E00E94ED0F42E063
:101AB00061EC82E00E94ED0F42E061EC83E00E9465
:101AC000ED0F42E261EC84E00E94ED0F42E161EC37
:101AD00085E00C94ED0F80913502833009F455C0F8
:101AE00030F4813071F0823009F48EC008958A306C
:101AF00009F47AC08B3009F460C0893009F09CC0C9
:101B000020C080913402813A09F096C08091E800AB
:101B1000877F8093E8008091380290913902892B69
:101B200021F460E186EA91E003C060E080E090E0AB
:101B300070E00E94290F8091E8008B778093E80085
:101B4000089580913402813209F076C08091380284
:101B500090913902009719F0049709F06DC08091B7
:101B6000E800877F8093E8008091E80082FD05C04F
:101B7000809133028111F8CF5FC08091F100809392
:101B8000B6018091E8008B7753C080913402813A8E
:101B900009F052C08091380290913902892B09F0E6
:101BA0004BC08091E800877F8093E8008091E80037
:101BB00080FFFCCF80910C0136C0809134028132CD
:101BC000D9F58091380290913902892BA9F580913D
:101BD000E800877F8093E8000E94221080913602FF
:101BE00080930C010C94BB1880913402813221F552
:101BF0008091E800877F8093E8000E942210809106
:101C000037028093B701089580913402813AA1F49C
:101C10008091E800877F8093E8008091E80080FF52
:101C2000FCCF8091B7018093F1008091E8008E771E
:101C30008093E8000C942210089584B7877F84BFB6
:101C40000FB6F894A8958091600088618093600039
:101C5000109260000FBE90E080E80FB6F894809379
:101C60006100909361000FBE0E94E6130E94731002
:101C70000E94D0108091E20084608093E20082EAAA
:101C80009BE00E943A1F7894809133028430E1F700
:101C900086E893E00E9467070E94E81382E091E0E3
:101CA0000E9455130E940C2A85E793E00E94670763
:101CB00080913302853089F481E793E00E946707C1
:101CC0000E946F1F80913102882391F30E949A1F16
:101CD000882371F30E94C80EEBCF0E941614E8CF40
:101CE000292F332723303105C9F064F42130310521
:101CF00081F02230310509F043C08DE890E02FEEED
:101D000033E042C021323105F1F02232310541F198
:101D100037C082E190E02CE734E036C0992781306B
:101D2000910541F08230910541F0892B49F5EBEEA8
:101D3000F3E005C0E5EDF3E002C0EBEAF3E08491E7
:101D400090E09F0121C06530D8F4E62FF0E0EE0F5F
:101D5000FF1FED5CFE4F2081318189E090E014C0CF
:101D6000653070F470E0FB01EE0FFF1FE75DFE4F82
:101D700020813181FB01EC5DFE4F808190E004C049
:101D800080E090E020E030E0FA0131832083089584
:101D900080E189BD82E189BD09B400FEFDCF80915B
:101DA000D8008F7D8093D8008091E000826080937E
:101DB000E0008091E00081FDFCCF0895CF92DF929A
:101DC000EF92FF920F931F93CF93DF93EC018B0160
:101DD0006A010E944110811133C0C114D10439F04D
:101DE000F60180819181081B190BC80FD91FE12CC6
:101DF000F12C0115110519F18091E80085FD16C03F
:101E00008091E8008E778093E800C114D10449F0F6
:101E1000F60180819181E80EF91EF182E08285E071
:101E20000FC00E944110882321F30AC0899180933A
:101E3000F10001501109FFEFEF1AFF0ADACF80E03D
:101E4000DF91CF911F910F91FF90EF90DF90CF9096
:101E5000089520913A0230913B022617370748F047
:101E60006115710539F42091E8002E772093E80080
:101E700001C0B90140E061157105A9F1209133025B
:101E8000222309F443C0253009F442C02091E80020
:101E900023FD40C02091E80022FD32C02091E800DF
:101EA00020FFE9CF4091F3002091F20030E0342B85
:101EB000FC01CF016115710559F02830310540F45E
:101EC00081918093F100615071092F5F3F4FF1CFF5
:101ED00041E02830310509F040E02091E8002E77FC
:101EE0002093E800C8CF4111C9CF0AC080913302C6
:101EF000882361F0853061F08091E80083FD0AC09D
:101F00008091E80082FFF2CF80E0089582E008959A
:101F100083E0089581E0089520913A0230913B02D8
:101F20002617370748F06115710539F42091E8004C
:101F30002E772093E80001C0B901FC0120E0611573
:101F4000710591F180913302882309F440C08530F6
:101F500009F43FC08091E80083FD3DC08091E80016
:101F600082FD2FC08091E80080FFE9CF2091F3002F
:101F70008091F20090E0922B6115710559F0883044
:101F8000910540F424912093F1003196615071093C
:101F90000196F2CF21E0089709F020E08091E80057
:101FA0008E778093E800CBCF2111CCCF0AC08091EF
:101FB0003302882361F0853061F08091E80083FD71
:101FC0000AC08091E80082FFF2CF80E0089582E0AD
:101FD000089583E0089581E00895982F973058F58B
:101FE0009093E900981739F07091EC002091ED0082
:101FF0005091F00003C0242F762F50E021FF19C02C
:102000003091EB003E7F3093EB003091ED003D7F4F
:102010003093ED003091EB0031603093EB00709322
:10202000EC002093ED005093F0002091EE0027FF8C
:1020300007C09F5FD3CF8F708093E90081E0089540
:1020400080E008958091340287FF11C08091E800FC
:1020500082FD05C0809133028111F8CF11C08091BB
:10206000E8008B770BC080913302882349F0809180
:10207000E80080FFF8CF8091E8008E778093E80039
:1020800008952091E4003091E50095E64091EC0040
:10209000842F817040FF22C08091E80080FD1CC029
:1020A00080913302882391F0853091F08091EB008C
:1020B00085FD10C04091E4005091E50042175307A0
:1020C00029F39A01915011F784E0089582E0089570
:1020D00083E0089581E0089580E008954091E8004C
:1020E00042FFDECF08950E94E1100E94E910E0EE69
:1020F000F0E0808181608083E8EDF0E080818F777F
:10210000808319BCA7EDB0E08C918E7F8C93808189
:102110008F7E80831092320208950F931F93CF9386
:10212000DF930E94E1100E94E910C8EDD0E08881A1
:102130008F77888388818068888388818F7D888372
:1021400019BC1092330210922F0210923102109299
:10215000300200EE10E0F80180818B7F808388815F
:102160008160888342E060E080E00E94ED0FE1EE54
:10217000F0E080818E7F8083E2EEF0E080818160FC
:102180008083808188608083F80180818E7F808356
:10219000888180618883DF91CF911F910F9108958D
:1021A000E8EDF0E080818F7E8083E7EDF0E08081D4
:1021B0008160808384E082BF81E0809332020C944E
:1021C0008D10E8EDF0E080818E7F80831092E20038
:1021D00008951092DA001092E10008951F920F9274
:1021E0000FB60F9211242F933F934F935F936F93EA
:1021F0007F938F939F93AF93BF93EF93FF938091C0
:10220000E10082FF0BC08091E20082FF07C0809155
:10221000E1008B7F8093E1000E94110D8091DA0034
:1022200080FF1FC08091D80080FF1BC08091DA0022
:102230008E7F8093DA008091D90080FF0DC080E10D
:1022400089BD82E189BD09B400FEFDCF81E08093A4
:1022500033020E94E20C05C019BC109233020E94A6
:10226000F40C8091E10080FF19C08091E20080FFB2
:1022700015C08091E2008E7F8093E2008091E200A1
:1022800080618093E2008091D80080628093D800C2
:1022900019BC85E0809333020E94FF0C8091E1001D
:1022A00084FF30C08091E20084FF2CC080E189BDB2
:1022B00082E189BD09B400FEFDCF8091D8008F7DF9
:1022C0008093D8008091E1008F7E8093E10080911F
:1022D000E2008F7E8093E2008091E2008160809333
:1022E000E20080912F02882311F084E007C08091E2
:1022F000E30087FD02C081E001C083E080933302E8
:102300000E94050D8091E10083FF29C08091E200C9
:1023100083FF25C08091E100877F8093E10082E008
:102320008093330210922F028091E1008E7F809380
:10233000E1008091E2008E7F8093E2008091E200D4
:1023400080618093E20042E060E080E00E94ED0F57
:102350008091F00088608093F0000E94FB0CFF9158
:10236000EF91BF91AF919F918F917F916F915F910D
:102370004F913F912F910F900FBE0F901F90189586
:102380001F920F920FB60F9211242F933F934F93EA
:102390005F936F937F938F939F93AF93BF93CF93ED
:1023A000DF93EF93FF93C091E900CF708091EC0031
:1023B000D82FD17080FDD0E81092E9008091F00014
:1023C000877F8093F00078940E9404121092E900B5
:1023D0008091F00088608093F000CD2BCF70C09387
:1023E000E900FF91EF91DF91CF91BF91AF919F9164
:1023F0008F917F916F915F914F913F912F910F90AE
:102400000FBE0F901F9018951F93CF93DF93CDB7FA
:10241000DEB7AA970FB6F894DEBF0FBECDBFE4E3D8
:10242000F2E088E08E0F9091F10091938E13FBCF34
:102430000E946B0D8091E80083FF1FC180913402E0
:1024400090913502492F50E04A30510508F015C1EE
:10245000FA01EA5AFF4F0C94C12B803881F0823880
:1024600009F00BC1809138028F708093E900809150
:10247000EB0085FB882780F91092E90006C0809167
:10248000300290913102911182609091E800977F23
:102490009093E8008093F1001092F100C8C0282FBB
:1024A0002D7F09F0EAC0882319F0823061F0E5C081
:1024B00080913602813009F0E0C0933009F080E06D
:1024C000809331022BC080913602811127C0809108
:1024D00038028F7009F4D1C08093E9002091EB009D
:1024E00020FF1CC0933021F48091EB00806214C067
:1024F0009091EB0090619093EB0021E030E0A90116
:1025000002C0440F551F8A95E2F74093EA001092EB
:10251000EA008091EB0088608093EB001092E90064
:102520008091E800877F86C08111A7C01091360294
:102530001F778091E3008078812B8093E300809166
:10254000E800877F8093E8000E9422108091E800D5
:1025500080FFFCCF8091E30080688093E30011113D
:1025600002C082E001C083E08093330286C08058BD
:10257000823008F082C080913602909137028C3D03
:1025800053E0950779F583E08A838AE289834FB720
:10259000F894DE01139620E03EE051E2E32FF0E0F4
:1025A00050935700E49120FF03C0E295EF703F5F26
:1025B000EF708E2F90E0EA3010F0C79601C0C09601
:1025C0008D939D932F5F243149F74FBF8091E80091
:1025D000877F8093E8006AE270E0CE0101960E9456
:1025E000290F14C0AE014F5F5F4F609138020E9407
:1025F000700EBC01892B09F440C09091E800977FD0
:102600009093E80089819A810E948C0F8091E80064
:102610008B778093E80031C0803879F58091E800AD
:10262000877F8093E80080912F028093F100809152
:10263000E8008E778093E8000E9422101EC081116E
:102640001CC0909136029230C0F48091E800877FE0
:102650008093E80090932F020E94221080912F0215
:10266000811106C08091E30087FD02C081E001C0B6
:1026700084E0809333020E94520D8091E80083FF32
:102680000AC08091E800877F8093E8008091EB008A
:1026900080628093EB00AA960FB6F894DEBF0FBE5F
:1026A000CDBFDF91CF911F9108959093BD0180938D
:1026B000BC010895E091BC01F091BD01309721F07B
:1026C0000190F081E02D099480E00895EF92FF924F
:1026D0000F931F93CF93DF93E091BC01F091BD0165
:1026E0003097B1F18C010280F381E02D0995809142
:1026F0001C0282FF2DC080FF04C081EB95E00E9488
:102700006707E80110E18BEAE82E85E0F82E80915A
:102710001C0280FF0BC088811F928F93FF92EF9263
:102720000E9400080F900F900F900F90115021966B
:102730001111EDCF80911C0280FF0AC089EA95E05B
:10274000DF91CF911F910F91FF90EF900C9467074D
:10275000DF91CF911F910F91FF90EF900895E0913D
:10276000BC01F091BD01309721F00480F581E02D8E
:10277000099408952091BA013091BB018217930703
:1027800071F09093BB018093BA01E091BC01F0918C
:10279000BD01309721F00680F781E02D099408955E
:1027A0002091B8013091B9018217930771F090938D
:1027B000B9018093B801E091BC01F091BD0130975F
:1027C00021F00084F185E02D099408950C94950B77
:1027D0000E94B01F0E9472080C949D20CF93C82FB6
:1027E00080911C0282FF1EC080FF04C08AEC95E02D
:1027F0000E94670780911C0280FF0CC01F92CF933C
:1028000085EC95E09F938F930E9400080F900F90A6
:102810000F900F9080911C0280FF04C083EC95E024
:102820000E9467078C2FCF910C949E0BCF92DF9262
:10283000EF92FF920F931F93CF93DF93CDB7DEB745
:102840002B970FB6F894DEBF0FBECDBF0E945F0975
:102850008FEBC82E81E0D82E00E010E0E02E802F14
:102860000E949E09F60141916F01F42EF826B1F401
:102870000F5F1F4F0830110589F78FEF89838A8317
:102880001B820E94B91F8160782F9D838C834981B0
:102890005A816B818D810E94B91440C090911C02B5
:1028A00091FF04C08B870E94A4098B8520E030E053
:1028B0004F2D50E0922FBA01022E02C075956795F8
:1028C0000A94E2F760FF24C02E83EF8221E030E01B
:1028D000690102C0CC0CDD1C9A95E2F790E08C21D6
:1028E0009D21892B09F420E028870E94B91F81606F
:1028F000782F9A8789874E815F8168858A850E94B3
:10290000B914F801E154FE4F8081C826C08206C088
:102910002F5F3F4F2630310569F6AACF0E9425244C
:102920001091BE010E945A131817A1F00E945A1369
:102930008093BE012B960FB6F894DEBF0FBECDBFBD
:10294000DF91CF911F910F91FF90EF90DF90CF908B
:102950000C94EE132B960FB6F894DEBF0FBECDBFCE
:10296000DF91CF911F910F91FF90EF90DF90CF906B
:102970000895CF93DF93CDB7DEB72B970FB6F894BA
:10298000DEBF0FBECDBF4F83588769877A878B879D
:10299000DE01119686E0FD0111928A95E9F785E046
:1029A000FE01379601900D928A95E1F749815A818F
:1029B0006B817C818D819E810E94591B2B960FB665
:1029C000F894DEBF0FBECDBFDF91CF910895CF93B6
:1029D000882309F4CDC0C82F823859F40E945A13B5
:1029E00081FDC6C089E30E94321E0E94141F89E344
:1029F0000CC0833879F40E945A1380FDB9C083E576
:102A00000E94321E0E94141F83E50E94851ECF91F2
:102A10000C94141F843859F40E945A1382FDA8C0E4
:102A200087E40E94321E0E94141F87E4EECF8CEFD1
:102A30008C0F813A48F48C2F0E94B728811198C0DE
:102A40008C2F0E94321EE3CF80E28C0F883048F436
:102A5000C77081E001C0880FCA95EAF70E94DD1EA9
:102A6000D6CF8BE58C0F833078F4C53A29F0C63A7F
:102A700031F083E890E005C081E890E002C082E890
:102A800090E0CF910C94BA1388E58C0F853108F053
:102A90006FC0C83A61F1C93A69F1CA3A71F1CB3AEB
:102AA00079F1CC3A81F1CD3A89F1CE3A91F1CF3A30
:102AB00099F1C13BA1F1C03BA9F1C23BB1F1C33BCC
:102AC000B9F1C43BC1F1C53BC9F1C63BD1F1C73B2C
:102AD000D9F1C83BE1F1C93BE9F1CA3BF1F1CB3B8C
:102AE000F9F1CC3B09F43FC080E090E03EC082EEBB
:102AF00090E03BC089EE90E038C08AEE90E035C0AF
:102B000085EB90E032C086EB90E02FC083EB90E045
:102B10002CC084EB90E029C087EB90E026C08CECC1
:102B200090E023C08DEC90E020C083E891E01DC0D0
:102B30008AE891E01AC082E991E017C084E991E047
:102B400014C081E292E011C083E292E00EC084E200
:102B500092E00BC085E292E008C086E292E005C0F8
:102B600087E292E002C08AE292E0CF910C94D01307
:102B7000CF910895882309F44BC0823859F40E94FC
:102B80005A1381FF45C089E30E94321E0E94141F20
:102B900089E30CC0833871F40E945A1380FF38C057
:102BA00083E50E94321E0E94141F83E50E94851E49
:102BB0000C94141F843859F40E945A1382FF28C0C1
:102BC00087E40E94321E0E94141F87E4EFCF9CEF1F
:102BD000980F913A58F390E2980F983050F487701C
:102BE00091E001C0990F8A95EAF7892F0E94E31EB0
:102BF000DFCF9BE5980F933020F480E090E00C94B9
:102C0000BA13885A853120F480E090E00C94D013F8
:102C10000895882321F00E94DD1E0C94141F08954E
:102C2000882321F00E94E31E0C94141F08954F92F4
:102C30005F926F927F928F929F92AF92BF92CF924C
:102C4000DF92EF92FF920F931F93CF93DF9300D009
:102C500000D000D0CDB7DEB725E0FC01DE01119633
:102C600001900D922A95E1F7FC0140813181F280BB
:102C7000258122952F7063817481672B09F452C2DC
:102C80003F3F19F44F3F09F44DC26C0149833A8329
:102C900089819A812E830E94B41D8C010E94B31DEC
:102CA0000E947A1C0E942B1E2E81882361F0FF2037
:102CB00051F082E00E94141E0E942B1E91E0E82E2B
:102CC000E9262E8101C0E12CE12FE295EF70F0E0C2
:102CD000E05AFF4F0C94C12B812F807F1F708823F7
:102CE00011F01295107FFF2049F0112309F4D7C18C
:102CF000812F0E94ED1E0E94141FD1C1802F0E94BF
:102D0000BA15112309F4E5C1812F0E94F31E0E9418
:102D1000141FDFC1812F807F1F70803211F0129548
:102D2000107F002319F0013029F12DC0FF2081F020
:102D3000222399F1213021F4812F0E94FD1EC9C167
:102D4000223059F50E94001F812F0E94F81D25C0D6
:102D5000222369F0213041F40E94DA1E812309F414
:102D6000B8C10E94FB1D03C0223009F4B2C10E9409
:102D7000001F19C0FF2021F0223008F0AAC10DC0A9
:102D80002111A7C110C0FF2061F0222331F0F6010C
:102D9000858180FF84C18F708583812F0E940916F1
:102DA00098C1211183C1812FF3C0812F869586950B
:102DB000837090E0009719F0019759F08AC1FF20C5
:102DC00019F0C801937002C080E090E00E94BA132D
:102DD00080C1FF2019F0C801937002C080E090E02C
:102DE0000E94D01376C1802FFF2019F00E94AB22E1
:102DF00002C00E9413230E9498236BC1812F83700D
:102E000009F053C0F11065C1802F829586958770B7
:102E1000880F880F902F9F70492E512C612C712C98
:102E2000082E04C0440C551C661C771C0A94D2F76B
:102E300004FF15C02FE0822E912CA12CB12CA501EE
:102E4000940104C0220F331F441F551F8A95D2F7E7
:102E5000CA01B901609570958095909503C060E0B6
:102E600070E0CB01169516951370412F50E042305B
:102E7000510569F04330510589F064297529862987
:102E800097294130510571F00E94A11C22C164298B
:102E90007529862997290E94BD1C1BC10E94A11C6F
:102EA000C301B2010E94851C14C1FF2019F0812FBB
:102EB000817001C08695882309F40BC1802F82950B
:102EC00086958770880F880F902F9F70492E512C00
:102ED000612C712C082E04C0440C551C661C771CF8
:102EE0000A94D2F704FF15C09FE0892E912CA12CE3
:102EF000B12CA501940104C0220F331F441F551F9C
:102F00008A95D2F7CA01B901609570958095909520
:102F100003C060E070E0CB01169516951370412F49
:102F200050E04230510569F04330510589F0642981
:102F30007529862997294130510571F00E947B1D22
:102F4000C8C064297529862997290E94971DC1C088
:102F50000E947B1DC301B2010E945F1DBAC0802F79
:102F600090E0FC01E05EF109E531F10508F092C066
:102F7000E059FF4F0C94C12B0F70812F8F71FF20F0
:102F800021F00E94F81C802F09CF0E94191D802F6C
:102F90000E9410169EC0FF2039F021119AC0812F87
:102FA0008F710E943E1D95C0223008F092C0F7CF6D
:102FB000FF2039F0812F8F710E94F81C8AC0FF20FA
:102FC000C9F3812F8F710E94191D83C0FF2029F042
:102FD000812F8F710E94E31C7CC00E94D91C79C094
:102FE0002E83FF20C1F00E94F51D0E94E31E0E9467
:102FF000041E2E81843029F40E94111E812F8F71AE
:1030000079C0223008F08EC01F71812F0E94F81CF9
:1030100063E0812F0EC00E94F51D0E94DD1E2E81EF
:103020002230F8F00E94111E0E94FB1D64E0812FE7
:103030008F7126960FB6F894DEBF0FBECDBFDF911D
:10304000CF911F910F91FF90EF90DF90CF90BF90A5
:10305000AF909F908F907F906F905F904F900C9467
:10306000081E81E026960FB6F894DEBF0FBECDBFD6
:10307000DF91CF911F910F91FF90EF90DF90CF9054
:10308000BF90AF909F908F907F906F905F904F9088
:103090000C94141EFF2039F0222309F48BCF802FCB
:1030A0000E94E71416C0222309F48BCF802F0E94C0
:1030B000BA150FC0412F4F70602FC6010E944820E3
:1030C0000E94FD1B06C0412F4F70602FC6010E9459
:1030D0001F08EE2039F10E94041E80FD23C0F60176
:1030E00012820E94FE1D0E94F81CC6010E94171643
:1030F0000E94FE1D26960FB6F894DEBF0FBECDBF10
:10310000DF91CF911F910F91FF90EF90DF90CF90C3
:10311000BF90AF909F908F907F906F905F904F90F7
:103120000C94191D26960FB6F894DEBF0FBECDBFC6
:10313000DF91CF911F910F91FF90EF90DF90CF9093
:10314000BF90AF909F908F907F906F905F904F90C7
:1031500008950E94FA1E0E94CC1E0E94141F0E9415
:10316000CA240E94982380E090E00E94BA1380E075
:1031700090E00C94D0130E94EA1E0C94A9180E94AF
:10318000B41D292F22952F7030E02C3031054CF4DE
:103190002A3031056CF42250310922303105A8F46F
:1031A00007C02C30310569F02F30310551F00DC0CA
:1031B000803F69F018F4803E40F409C0843F29F450
:1031C00006C093FB882780F9089580E0089581E088
:1031D0000895CF93DF9300D000D01F92CDB7DEB714
:1031E0000F900F900F900F900F90DF91CF91089557
:1031F000CF93DF9300D000D000D0CDB7DEB72696B6
:103200000FB6F894DEBF0FBECDBFDF91CF9108950A
:103210001F93CF93DF93C091C70116E08091C8013F
:10322000C81799F0D0E01C9FF0011D9FF00D1124EC
:10323000E753FE4F40815181628173818481958182
:103240000E94F8182196C770E9CFDF91CF911F91A6
:1032500008954091F9015091FA016091FB0170913C
:10326000FC018091FD019091FE010C94F818809171
:10327000FE0182958F7009F054C08091FB01882374
:1032800009F44FC08091C701A091C8016091F90174
:103290007091FA014091FC015091FD01B6E08A174E
:1032A00009F43FC090E041155105C1F17F3F11F491
:1032B0006F3FA1F1B89FF001B99FF00D1124E753C2
:1032C000FE4F218172132AC02081621327C0228100
:1032D000211124C0238134812417350710F4215093
:1032E0003109241B350B283C3105C0F42091FE0127
:1032F0002F7020612093FE0126E0289FF001299F76
:10330000F00D1124E253FE4F80818F708061808325
:1033100089EF91E00E9417160C94081901968770A6
:10332000BECF0895CF92DF92EF92FF920F931F933B
:10333000CF93DF93CDB7DEB762970FB6F894DEBFB9
:103340000FBECDBF8C0185E0F801DE011D96019016
:103350000D928A95E1F7D8014C9111965C911197E5
:1033600012966C9112971396CD90DC901497309131
:10337000F9017091FA018091FC019091FD01009793
:1033800009F46BC17F3F19F43F3F09F466C1E09037
:10339000FB01EE2009F4C0C02091FE01C816D90639
:1033A00028F0F601E81BF90BCF0104C08095909539
:1033B0008C0D9D1DFF24F394883C910578F0F12C31
:1033C000207F09F0C6C07C2DD98AC88A89890E94CD
:1033D000E91889EF91E00E941716B1C0822F807F13
:1033E00009F046C0751314C0341312C0611110C027
:1033F0002F7020612093FE010E94291989EF91E02E
:103400000E9417168091FE01D80115968C932EC04C
:10341000CD2819F15F3F11F44F3FF9F0F62E6111FD
:103420001CC08091C7012091C80136E0821709F4C1
:103430005AC090E0389FF001399FF00D1124E753F6
:10344000FE4F7181571306C07081471303C072810C
:10345000711103C001968770E9CFF62E662309F437
:1034600018C18091FE0181608093FE01F12C11C191
:10347000751308C0341306C0611104C08091FE01A9
:10348000D801C3C04D875E878D859E856A8B0E945B
:10349000BF186A898823E1F16623D1F12091FE01EA
:1034A000822F82958F7090E0029774F08091F901DD
:1034B0009091FA0198878F831986DB86CA862C87BC
:1034C000CE0107960E94171686E0F801A9EFB1E039
:1034D00001900D928A95E1F70E9437190E942919EF
:1034E000FF24F394D6C04D875E878D859E850E940C
:1034F000B41D292F22952F7030E0223031050CF0B9
:10350000BCC09F7009F0B6C0805E883008F4C1C0AE
:10351000C8010E941716E4CFC816D90608F453C094
:10352000F601E81BF90BCF01883C910508F450C067
:10353000F12C7C2DD98AC88A89890E94E918E9EF83
:10354000F1E086E0DF011D928A95E9F70E942919D2
:10355000A0C0751314C0341312C0611110C0809143
:10356000FE01F8018583C8010E94171686E0E9EF85
:10357000F1E0DF011D928A95E9F7FE2C8AC04D87A4
:103580005E878D859E856A8B0E94BF186A89882315
:1035900009F4BECF662309F4BBCF2091FE01822F30
:1035A00082958F7090E002970CF48ECF8091F90194
:1035B0009091FA019A8389831B82DD82CC822E83CB
:1035C000CE0101967FCF809590958C0D9D1DACCF3F
:1035D000F62E662309F49CCF75132EC034132CC02D
:1035E0002091FE0120FD1FC0822F82958F70D9F09F
:1035F000D80115962C9315978F3049F08F5F982F2F
:103600009295907F822F8F70892B15968C93C8018D
:103610000E94171686E0F801A9EFB1E001900D9223
:103620008A95E1F793CF86E0F801A9EFB1E0019028
:103630000D928A95E1F72DC04D875E878D859E8519
:103640000E94BF18811140CF8091FE01816080935C
:10365000FE01C8010E9417161CC0662309F458CF4A
:103660004D875E878D859E850E94BF18882309F44B
:103670004FCF2ACF811148CF0CC0243031050CF038
:1036800047CF9F7009F440CFF8019581907F09F0F2
:103690003BCF8F2D62960FB6F894DEBF0FBECDBF25
:1036A000DF91CF911F910F91FF90EF90DF90CF901E
:1036B00008951F93CF93DF93CDB7DEB72C970FB646
:1036C000F894DEBF0FBECDBF4F83588769877A87D6
:1036D0008B879C87CE0107960E949219882369F0F8
:1036E0008F8198852A853B85232BF1F19F3F09F037
:1036F00063C08F3F09F060C037C086E0FE01379697
:10370000DE01119601900D928A95E1F76F8178851F
:10371000EA85FB85309741F17F3F11F46F3F21F13E
:103720002091C80130E0C901019687709927409126
:10373000C70150E08417950709F447C069837A836D
:10374000FD83EC8396E0929FD001939FB00D1124EE
:10375000A753BE4FFE01319601900D929A95E1F765
:103760008093C8010E94081916E08091C7019091CA
:10377000C8018917C1F1189FC001112487539E4FBA
:103780000E949219882379F1E091C7011E9FF001F0
:103790001124E753FE4F40815181628173818481FE
:1037A00095810E94F8188091C70190E0019687707A
:1037B00099278093C701D9CF4F81588569857A852C
:1037C0008B859C850E94F818CFCF0E94BB18109261
:1037D000C8011092C701E9EFF1E086E0DF011D9218
:1037E0008A95E9F7C1CF2C960FB6F894DEBF0FBECD
:1037F000CDBFDF91CF911F910895EF92FF920F936C
:103800001F93CF93DF938C01892B09F46CC0F12CAB
:10381000EE24E394E8012196F8018491843740F482
:10382000843008F051C0813081F0823019F15BC0E2
:10383000853709F444C0A8F19CE7980F903708F049
:1038400052C08F770E94BA1541C00E5F1F4FFE0114
:10385000C49180E28C0F883048F4C7708E2D01C06F
:10386000880FCA95EAF70E94ED1E14C08C2F0E94A3
:10387000E7142DC00E5F1F4FFE01C49180E28C0F34
:10388000883058F4C7708E2D01C0880FCA95EAF7AA
:103890000E94F31E0E94141F1AC08C2F0E94BA159A
:1038A00016C00E5F1F4FFE01C491CC2381F08FE93B
:1038B0009FE00197F1F700C00000C150F6CF0E5F06
:1038C0001F4FFE01F49003C00E94E7148E018F2D5C
:1038D000882309F49FCFEFE9FFE03197F1F700C0AB
:1038E00000008150F5CFDF91CF911F910F91FF9094
:1038F000EF900895089560930302709304028093FB
:103900000502909306020C94A9180F931F9300913F
:103910000302109104022091050230910602DC019D
:10392000CB01802B912BA22BB32B8093030290937E
:103930000402A0930502B09306021F910F910C940C
:10394000A9180F931F930091030210910402209174
:10395000050230910602DC01CB0180239123A223D2
:10396000B3238093030290930402A0930502B093C3
:1039700006021F910F910C94A9180F931F930091A9
:103980000302109104022091050230910602DC012D
:10399000CB0180279127A227B3278093030290931E
:1039A0000402A0930502B09306021F910F910C949C
:1039B000A9181092FF0110920002109201021092B9
:1039C00002020C94A91841E050E060E070E004C0ED
:1039D000440F551F661F771F8A95D2F74093FF014A
:1039E0005093000260930102709302020C94A91894
:1039F00041E050E060E070E004C0440F551F661FD6
:103A0000771F8A95D2F78091FF0190910002A091D3
:103A10000102B0910202482B592B6A2B7B2B409359
:103A2000FF015093000260930102709302020C9414
:103A3000A91841E050E060E070E004C0440F551F59
:103A4000661F771F8A95D2F74095509560957095BF
:103A50008091FF0190910002A0910102B0910202B9
:103A6000482359236A237B234093FF01509300028C
:103A700060930102709302020C94A91841E050E097
:103A800060E070E004C0440F551F661F771F8A95E1
:103A9000D2F78091FF0190910002A0910102B091B4
:103AA0000202482759276A277B274093FF0150933A
:103AB000000260930102709302020C94A9180F9304
:103AC0001F930091FF01109100022091010230919B
:103AD0000202DC01CB01802B912BA22BB32B809314
:103AE000FF0190930002A0930102B09302021F9184
:103AF0000F910C94A9180F931F930091FF0110913F
:103B000000022091010230910202DC01CB018023EE
:103B10009123A223B3238093FF0190930002A093EB
:103B20000102B09302021F910F910C94A9180F93F8
:103B30001F930091FF01109100022091010230912A
:103B40000202DC01CB0180279127A227B3278093B3
:103B5000FF0190930002A0930102B09302021F9113
:103B60000F910C94A9180895CF92DF92EF92FF92D3
:103B70000F931F93CF93DF938C01C0900302D090DB
:103B80000402E0900502F09006024091FF0150917E
:103B900000026091010270910202C42AD52AE62A2D
:103BA000F72ACFE1D0E0D701C6010C2E04C0B695AC
:103BB000A795979587950A94D2F780FF07C0B8011B
:103BC0008C2F0E9436208130910531F4219758F7CF
:103BD000B80180E00E943620DF91CF911F910F91B4
:103BE000FF90EF90DF90CF900895809108020895A4
:103BF00080930802089510920802089580910702A8
:103C0000859585958595089580910702877008951B
:103C100098E0899F90011124262B209307020C9491
:103C2000F81C1092070208952091070280958223C4
:103C300080930702982F977069F430E0482F082E80
:103C4000000C550B2417350729F08595859585952A
:103C50000C94191D089590910702977081E009F462
:103C600080E0089590910C01992321F090910D012D
:103C7000911109C020910E0130910F01F901329686
:103C80009FEF40E030C0982F9695969596959F307F
:103C9000A0F4E0910E01F0910F01E90FF11D877082
:103CA00021E030E0A90102C0440F551F8A95E2F7D8
:103CB000CA019181892B8183089590911C0290FF04
:103CC00023C01F928F938BEF95E09F938F930E9459
:103CD00000080F900F900F900F9008959F3F39F0BC
:103CE0004F5F4E3041F051915813F8CF0DC0511134
:103CF000F7CF942FF5CF9F3F39F0F901E90FF11D70
:103D000097FDFA9582830895089590910C01992367
:103D100021F090910D01911109C020910E01309177
:103D20000F01F9013296205F3F4F30C0982F9695D2
:103D3000969596959F30A8F4E0910E01F0910F01B1
:103D4000E90FF11D877021E030E0A90102C0440FA6
:103D5000551F8A95E2F7CA01809591818923818355
:103D6000089590911C0290FF16C01F928F938DEDC5
:103D700095E09F938F930E9400080F900F900F90F3
:103D80000F9008953196E217F30729F09081981368
:103D9000F9CF1082F7CF089581E090E0E0910E0115
:103DA000F0910F01E80FF91F108201968031910503
:103DB000A9F7089580911B02089590911B02892B09
:103DC00080931B020895809590911B028923809314
:103DD0001B02089510921B02089590911A02892BDC
:103DE00080931A020895809590911A0289238093F6
:103DF0001A02089510921A020895809309020895F4
:103E000010920902089580910E0190910F01FC011A
:103E100031969C01205F3F4F80E0919191118F5F1F
:103E2000E217F307D1F70895E0910E01F0910F0129
:103E300080911B028083E0910E01F0910F0190812F
:103E400080911A02892B808380910902882361F076
:103E5000E0910E01F0910F019081892B80830E94E7
:103E6000031F81111092090280910E0190910F01A0
:103E70000C946613909349018093480108958295AC
:103E8000982F9C7C392F36953695282F237344E044
:103E9000249FC0011124932F982B292F2A7A26952D
:103EA000892F8575880F822B08951F93CF93DF93F9
:103EB0001F92CDB7DEB799830E943F1F182F9981BB
:103EC000892F0E943F1F212F30E0322F2227A90186
:103ED000482BCA010F90DF91CF911F9108958091D7
:103EE0003302843021F110921D0220E488E190E039
:103EF0000FB6F894A895809360000FBE20936000E1
:103F000083B7817F846083BF83B7816083BF7894E8
:103F1000889583B78E7F83BF0FB6F894A89580915C
:103F20006000886180936000109260000FBE089569
:103F300008950895CF930E94981F0E945F090E94E0
:103F4000991FC0E08C2F0E949E09811104C0CF5F91
:103F5000C830C1F701C081E0CF9108950C94BB181F
:103F600082E084BD93E095BD9AEF97BD80936E008B
:103F700008952FB7F89480911E0290911F02A0918E
:103F80002002B09121022FBF0895CF92DF92EF92CD
:103F9000FF920F931F932FB7F89440911E025091F8
:103FA0001F0260912002709121022FBF6A017B01E4
:103FB000EE24FF248C0120E030E0C016D106E2069A
:103FC000F30610F4415051099A01281B390BC9011D
:103FD0001F910F91FF90EF90DF90CF9008951F9267
:103FE0000F920FB60F9211248F939F93AF93BF93AD
:103FF00080911E0290911F02A0912002B091210297
:104000000196A11DB11D80931E0290931F02A093E3
:104010002002B0932102BF91AF919F918F910F9099
:104020000FBE0F901F9018950E947310F8942FEFF9
:1040300087EA91E6215080409040E1F700C00000FF
:1040400087E090EBDC0180933D0290933E02A093C9
:104050003F02B09340029CE088E10FB6F894A89527
:10406000809360000FBE90936000FFCF96E0799F31
:10407000F001112490E3899FE00DF11D1124E60F5A
:10408000F11DEE0FFF1FE65FFE4F8591949108959D
:1040900080E090E00895CF92DF92EF92FF920F932D
:1040A0001F93CF936C01C0E08C2F0E949E0900E00B
:1040B00010E0E82EF12CC701002E02C095958795DF
:1040C0000A94E2F780FF16C0602F7C2F80E00E94E8
:1040D00036209C018C159D0559F0832F807E932FEF
:1040E000907C11F0803A31F430E02C153D0511F44C
:1040F00081E009C00F5F1F4F06301105E1F6CF5F69
:10410000C83091F680E0CF911F910F91FF90EF9012
:10411000DF90CF900895CF93DF93EC018CE290E095
:104120000E944B20882329F0CE01DF91CF910C947F
:104130004B2080E0DF91CF910895CF930E9403221E
:10414000811102C00E94E92180E296E00E94670787
:10415000C5E6C15049F00E945F098FE39CE90197D1
:10416000F1F700C00000F5CF89E196E00E946707F3
:1041700089E290E00E948B20811129C18AE290E0BF
:104180000E948B2081110E94E92185E090E00E942D
:104190008B2081110E9414200E940E2280931C0209
:1041A00087E090E00E948B208823C1F18BE190E0B2
:1041B0000E948B20882351F080911C0281FB2227D2
:1041C00020F991E0922790FB81F90FC08EE090E0FA
:1041D0000E948B20882361F080911C0282FB2227A1
:1041E00020F991E0922790FB82F980931C0216C07F
:1041F00080E190E00E948B2090911C02882341F086
:1042000093FB222720F981E0822780FB93F904C0E9
:10421000892F809580FB90F990931C0280911C025D
:104220000E9412220E94202280933C0280EE90E0A5
:104230000E948B20882341F080913C02982F90951A
:1042400090FB80F980933C0289E390E00E948B20F0
:10425000882359F080913C0281FB222720F991E0CC
:10426000922790FB81F980933C0282EE90E00E94BD
:104270008B20882359F080913C0282FB222720F971
:1042800091E0922790FB82F980933C0286EE90E0C9
:104290000E948B20882359F080913C0283FB2227C7
:1042A00020F991E0922790FB83F980933C0283EE02
:1042B00090E00E948B20882359F080913C0284FB7F
:1042C000222720F991E0922790FB84F980933C0209
:1042D00085E390E00E948B20882359F080913C0276
:1042E00085FB222720F991E0922790FB85F98093A6
:1042F0003C0281E390E00E948B20882359F080915A
:104300003C0286FB222720F991E0922790FB86F958
:1043100080933C0289E190E00E948B20882359F031
:1043200080913C0287FB222720F991E0922790FBA5
:1043300087F980933C0280913C020E942422809164
:104340003C0287FB882780F980930D018DE190E086
:104350000E948B20C82F8BE190E00E948B2081115E
:10436000C26086E090E00E948B208111C46080E2F0
:1043700090E00E948B208111C86081E290E00E9451
:104380008B208111C06182E290E00E948B2081111C
:10439000C06283E290E00E948B208111C06484E2BD
:1043A00090E00E948B20882311F0C06802C0CC23CB
:1043B00029F08C2F0E941B226C2F03C00E94172211
:1043C000682F70E080E090E0CF910C947B1CCF913F
:1043D00008956DEE7EEF80E090E00E94F72B60E0A4
:1043E00082E090E00E94E92B60E083E090E00E9490
:1043F000E92B60E084E090E00E94E92B60E085E03A
:1044000090E00C94E92B80E090E00E94E32B21E007
:104410008D3E9E4F09F020E0822F089582E090E0CB
:104420000C94DB2B682F82E090E00C94E92B83E066
:1044300090E00C94DB2B682F83E090E00C94E92B48
:1044400084E090E00C94DB2B682F84E090E00C94E7
:10445000E92B8091240280FF0BC06091130185E05D
:10446000689FB001112475956795759567952BC068
:1044700081FF09C06091130185E0689FB00111249C
:104480007595679520C082FF07C06091130185E094
:10449000689FB001112417C0909125029923D1F093
:1044A00060911201961788F72091130185E0289FEB
:1044B00090011124929FA001939F500D112470E050
:1044C000CA010E94AD2B6038710540F46115710579
:1044D00039F002C065E070E0862F08958FE70895F7
:1044E00081E008958091240280FF08C0609111014D
:1044F00070E0759567957595679521C081FF06C039
:104500006091110170E07595679519C082FF04C034
:104510006091110170E010C0909125029923C1F0C3
:10452000609110019617A0F780911101899FC00139
:10453000112470E00E94AD2B6038710528F46115DC
:10454000710521F0862F08958FE7089581E0089581
:1045500061E070E0F4CF803F21F40E942922819530
:1045600004C0813F29F40E942922809328020895E3
:10457000823F21F40E942922819504C0833F29F4BF
:104580000E942922809327020895893F19F40E94EE
:10459000722205C08A3F31F40E9472228195809375
:1045A000290208958B3F21F40E947222819504C054
:1045B0008C3F29F40E94722280932A020895843F3E
:1045C00021F480912602816017C0853F21F48091FB
:1045D0002602826011C0863F21F480912602846009
:1045E0000BC0873F21F480912602886005C0883F78
:1045F00031F48091260280618093260208958D3FD8
:1046000021F48091240281600BC08E3F21F48091BF
:104610002402826005C08F3F29F4809124028460C7
:10462000809324020895803F39F48091280287FF07
:104630006CC01092280269C0813F29F48091280241
:104640001816BCF362C090912702823F29F497FFAD
:104650005CC01092270259C0833F19F41916CCF39D
:1046600054C0893F41F48091290218160CF04DC0C6
:10467000109229024AC08A3F29F48091290287FFBB
:1046800044C0F6CF8B3F39F480912A0287FF3DC0AA
:1046900010922A023AC08C3F29F480912A021816FF
:1046A000BCF333C0843F21F4809126028E7F17C073
:1046B000853F21F4809126028D7F11C0863F21F431
:1046C000809126028B7F0BC0873F21F480912602C8
:1046D000877F05C0883F31F4809126028F7E8093CA
:1046E000260213C08D3F21F4809124028E7F0BC0DF
:1046F0008E3F21F4809124028D7F05C08F3F29F4E5
:10470000809124028B7F8093240280912702811163
:104710000EC08091280281110AC080912902811166
:1047200006C080912A02811102C0109225020895CC
:1047300080911C0283FF7EC08CE596E00E94670793
:10474000809126021F928F9387E596E09F938F9327
:104750000E94000885E596E00E9467078091270285
:10476000282F082E000C330B3F938F9382E596E0A1
:104770009F938F930E94000880E596E00E94670750
:1047800080912802282F082E000C330B3F938F9323
:104790008DE496E09F938F930E9400088BE496E04F
:1047A0000E94670780912902282F082E000C330BE6
:1047B0003F938F9388E496E09F938F930E94000825
:1047C00086E496E00E94670780912A02282F082E2F
:1047D000000C330B3F938F9383E496E09F938F936A
:1047E0000E94000880E496E00E94670780912502FD
:1047F0001F928F938DE396E09F938F930E94000802
:104800008BE396E00E946707809124021F928F93AA
:1048100088E396E09F938F930E94000885E396E0DB
:104820000E9467078DB79EB74C960FB6F8949EBF4F
:104830000FBE8DBF86E292E00E94AF130E94B91FA7
:10484000909323028093220208951F93CF93DF93C6
:1048500080912202909123020E94C51FAC01909189
:104860002502992321F02091140130E006C0209107
:1048700015018AE0289F900111244217530708F47C
:1048800085C080912702C0912802D0912902109101
:104890002A02811107C0C11175C0D11173C0111155
:1048A00071C074C09F3F19F09F5F90932502181646
:1048B00024F40E942922809327028091270287FFF7
:1048C00005C00E9429228195809327021C1624F49A
:1048D0000E942922809328028091280287FF05C028
:1048E0000E942922819580932802609127026623E5
:1048F00031F1C0912802CC2311F1062E000C770B68
:10490000880B990B0E94A82A23E333E343E35FE378
:104910000E940C2B0E94702A609327026C2FCC0FF0
:10492000770B880B990B0E94A82A23E333E343E318
:104930005FE30E940C2B0E94702A609328021D16D0
:1049400024F40E947222809329028091290287FF19
:1049500005C00E947222819580932902111624F4C9
:104960000E94722280932A0280912A0287FF05C04A
:104970000E947222819580932A02DF91CF911F912C
:104980000C9498239F3F09F08FCF97CFDF91CF9161
:104990001F910895E6E2F2E085E0DF011D928A951D
:1049A000E9F7109225021092240208958FE798E00B
:1049B0000E9467071F9281E08F931F9285E08F937B
:1049C00081E398E09F938F930E9400080F900F90CF
:1049D0000F900F900F900F9008958330E9F128F415
:1049E000813061F0823009F10895853009F462C0A8
:1049F00008F449C0863009F474C008958091150107
:104A0000262F30E0280F311D2F3F310524F4680F89
:104A10006093150103C08FEF8093150180911501FC
:104A20001F928F938AE697E072C080911401262F1F
:104A300030E0280F311D2F3F310524F4680F6093BB
:104A4000140103C08FEF80931401809114011F9211
:104A50008F9388E597E05BC080911301262F30E0AB
:104A6000280F311D2F3F310524F4680F6093130187
:104A700003C08FEF80931301809113011F928F93D6
:104A800085E497E044C080911201262F30E0280F82
:104A9000311D2F3F310524F4680F6093120103C0CC
:104AA0008FEF80931201809112011F928F9380E308
:104AB00097E02DC080911101262F30E0280F311D85
:104AC0002F3F310524F4680F6093110103C08FEF6D
:104AD00080931101809111011F928F9387E197E0DC
:104AE00016C080911001262F30E0280F311D2F3F76
:104AF000310524F4680F6093100103C08FEF809399
:104B00001001809110011F928F938CEF96E09F937C
:104B10008F930E9400080F900F900F900F900895B0
:104B2000833081F128F4813059F08230D1F008953A
:104B3000853009F449C0B8F1863009F456C00895AB
:104B400080911501681720F4861B8093150102C01F
:104B500010921501809115011F928F938DEE96E0B2
:104B600054C080911401681720F4861B80931401AF
:104B700002C010921401809114011F928F938BED4B
:104B800096E043C080911301681720F4861B809340
:104B9000130102C010921301809113011F928F9391
:104BA00088EC96E032C080911201681720F4861BD1
:104BB0008093120102C010921201809112011F9283
:104BC0008F9383EB96E021C080911101681720F448
:104BD000861B8093110102C0109211018091110176
:104BE0001F928F938AE996E010C080911001681798
:104BF00020F4861B8093100102C010921001809156
:104C000010011F928F938FE796E09F938F930E94DE
:104C100000080F900F900F900F900895CF93C82F1A
:104C20001F928F9384E899E09F938F930E940008CE
:104C300081E090E0A0E0B0E0BC01CD0104C0660FCF
:104C4000771F881F991FCA95D2F70E947B1C0F906F
:104C50000F900F900F90CF910C94BB18CF938D3184
:104C600009F465C0B0F58E3009F4CCC100F5873089
:104C700009F49BC1A8F4863009F06DC280911C0232
:104C8000817F8E7F80931C0289E899E00E946707EC
:104C900085EC9DE00E94670781E080932C0280C133
:104CA000883009F44FC08B3009F47CC154C286317E
:104CB00009F4F0C138F4803109F4B8C1813109F444
:104CC00030C249C2893109F4CEC18B3109F486C1A1
:104CD00042C2853309F437C248F4873209F433C23B
:104CE00008F433C2893209F42EC235C2833438F451
:104CF0008A3308F02CC2883309F454C12CC283349F
:104D000009F421C2883409F026C20E94BB1884EB42
:104D10009DE00E9467079FEF23ED80E391502040C4
:104D20008040E1F700C000000E94142039C184EDEA
:104D30009DE00E9467070E942A2A0E945A130E943F
:104D40009E0B2EC189EC9DE00E9467078AE99BE0DB
:104D50000E9467070E9417221F928F9387E99BE0AA
:104D60009F938F930E94000885E99BE00E9467074C
:104D70000E940E22C82F82E89BE00E9467071F92C4
:104D8000CF938DE79BE09F938F930E9400088BE762
:104D90009BE00E94670781E79BE00E9467078C2FDA
:104DA00081701F928F938EE69BE09F938F930E945A
:104DB00000088CE69BE00E94670782E69BE00E9469
:104DC0006707C1FB882780F91F928F938FE59BE0CF
:104DD0009F938F930E9400088DE59BE00E946707D8
:104DE00081E59BE00E946707C2FB882780F91F923C
:104DF0008F938EE49BE09F938F930E9400088CE436
:104E00009BE00E94670783E49BE00E946707C3FB67
:104E1000CC27C0F91F92CF9380E49BE09F938F93A0
:104E20000E9400088EE39BE00E9467070E942022F8
:104E3000C82F8AE29BE00E9467071F92CF9385E20A
:104E40009BE09F938F930E94000883E29BE00E9467
:104E500067078AE09BE00E9467078C2F81701F9292
:104E60008F9387E09BE09F938F930E9400088DB7FC
:104E70009EB780960FB6F8949EBF0FBE8DBF85E09B
:104E80009BE00E9467078EEE9AE00E946707C1FBD5
:104E9000882780F91F928F938BEE9AE09F938F93D0
:104EA0000E94000889EE9AE00E94670787ED9AE069
:104EB0000E946707C2FB882780F91F928F9384EDB9
:104EC0009AE09F938F930E94000882ED9AE00E94DF
:104ED000670780EC9AE00E946707C3FB882780F988
:104EE0001F928F938DEB9AE09F938F930E940008FF
:104EF0008BEB9AE00E94670781EB9AE00E946707BC
:104F0000C4FB882780F91F928F938EEA9AE09F93C3
:104F10008F930E9400088CEA9AE00E9467078AE952
:104F20009AE00E946707C5FB882780F91F928F933C
:104F300087E99AE09F938F930E94000885E99AE0A1
:104F40000E94670789E79AE00E946707C6FB8827E7
:104F500080F91F928F9386E79AE09F938F930E9428
:104F6000000884E79AE00E9467078CE69AE00E94B6
:104F70006707C7FBCC27C0F91F92CF9389E69AE059
:104F80009F938F930E94000887E69AE00E9467072C
:104F90008DB79EB74C960FB6F8949EBF0FBE8DBFCF
:104FA000C1E0DEC080EB99E05BC080911C02C82F9D
:104FB000C17080FF09C087EA9DE00E946707809169
:104FC0001C02817F8E7F47C08BE99DE00E946707AE
:104FD00080911C02816080931C02E2CF90911C02A0
:104FE00091FBCC27C0F981E0C827892FC0FB81F94C
:104FF00080931C02CC2319F08EE89DE027C080E846
:105000009DE02EC090911C0292FBCC27C0F981E05C
:10501000C827892FC0FB82F980931C02CC2319F08A
:1050200081E79DE013C081E69DE01AC090911C02CB
:1050300093FBCC27C0F981E0C827892FC0FB83F9F7
:1050400080931C02CC2351F085E59DE00E94670708
:1050500080911C02816080931C0282C088E49DE0E4
:105060000E9467079DCF89E39DE00E94670786E164
:105070009DE00E94670781ED9CE00E9467078AEA35
:105080009CE00E94670785E69CE00E9467078AE330
:105090009CE0E6CF8CE29CE00E9467070E945A13D6
:1050A0001F928F9382E19CE09F938F930E94000850
:1050B00080910C011F928F938BEF9BE09F938F93B6
:1050C0000E9400088091B7011F928F9388EE9BE0A9
:1050D0009F938F930E94000880910D011F928F93E0
:1050E00085ED9BE09F938F930E94000880911E02A4
:1050F00090911F02A0912002B0912102BF93AF9323
:105100009F938F9381EC9BE09F938F930E94000865
:105110008DB79EB746960FB6F8949EBF0FBE8DBF53
:105120003FCF0E94BB18C0910D0181E0C827C093FA
:105130000D01CC2329F087EB9BE00E94670710C08C
:105140008CEA9BE08DCF80E003C08D5101C0895374
:105150000E940E2625CF8AEA9BE00E946707C0E0E6
:105160008C2FCF91089580E0089580E00895CF932B
:10517000C82F80912C02813071F020F0823009F428
:105180004BC042C1E0910E01F0910F0180818D3042
:1051900009F03CC107C0E0910E01F0910F01808140
:1051A0008D3061F48C2F0E94B328811104C08C2FA4
:1051B0000E942E262FC081E090E02CC08C2F0E94F0
:1051C000B528811126C0C431E1F070F4CB3081F0F4
:1051D000C031D1F40E94D6248CE799E00E94670781
:1051E00082E080932C0215C0C93259F0C83361F4B3
:1051F00089E899E00E94670780E899E00E946707C4
:1052000008C010922C0204C18AE799E00E94670747
:10521000FFC081E08170FEC0C43228F5CE3108F0B5
:10522000C1C0CB30A1F1D0F4C73009F0D3C08EE1BA
:105230008093150182E38093140185E0809313012C
:105240008AE08093120188E08093110188E28093C4
:10525000100180E298E00E946707BFC0C33149F1A6
:10526000C431C1F0B7C0CB3409F4A9C028F4C932A5
:1052700089F0C83361F0AEC0C13509F49EC0C235B3
:1052800009F499C0CE3409F0A5C06AE09EC00E941E
:10529000D624A3C080912B02882319F010922B02F0
:1052A0009CC08DE298E00E94670781E080932C0209
:1052B000B1C087E098E00E94670785EF97E00E9401
:1052C0006707809115011F928F9382EF97E09F935C
:1052D0008F930E94000880EF97E00E9467078EED91
:1052E00097E00E946707809114011F928F938BEDC6
:1052F00097E09F938F930E94000889ED97E00E94AA
:1053000067078AEC97E00E946707809113011F925C
:105310008F9387EC97E09F938F930E94000885EC12
:1053200097E00E94670784EB97E00E9467078091EF
:1053300012011F928F9381EB97E09F938F930E94AE
:1053400000088FEA97E00E9467078AE997E00E94C9
:105350006707809111011F928F9387E997E09F93D0
:105360008F930E94000885E997E00E9467078EE707
:1053700097E00E946707809110011F928F938BE73F
:1053800097E09F938F930E94000889E797E00E941F
:1053900067078DB79EB748960FB6F8949EBF0FBEAD
:1053A0008DBF1BC0CE51EC2FF0E0E35CFE4F80813F
:1053B00080932B0212C061E003C061E006C06AE086
:1053C00080912B020E94ED2408C080912B020E9444
:1053D000902503C08EE198E013C080912B028823B2
:1053E00069F01F928F9388E198E09F938F930E94BA
:1053F00000080F900F900F900F9004C085E198E087
:105400000E94670781E006C010922C0280E002C073
:1054100080E000CFCF910895E1E8F0E080818860DE
:1054200080838081816080838FB7F89493E090932C
:10543000890090ED909388008FBF0895EFE6F0E02B
:105440008081826080830895EFE6F0E080818D7F27
:1054500080830895EFE6F0E0908182E089278083E1
:1054600008951F920F920FB60F9211242F933F931E
:105470004F935F936F937F938F939F93AF93BF935C
:10548000EF93FF9380912D0290912E0201969093BD
:105490002E0280932D02811103C082E00E949E0B98
:1054A000E0912E02E695E695F0E0EC51F24FE491A2
:1054B00080912D028E1303C080E00E949E0BFF910D
:1054C000EF91BF91AF919F918F917F916F915F917C
:1054D0004F913F912F910F900FBE0F901F901895F5
:1054E0000E94772A6894B1110C94062B08950E94AB
:1054F000EB2A88F09F5798F0B92F9927B751B0F051
:10550000E1F0660F771F881F991F1AF0BA95C9F747
:1055100014C0B13091F00E94052BB1E008950C94B5
:10552000052B672F782F8827B85F39F0B93FCCF368
:10553000869577956795B395D9F73EF490958095C4
:10554000709561957F4F8F4F9F4F0895E89409C0E4
:1055500097FB3EF490958095709561957F4F8F4FA6
:105560009F4F9923A9F0F92F96E9BB279395F695BC
:10557000879577956795B795F111F8CFFAF4BB0F3A
:1055800011F460FF1BC06F5F7F4F8F4F9F4F16C09E
:10559000882311F096E911C0772321F09EE8872F28
:1055A000762F05C0662371F096E8862F70E060E0E4
:1055B0002AF09A95660F771F881FDAF7880F96955D
:1055C000879597F9089557FD9058440F551F59F046
:1055D0005F3F71F04795880F97FB991F61F09F3FE0
:1055E00079F087950895121613061406551FF2CF09
:1055F0004695F1DF08C0161617061806991FF1CF59
:1056000086957105610508940895E894BB2766277F
:105610007727CB0197F908950E941F2B0C94902BAC
:105620000E94822B38F00E94892B20F0952311F0E4
:105630000C94792B0C947F2B11240C94062B0E9434
:10564000E32A70F3959FC1F3950F50E0551F629FB9
:10565000F001729FBB27F00DB11D639FAA27F00DCB
:10566000B11DAA1F649F6627B00DA11D661F829FF2
:105670002227B00DA11D621F739FB00DA11D621FD7
:10568000839FA00D611D221F749F3327A00D611DF4
:10569000231F849F600D211D822F762F6A2F1124D6
:1056A0009F5750409AF0F1F088234AF0EE0FFF1F09
:1056B000BB1F661F771F881F91505040A9F79E3F60
:1056C000510580F00C94792B0C94062B5F3FE4F38A
:1056D000983ED4F3869577956795B795F795E795B6
:1056E0009F5FC1F7FE2B880F911D9695879597F9BF
:1056F000089597F99F6780E870E060E008959FEF54
:1057000080EC089500240A94161617061806090658
:10571000089500240A941216130614060506089527
:10572000092E0394000C11F4882352F0BB0F40F4AF
:10573000BF2B11F460FF04C06F5F7F4F8F4F9F4FEF
:105740000895991B79E004C0991F961708F0961BDD
:10575000881F7A95C9F78095089597FB072E16F450
:10576000009407D077FD09D00E94C72B07FC05D015
:105770003EF4909581959F4F0895709561957F4F68
:105780000895EE0FFF1F0590F491E02D0994AA1BD8
:10579000BB1B51E107C0AA1FBB1FA617B70710F01C
:1057A000A61BB70B881F991F5A95A9F7809590954E
:1057B000BC01CD010895F999FECF92BD81BDF89A43
:1057C000992780B50895A8E1B0E042E050E00C943C
:1057D000FE2B262FF999FECF1FBA92BD81BD20BDA9
:1057E0000FB6F894FA9AF99A0FBE019608950E949E
:1057F000E92B272F0C94EA2BDC01CB01FC01F99952
:10580000FECF06C0F2BDE1BDF89A319600B40D920C
:0C58100041505040B8F70895F894FFCFC5
:10581C0005019F0B900C6D0C390C050C01010A0253
:10582C0028080A05321E946697C63435F4F5F6F747
:10583C00000000003F4D3620396A051D05E704C7FE
:10584C00048E0401041A0433044C046C0401020396
:08585C0004050607080900001D
:00000001FF
