:100000000C9497060C94270A0C94DE060C94DE06DA
:100010000C94DE060C94DE060C94DE060C94DE06D0
:100020000C94DE060C94DE060C944D100C942011FA
:100030000C94DE060C94DE060C94DE060C94DE06B0
:100040000C94DE060C949C290C94DE060C94DE06BF
:100050000C94DE060C947C1F0C94DE060C94DE06D9
:100060000C94DE060C94DE060C94DE060C94DE0680
:100070000C94DE060C94DE060C94DE060C94DE0670
:100080000C94DE060C94DE060C94DE060C94DE0660
:100090000C9471090C94DE060C94DE060C94DE06BA
:1000A0000C94DE060C94DE060C94DE0629001E007D
:1000B0001F0020002100220023002B0014001A0042
:1000C0000800150017001C00E000040016000700DF
:1000D00009000A000B00E1001D001B0006001900CA
:1000E000050011003900F4A12A0000002C000000D6
:1000F000390024002500260027002D002E002A00AC
:1001000018000C00120013002F00300031000D0009
:100110000E000F003300340052002800100036009B
:1001200037003800500051004F002C00E400280038
:100130000000E6000000E70035003A003B003C000C
:100140003D003E003F0001000100E94401000100C4
:100150000100010001000100EA440100010001006A
:100160000100010001000100010001000100010087
:10017000010001000100000001000000010040003A
:1001800041004200430044004500490001000100D5
:1001900001000100010001004C0001004A004B0079
:1001A000010001004B00010001004D004E00010064
:1001B00001004E00010001000100010000000100EB
:1001C0000000010001000100010001000100010028
:1001D00002F801000100010001000100010001F826
:1001E0000100010001000100010001000100010007
:1001F00001000100010001000100010001000100F7
:1002000001000000010000000100010001000100E8
:1002100001000100010002F80100010001000100DD
:100220000100010001F801000100010001000100CE
:1002300001000100010001000100010001000100B6
:1002400001000100010001000000010000000100A8
:100250000A002530313662003A200025303258003D
:100260000A722F6320303132333435363738394112
:1002700042434445460A005B735D004B6579626FFB
:100280006172642073746172742E0A0055534220A7
:10029000636F6E666967757265642E0A005B575DF1
:1002A000005B535D005B525D005B445D005B435D42
:1002B00000260374006D006B002D00730070006C4D
:1002C00000690074002D006B006500790062006F0A
:1002D000006100720064000000140374006D006B84
:1002E000002D00730070006C0069007400000004B1
:1002F00003090409028D00050100A0320904000071
:100300000103010100092111010001223F0007053D
:10031000810308000A090401000103010200092108
:1003200011010001224D000705820308000A09049B
:100330000200010300000009211101000122360022
:100340000705830308000A090403000203000000F4
:10035000092111010001222000070584032000016A
:100360000705040320000109040400010300000044
:100370000921110100012239000705850310000140
:100380001201100100000008EDFE444401000102CA
:10039000000105010906A101050719E029E715007B
:1003A00025019508750181020508190129059505A2
:1003B00075019102950175039101050719002977CF
:1003C00015002501957875018102C00631FF097479
:1003D000A1010975150025FF952075088102097690
:1003E000150025FF952075089102C005010980A11F
:1003F00001850216010026B7001A01002AB7007510
:100400001095018100C0050C0901A10185031601A9
:1004100000269C021A01002A9C0275109501810099
:10042000C005010902A1010901A10005091901295D
:10043000051500250195057501810295017503815A
:10044000010501093009311581257F950275088163
:100450000609381581257F950175088106050C0A66
:1004600038021581257F950175088106C0C00501F8
:100470000906A101050719E029E7150025019508DE
:100480007501810295017508810105081901290589
:1004900095057501910295017503910105071900F4
:1004A00029FF150025FF950675088100C00A002563
:1004B00030325820006B6579626F6172645F7265DB
:1004C000706F72743A20000A0025303258006B6554
:1004D00079626F6172645F7365745F6C65643A2002
:1004E0000064656C5F6B65795F6269743A20636173
:1004F0006E27742064656C3A20253032580A0061FA
:1005000064645F6B65795F6269743A2063616E272A
:1005100074206164643A20253032580A00646F6E9A
:10052000652E0A00626F6F676D6167696320736390
:10053000616E3A202E2E2E2000290A002575002FEC
:10054000002575005D28002564002000256400203A
:100550000025640020002564007C0025303258000E
:100560006D6F7573656B6579205B62746E7C782046
:1005700079207620685D287265702F61636C293A56
:10058000205B006D6B5F776865656C5F74696D6596
:100590005F746F5F6D6178203D2025640A006D6B8C
:1005A0005F776865656C5F6D61785F7370656564C2
:1005B000203D2025640A006D6B5F74696D655F7472
:1005C0006F5F6D6178203D2025640A006D6B5F6D63
:1005D00061785F7370656564203D2025640A006D55
:1005E0006B5F696E74657276616C203D2025640ACC
:1005F000006D6B5F64656C6179203D2025640A00A5
:100600006D6B5F776865656C5F74696D655F746F4E
:100610005F6D6178203D2025640A006D6B5F77680F
:1006200065656C5F6D61785F7370656564203D2002
:1006300025640A006D6B5F74696D655F746F5F6D33
:100640006178203D2025640A006D6B5F6D61785FE5
:100650007370656564203D2025640A006D6B5F69D9
:100660006E74657276616C203D2025640A006D6BA6
:100670005F64656C6179203D2025640A000A0025CD
:100680007500363A20776865656C5F74696D655FE3
:10069000746F5F6D61783A20000A00257500353A65
:1006A00020776865656C5F6D61785F737065656400
:1006B0003A20000A00257500343A2074696D655FA0
:1006C000746F5F6D61783A20000A00257500333A37
:1006D000206D61785F73706565643A20000A0025BB
:1006E0007500323A20696E74657276616C286D739C
:1006F000293A20000A00257500313A2064656C61B2
:1007000079282A31306D73293A20000A092D2056A4
:10071000616C756573202D0A004D3E004D25643EC9
:1007200020003F007365742064656661756C740A0F
:1007300000433E200077686572652064656C7461D3
:100740003A20637572736F723D25642C207768655B
:10075000656C3D25640A53656520687474703A2F92
:100760002F656E2E77696B6970656469612E6F7293
:10077000672F77696B692F4D6F7573655F6B65794F
:10078000730A000A092D204D6F7573656B6579201A
:100790002D0A4553432F713A09717569740A313A2C
:1007A0000964656C6179282A31306D73290A323AFF
:1007B00009696E74657276616C286D73290A333A23
:1007C000096D61785F73706565640A343A0974690C
:1007D0006D655F746F5F6D61780A353A097768659A
:1007E000656C5F6D61785F73706565640A363A09A0
:1007F000776865656C5F74696D655F746F5F6D6167
:10080000780A0A703A097072696E742076616C75A4
:1008100065730A643A097365742064656661756C72
:1008200074730A75703A092B310A646F776E3A094E
:100830002D310A706775703A092B31300A70676480
:100840006F776E3A092D31300A0A7370656564203E
:100850003D2064656C7461202A206D61785F73703F
:10086000656564202A2028726570656174202F20D8
:1008700074696D655F746F5F6D6178290A003F0070
:100880004D3E2000433E20004C25640A000A092DFD
:1008900020436F6E736F6C65202D0A4553432F7193
:1008A0003A09717569740A6D3A096D6F7573656BF4
:1008B00065790A000A092D204D61676963202D0AB8
:1008C000643A0964656275670A783A096465627515
:1008D00067206D61747269780A6B3A0964656275A4
:1008E00067206B6579626F6172640A6D3A096465AD
:1008F000627567206D6F7573650A763A0976657261
:1009000073696F6E0A733A097374617475730A635D
:100910003A09636F6E736F6C65206D6F64650A30A2
:100920002D343A096C61796572302D3428463130A6
:100930002D4634290A506175733A09626F6F746CE1
:100940006F616465720A653A09656570726F6D0A58
:100950006E3A094E4B524F0A7A3A09736C656570CC
:10096000204C454420746573740A000A0025750004
:100970002E6E6B726F3A20000A002575002E737779
:1009800061705F6261636B736C6173685F62616306
:100990006B73706163653A20000A002575002E7341
:1009A0007761705F67726176655F6573633A200097
:1009B0000A002575002E6E6F5F6775693A20000A80
:1009C000002575002E737761705F72616C745F72C1
:1009D0006775693A20000A002575002E73776170EB
:1009E0005F6C616C745F6C6775693A20000A002562
:1009F00075002E636170736C6F636B5F746F5F6300
:100A00006F6E74726F6C3A20000A002575002E73A9
:100A10007761705F636F6E74726F6C5F6361707328
:100A20006C6F636B3A20000A0025303258006B650A
:100A3000796D61705F636F6E6669672E7261773A78
:100A400020000A002575002E6D6F7573653A200031
:100A50000A002575002E6B6579626F6172643A2019
:100A6000000A002575002E6D61747269783A2000C5
:100A70000A002575002E656E61626C653A20000AD9
:100A800000253032580064656275675F636F6E667B
:100A900069672E7261773A20000A00257500646547
:100AA0006661756C745F6C617965723A20003F0015
:100AB0004E4B524F3A206F66660A004E4B524F3AE9
:100AC000206F6E0A0074696D65725F636F756E7476
:100AD0003A202530346C580A006B6579626F617278
:100AE000645F6E6B726F3A2025580A006B657962FD
:100AF0006F6172645F69646C653A2025580A006B07
:100B00006579626F6172645F70726F746F636F6C2E
:100B10003A2025580A00686F73745F6B6579626FBD
:100B20006172645F6C65647328293A2025580A0055
:100B30000A092D20537461747573202D0A004743F0
:100B4000433A20362E322E30204156522D4C494207
:100B5000433A20322E302E30204156525F415243CC
:100B6000483A20617672350A004F5054494F4E532F
:100B70003A204C55464120424F4F544D414749433E
:100B8000204D4F5553454B45592045585452414BE4
:100B9000455920434F4E534F4C4520434F4D4D41F7
:100BA0004E44204E4B524F20343039360A004255C5
:100BB000494C443A20613935333465392D646972C2
:100BC0007479202830373A33363A333620536570FB
:100BD0002032302032303136290A005649443A203A
:100BE00030784645454428746D6B2D73706C69747C
:100BF00029205049443A2030783434343428746DF4
:100C00006B2D73706C69742D6B6579626F617264A2
:100C100029205645523A203078303030310A00448D
:100C20004553433A20746D6B2073706C6974206B6C
:100C30006579626F617264206669726D7761726551
:100C40000A000A092D2056657273696F6E202D0AFD
:100C5000000A6D6F7573653A206F66660A000A6D4B
:100C60006F7573653A206F6E0A000A6B6579626F63
:100C70006172643A206F66660A000A6B6579626F7A
:100C80006172643A206F6E0A000A6D61747269784D
:100C90003A206F66660A000A6D61747269783A20BC
:100CA0006F6E0A000A64656275673A206F6E0A000B
:100CB0000A64656275673A206F66660A000A0A620E
:100CC0006F6F746C6F616465722E2E2E2000433E30
:100CD00020006565636F6E6669673A0A00536C654C
:100CE0006570204C454420746573740A0000000050
:100CF0000000000000000000010204060A0F172097
:100D00002C3A4A5D71879DB3C7DAE9F5FCFFFCF523
:100D1000E9DAC7B39D87715D4A3A2C20170F0A069E
:100D20000402010000000000000000000000112487
:100D30001FBECFEFDAE0DEBFCDBF04B603FE27C093
:100D40008091150290911602A0911702B09118029D
:100D50008730904BA740B04BD1F4109215021092FF
:100D60001602109217021092180214BE84B7877FE1
:100D700084BF0FB6F894A895809160008861809335
:100D80006000109260000FBEE0E0F8E3099511E00A
:100D9000A0E0B1E0E2EFF6E502C005900D92AA34C2
:100DA000B107D9F722E0AAE4B1E001C01D92A53154
:100DB000B207E1F70E94870D0C94772B0C9400008A
:100DC000FF93EF93E0914A01F0914B01309709F0C6
:100DD0000995EF91FF910895FC018591803011F004
:100DE000EFDFFBCF0895FF27E0E230E247FF0CC0C2
:100DF000419597FF09C0EDE26095709580959095BB
:100E0000611D711D811D911D27FF02C0219530E3D9
:100E100050E2AA27660F771F881F991FAA1FA417E1
:100E200010F0A41B63955A95A9F7AA3008F0A95FA2
:100E3000A05DAF93F395611571058105910541F7AB
:100E4000ED3211F4EF93F395F21718F43F93F39505
:100E5000FBCF8F91B5DFFA95E1F70895E991F9910C
:100E60008591803021F0853219F0AADFF9CF0895FD
:100E700020E0E89455915532C1F3503311F4689451
:100E800055915A3348F4505390F3220F022E220FFB
:100E9000220F200D250FF4CF0EF421958991999101
:100EA000533619F3533729F1533559F1BC018827CB
:100EB0009927E8945C3621F4899199916894559129
:100EC000543639F446EF7EF077FF0DC08FEF9FEF79
:100ED0000AC055374AE039F0583540E121F0523622
:100EE00042E009F00895FF93EF937DDFEF91FF91CA
:100EF000B7CFFF93EF93FC0181918030B9F360DFAE
:100F0000FBCFFF93EF9368DFF1CFDF93CF93CDB7A4
:100F1000DEB72596A3DFCF91DF910895811111C02F
:100F200080E090E090930108809300089AE088E1C7
:100F30000FB6F894A895809360000FBE9093600060
:100F4000FFCF87E797E7EECFFC01958192959F70E1
:100F5000613029F118F0623039F1089582818823D7
:100F600059F00E94911D811123C00E94A01D811182
:100F70001FC089E20C9445140E94911D811107C085
:100F80000E94A01D811103C089E20C942C150E94BF
:100F9000AD1D0E94971D0E94741C0C94351895304D
:100FA00039F480E00E948E07953011F481E0FACF89
:100FB0000895CF93DF93ADE1B1E042E251E0C1E0AB
:100FC000D0E08D91E82FE295EF70F0E061A18F7095
:100FD0009E0101C0220F8A95EAF7922F90959623E1
:100FE00091A382A1822B82A34A175B0751F7DF915D
:100FF000CF9108958091E501836088608093E50139
:101000000E94D907A6E1B1E061E070E08D91E82F80
:10101000E295EF70F0E041A18F709B0101C0220FBB
:101020008A95EAF7922F9095942391A382A1822B1F
:1010300082A381E0AD31B80749F7559A209AE6E5D9
:10104000F1E0ACE4B1E011921D9281E0E036F807E6
:10105000D1F708959F92AF92BF92CF92DF92EF9215
:10106000FF920F931F93CF93DF9380910101811122
:1010700078C0C5E0D0E08DE1C82E81E0D82EAE0169
:10108000445B5E4F7A018A01AA24A394B12C25E027
:10109000922EF60181916F01E82FE295EF70F0E05A
:1010A00021A18F70A50102C0440F551F8A95E2F758
:1010B000CA01922F982B91A392A18095892382A394
:1010C00050EA5A95F1F7E6E1F1E020E040E050E027
:1010D0003191A32FA295AF70B0E090968C9190E0E3
:1010E0003F7002C0959587953A95E2F780FD3CC028
:1010F000C501042E01C0880F0A94EAF7282B4F5F20
:101100005F4F4730510521F7F8018081821719F0B0
:101110002083909200010E94D9070F5F1F4FF2E2D7
:10112000CF16F1E0DF0609F0B4CF809100018823EB
:1011300059F08150809300018823C9F08FE99FE026
:101140000197F1F700C0000081E0DF91CF911F917E
:101150000F91FF90EF90DF90CF90BF90AF909F9056
:101160000895C0E0D0E087CF80E090E0C7CFCA5AB2
:10117000DE4F85E0F70191917F0199938150D1F77E
:10118000E3CFCF93DF9380910101811117C0C0E0BD
:10119000D0E00E948C0A0097A1F4CA5ADE4F20E0EA
:1011A00030E0F901EB59FE4F408149932F5F3F4FEB
:1011B00025303105B1F7DF91CF910895C5E0D0E03A
:1011C000E8CF81E090E0F7CFCF930E942A08C82FA4
:1011D0000E94C108892BD9F05D98809160018F5FD2
:1011E00080936001863068F08091010181110CC00C
:1011F000E0E0F0E0EA5AFE4F85E090E011920197BE
:10120000E9F78C2FCF910895E5E0F0E0F3CF5D9AF8
:1012100010926001F6CF0E942A088091010181118D
:1012200010C0E5E0F0E0EA5AFE4F80E090E0219146
:10123000DC01AB59BE4F2C93019685309105B9F76F
:101240000895E0E0F0E0EFCFE82FF0E0EA5AFE4F3B
:1012500080810895CF92DF92EF92FF920F931F93B8
:10126000CF93DF9380E692E00E94EC0686E5E82EBD
:1012700081E0F82EC0E0D0E09BE5C92E92E0D92EA7
:1012800002E512E0DF93CF93DF92CF920E948507B1
:1012900088E592E00E94EC06F70181917F0190E0E1
:1012A0000E94EA1E9F938F931F930F930E948507BE
:1012B00080E592E00E94EC0621968DB79EB70896D5
:1012C0000FB6F8949EBF0FBE8DBFCA30D105D1F6C0
:1012D000DF91CF911F910F91FF90EF90DF90CF9012
:1012E00008951F920F920FB60F9211248F939F9320
:1012F000EF93FF938091B900887F8038C1F038F474
:10130000882309F44CC0803679F081E022C0883A05
:1013100011F0883BD1F7E0916201F0E0E950FE4F17
:1013200080818093BB0032C010926101EECF80912A
:101330006101811123C08091BB0080936201809183
:1013400062018031C8F01092620180E091E09093D8
:1013500061019091BC008295880F880F807C956810
:10136000892B8093BC00FF91EF919F918F910F90FB
:101370000FBE0F901F90189581E0E8CFE0916201B9
:10138000F0E08091BB00E950FE4F808380916201C4
:1013900090E001968F70992780936201B6CF1092EA
:1013A000BC00B3CF509A08955098589A0895589A0F
:1013B00008950E94D409489BFECF80E88A95F1F7F2
:1013C00008950E94D40998E080E029B1880F217027
:1013D000822B20E82A95F1F725E02A95F1F7000005
:1013E000915099F708950F931F93CF93082F0E9460
:1013F000D209C8E010E0C15020F4CF911F910F91A5
:101400000895C8010C2E02C0959587950A94E2F7BD
:1014100080FF06C00E94D70980E88A95F1F7EBCFDC
:101420005898FACF0E94D209589880E88A95F1F727
:101430000C94D7090E94D2090C94D7090E94D409B0
:10144000E89AE9E6F0E080818C7F808308951F921E
:101450000F920FB60F921124EF92FF921F932F93CA
:101460003F934F935F936F937F938F939F93AF932C
:10147000BF93CF93DF93EF93FF930E94120AC0E0D4
:10148000D0E010E0CE018B599E4F7C01FC018081A1
:101490000E94F3090E94120AF7018081180F219619
:1014A000C530D10579F7812F0E94F3090E94120AF5
:1014B000F0E8FA95F1F780E48A95F1F70E94E109E6
:1014C000809364010E94120AC09164010E94E109A4
:1014D000D82F0E94120A0E94D40980916301DC1760
:1014E000C9F0816080936301FF91EF91DF91CF910B
:1014F000BF91AF919F918F917F916F915F914F912C
:101500003F912F911F91FF90EF900F900FBE0F9082
:101510001F9018958E7FE6CFEF92FF921F93CF9387
:10152000DF93F8940E94D209589825E02A95F1F7A4
:1015300000000E94D4090E94D70930E83A95F1F7DB
:10154000489B04C0789481E090E02FC00E94D909A4
:10155000C0E0D0E010E00E94E109FE01EB59FE4F2F
:101560007F0180830E94D909F7018081180F21969D
:10157000C530D10581F70E94E109C82F0E94D90921
:101580001C13E0CF809164010E94F3090E94D909E5
:10159000809164010E94F3090E94D9090E94D20936
:1015A0000E94D709789480E090E0DF91CF911F915D
:1015B000FF90EF900895E8EDF0E0808180618083F6
:1015C0008AE18A95F1F700C08091D9008170089571
:1015D00087E090E00E94462B91E0811101C090E0ED
:1015E000909301010E94DB0A882321F00E941A0ACD
:1015F000789408950E941E0AFBCF0E94FA070E9469
:101600000B09FDCF0E94E80A0E94DB0A811102C08B
:101610000E94FD0A0895089580917D0108959FB765
:10162000F89410926C019FBF90910B02943009F0D6
:1016300049C02091E9002F709091EC0090FD30C0DE
:1016400090E0922B24E02093E9002091EB0020FF12
:1016500036C02091EE0027FF32C020916A0122237C
:1016600021F02091E80025FF2AC010926A0126E0AF
:101670003091E80035FF16C08093F1008091E800BA
:1016800085FD29C08091E80080FFFCCF8091E800B3
:101690008E778093E8009F709093E90080E0089532
:1016A00090E8CFCF30910B02343049F43091EB0009
:1016B00035FD05C0215041F481E080936A019F709F
:1016C0009093E9008FEF0895EFE9FFE03197F1F78C
:1016D00000C00000CDCF8FB7F89421E020936C01BB
:1016E0008FBFD9CFCF93DF9300D01F92CDB7DEB796
:1016F0009C0180910B02843019F593E099833B8320
:101700002A839093E9008FEF9091E800815095FD36
:1017100006C095ED9A95F1F700008111F5CF809103
:10172000E80085FF0DC040E050E063E070E0CE01CE
:1017300001960E94450E8091E8008E778093E80024
:101740000F900F900F90DF91CF910895CF93DF937B
:1017500000D01F92CDB7DEB720910B02243021F5C7
:1017600022E029839B838A8383E08093E9008FEFC3
:101770009091E800815095FD06C095ED9A95F1F79E
:1017800000008111F5CF8091E80085FF0DC040E099
:1017900050E063E070E0CE0101960E94450E80911A
:1017A000E8008E778093E8000F900F900F90DF9104
:1017B000CF9108959C0180910B028430F9F482E06E
:1017C0008093E9009FEF8091E800915085FD06C06D
:1017D00085ED8A95F1F700009111F5CF8091E80031
:1017E00085FF0CC040E050E065E070E0C9010E9458
:1017F000450E8091E8008E778093E8000895CF939E
:10180000DF93EC0180910B02843079F580910C011B
:10181000882371F180910D01882351F185E0809337
:10182000E9008FEF9091E800815095FD06C095E1A9
:101830009A95F1F700008111F5CF8091E80085FFBE
:1018400014C040E050E060E170E0CE010E94450E1F
:101850008091E8008E778093E80080E1FE01ADE69C
:10186000B1E001900D928A95E1F7DF91CF91089553
:1018700081E08093E9008FEF9091E800815095FD21
:1018800006C095ED9A95F1F700008111F5CF809192
:10189000E80085FFEACF40E050E068E070E0D5CF97
:1018A0008DEA92E00E94EC0680910A02811109C043
:1018B0000E94D20F0E942F108091E20084608093DA
:1018C000E200089589EA92E00E94EC0610920A0272
:1018D000089585EA92E00C94EC0681EA92E00E9479
:1018E000EC060C9489298DE992E00E94EC060E9496
:1018F0003B1F0E948F290E94B8120C940B0B209161
:101900006B012F5F822F62E30E940C2B992319F049
:1019100020936B01089510926B0180916C018823D4
:10192000E9F080910B028430B9F49091E9009F7046
:101930008091EC0080FD13C080E0892B94E09093AF
:10194000E9009091EB0090FF04C09091EE0097FDAC
:101950000AC08F708093E90010926C01089580E8AE
:10196000ECCF1092F1009091E80095FDFACF9091A4
:10197000E80090FFEECF9091E8009E779093E8000A
:10198000E8CF42E061EC81E00E944F0F42E061EC61
:1019900082E00E944F0F42E061EC83E00E944F0F13
:1019A00042E261EC84E00E944F0F42E161EC85E08D
:1019B0000C944F0F80910D02833009F455C030F420
:1019C000813071F1823009F491C008958A3009F4B0
:1019D0007DC08B3009F463C0893009F044C0809128
:1019E0000C02813209F03FC08091100290911102E7
:1019F000009711F00497B9F58091E800877F8093F4
:101A0000E8008091E80082FF2AC08091F100809375
:101A10007D018091E8008B778093E8000C94840F1F
:101A200080910C02813AF9F48091E800877F8093DD
:101A3000E8008091100290911102892B61F460E11D
:101A40008DE691E070E00E94940E8091E8008B7723
:101A50008093E800089560E080E090E0F3CF80910B
:101A60000B028111CECF089580910C02813AD9F7F3
:101A70008091100290911102892BA9F78091E800C2
:101A8000877F8093E8008091E80080FFFCCF809101
:101A90000C018093F1008091E8008E77BDCF80919A
:101AA0000C02813201F78091100290911102892B72
:101AB000D1F68091E800877F8093E8000E94840F30
:101AC00080910E0280930C010C94351880910C02C9
:101AD000813249F68091E800877F8093E8000E9478
:101AE000840F80910F0280937E01089580910C02F3
:101AF000813A09F0B8CF8091E800877F8093E800B1
:101B00008091E80080FFFCCF80917E01C2CF84B736
:101B1000877F84BF0FB6F894A89580916000886194
:101B200080936000109260000FBE90E080E80FB6D6
:101B3000F89480936100909361000FBE0E9443135C
:101B40000E94D20F0E942F108091E2008460809347
:101B5000E2008FE09BE00E94CD1E789480910B0202
:101B60008430E1F78CE892E00E94EC060E94451375
:101B700082E091E00E94B3120E9477298BE792E005
:101B80000E94EC0680910B02853019F00E947313BD
:101B9000F9CF87E792E00E94EC060E94FD1E80913B
:101BA0000902882379F30E94271F882359F30E9492
:101BB0002F0EE8CF292F33272330310579F158F440
:101BC00021303105F1F02230310519F180E090E04B
:101BD00020E030E01AC02132310599F1223231057E
:101BE000A9F7653098F770E0FB01EE0FFF1FE45D89
:101BF000FE4F20813181695D7E4FFB01808190E045
:101C000004C082E190E020E833E0FA0131832083D0
:101C100008958DE890E023EF32E0F7CF99278130E7
:101C2000910561F028F0029789F6E1EBF2E002C03D
:101C3000EFEEF2E0849190E09F01E7CFE9EDF2E072
:101C4000F9CF653008F0C2CFE62FF0E0EE0FFF1FAE
:101C5000EA5CFE4F2081318189E090E0D6CF80E1BF
:101C600089BD82E189BD09B400FEFDCF8091D80015
:101C70008F7D8093D8008091E00082608093E000A7
:101C80008091E00081FDFCCF0895AF92BF92DF927A
:101C9000EF92FF920F931F93CF93DF93EC018B0191
:101CA0007A010E94A30FD82E811124C0E114F104FF
:101CB00039F0F70180819181081B190BC80FD91FDA
:101CC000A12CB12C01151105A9F08091E80085FD2A
:101CD00022C08091E8008E778093E800E114F1043F
:101CE000A1F0F70180819181A80EB91EB182A08276
:101CF00085E0D82E8D2DDF91CF911F910F91FF9010
:101D0000EF90DF90BF90AF9008950E94A30F8823BB
:101D1000C9F2D82EEFCF89918093F10001501109BB
:101D2000FFEFAF1ABF0ACECF2091120230911302FB
:101D300026173707A8F06115710529F42091E800EE
:101D40002E772093E800FC0120E06115710551F425
:101D5000211108C08091E80082FF33C080E008951F
:101D6000B901F1CF80910B028823B9F18530B9F127
:101D70008091E80083FD2FC08091E80082FDEACFCA
:101D80008091E80080FFE1CF2091F3008091F20084
:101D900090E0922B6115710519F08830910550F093
:101DA00021E0089709F020E08091E8008E77809389
:101DB000E800CBCF21912093F10061507109019689
:101DC000E9CF80910B02882341F0853041F080916A
:101DD000E80083FFBFCF81E0089582E0089583E0AB
:101DE0000895209112023091130226173707A8F0A8
:101DF0006115710529F42091E8002E772093E80001
:101E0000FC0120E06115710551F4211108C0809199
:101E1000E80082FF34C080E00895B901F1CF8091DD
:101E20000B028823C1F18530C1F18091E80083FD68
:101E300030C08091E80082FDEACF8091E80080FF09
:101E4000E1CF2091F3008091F20090E0922B611598
:101E5000710519F08830910550F021E0089709F0DC
:101E600020E08091E8008E778093E800CBCF24912A
:101E70002093F1003196615071090196E8CF80916D
:101E80000B02882341F0853041F08091E80083FF08
:101E9000BECF81E0089582E0089583E00895982FF1
:101EA000973028F08F708093E90081E00895909337
:101EB000E900981751F07091EC002091ED005091DD
:101EC000F00021FD06C09F5FEBCF242F762F50E05E
:101ED000F8CF3091EB003E7F3093EB003091ED0076
:101EE0003D7F3093ED003091EB0031603093EB009B
:101EF0007093EC002093ED005093F0002091EE00E1
:101F000027FDE1CF80E0089580910C0287FF13C088
:101F10008091E80082FF06C08091E8008B77809373
:101F2000E80004C080910B028111F2CF08958091E6
:101F30000B028823D9F38091E80080FFF8CF8091CD
:101F4000E8008E77ECCF2091E4003091E50085E643
:101F50009091EC0090FD20C09091E80092FD20C08F
:101F600090910B02992391F0953091F09091EB00B4
:101F700095FD10C04091E4005091E50042175307D1
:101F800039F381509A0121F784E0089582E00895A1
:101F900083E0089581E008959091E80090FFE0CFFC
:101FA00080E008950E9440100E944810E0EEF0E0AA
:101FB000808181608083E8EDF0E080818F7780838D
:101FC00019BCA7EDB0E08C918E7F8C9380818F7EC1
:101FD000808310920A0208950F931F93CF93DF938B
:101FE0000E9440100E944810C8EDD0E088818F7791
:101FF000888388818068888388818F7D888319BCE5
:1020000010920B021092070210920902109208021D
:1020100000EE10E0F80180818B7F808388818160F1
:10202000888342E060E080E00E944F0FE1EEF0E044
:1020300080818E7F8083E2EEF0E08081816080830A
:10204000808188608083F80180818E7F8083888191
:1020500080618883DF91CF911F910F910895E8ED02
:10206000F0E080818F7E8083E7EDF0E08081816009
:10207000808384E082BF81E080930A020C94EC0F9D
:10208000E8EDF0E080818E7F80831092E200089579
:102090001092DA001092E10008951F920F920FB68D
:1020A0000F9211242F933F934F935F936F937F93DE
:1020B0008F939F93AF93BF93EF93FF938091E10032
:1020C00082FF0BC08091E20082FF07C08091E10097
:1020D0008B7F8093E1000E947F0C8091DA0080FF6B
:1020E00019C08091D80080FF15C08091DA008E7FE2
:1020F0008093DA008091D90080FF94C080E189BD8F
:1021000082E189BD09B400FEFDCF81E080930B021E
:102110000E94500C8091E10080FF19C08091E20084
:1021200080FF15C08091E2008E7F8093E200809155
:10213000E20080618093E2008091D8008062809309
:10214000D80019BC85E080930B020E946D0C809131
:10215000E10084FF29C08091E20084FF25C080E176
:1021600089BD82E189BD09B400FEFDCF8091D80010
:102170008F7D8093D8008091E1008F7E8093E10075
:102180008091E2008F7E8093E2008091E200816086
:102190008093E20080910702882309F449C084E01B
:1021A00080930B020E94730C8091E10083FF29C091
:1021B0008091E20083FF25C08091E100877F8093BA
:1021C000E10082E080930B02109207028091E1000F
:1021D0008E7F8093E1008091E2008E7F8093E20009
:1021E0008091E20080618093E20042E060E080E064
:1021F0000E944F0F8091F00088608093F0000E9451
:10220000690CFF91EF91BF91AF919F918F917F9159
:102210006F915F914F913F912F910F900FBE0F9053
:102220001F90189519BC10920B020E94620C72CF7D
:102230008091E30087FD02C081E0B2CF83E0B0CFA0
:102240001F920F920FB60F9211242F933F934F932B
:102250005F936F937F938F939F93AF93BF93CF932E
:10226000EF93FF93C091E900CF708091EC00109242
:10227000E9008091F000877F8093F00078940E94BD
:102280005C111092E9008091F00088608093F0006A
:10229000C093E900FF91EF91CF91BF91AF919F91D2
:1022A0008F917F916F915F914F913F912F910F90FF
:1022B0000FBE0F901F9018951F93CF93DF93CDB74C
:1022C000DEB7AA970FB6F894DEBF0FBECDBFECE025
:1022D000F2E08091F100819322E0E431F207C9F746
:1022E0000E94DA0C8091E80083FF44C080910C02C8
:1022F00090910D02492F50E04A30510508F03AC044
:10230000FA01EB57FE4E0C942C2B8F11B311BA111E
:10231000B311BA110E123112BA118612931280380B
:1023200079F0823839F5809110028F708093E9003E
:102330008091EB0085FB882780F91092E90006C0A8
:102340008091080290910902911182609091E800B9
:10235000977F9093E8008093F1001092F1008091B4
:10236000E8008E772DC0282F2D7F21F48823D1F00F
:10237000823059F18091E80083FF0AC08091E80023
:10238000877F8093E8008091EB0080628093EB0070
:10239000AA960FB6F894DEBF0FBECDBFDF91CF91E6
:1023A0001F91089580910E02813021F7933009F03A
:1023B00080E0809309021092E9008091E800877F15
:1023C0008093E8000E94840FD5CF80910E02811186
:1023D000F2CF809110028F7069F28093E900209112
:1023E000EB0020FFE8CF933031F48091EB00806266
:1023F0008093EB00E0CF9091EB0090619093EB0025
:1024000021E030E001C0220F8A95EAF72093EA002C
:102410001092EA008091EB008860EACF8111AACF88
:1024200010910E021F778091E3008078812B8093BA
:10243000E3008091E800877F8093E8000E94840F8A
:102440008091E80080FFFCCF8091E300806880935A
:10245000E300111104C082E080930B028BCF83E074
:10246000FBCF8058823008F085CF80910E0290918A
:102470000F028C3D23E09207A1F583E08A838AE274
:1024800089834FB7F894DE01139620E03EE051E2D5
:10249000E32FF0E050935700E49120FF03C0E29552
:1024A000EF703F5FEF708E2F90E0EA30C0F0C7967C
:1024B0008D939D932F5F243159F74FBF8091E80092
:1024C000877F8093E8006AE270E0CE0101960E9467
:1024D000940E8091E8008B778093E8004BCFC096F4
:1024E000E7CFAE014F5F5F4F609110020E94DA0D9F
:1024F000BC01892B09F43ECF9091E800977F90931F
:10250000E80089819A810E94F10EE3CF803809F0BA
:1025100031CF8091E800877F8093E80080910702A7
:102520008093F1001CCF811125CF90910E02923043
:1025300008F020CF8091E800877F8093E800909397
:1025400007020E94840F80910702882311F084E023
:1025500005C08091E30087FDFACF81E080930B02F4
:102560000E94C10C07CF909384018093830108954A
:10257000E0918301F0918401309721F00190F08186
:10258000E02D099480E00895EF92FF921F93CF937E
:10259000DF93F82E192FE0918301F0918401309799
:1025A000A9F10280F381E02D09958091E50182FF78
:1025B0002DC080FF04C085EB94E00E94EC06CF2D77
:1025C000D12F10E18FEAE82E84E0F82E8091E5010A
:1025D00080FF0BC088811F928F93FF92EF920E9421
:1025E00085070F900F900F900F90115021961111A9
:1025F000EDCF8091E50180FF09C08DEA94E0DF9185
:10260000CF911F91FF90EF900C94EC06DF91CF914A
:102610001F91FF90EF900895E0918301F091840164
:10262000309721F00480F581E02D099408952091E0
:102630008101309182012817390771F0909382014E
:1026400080938101E0918301F0918401309721F022
:102650000680F781E02D0994089520917F01309143
:1026600080012817390771F09093800180937F01D2
:10267000E0918301F0918401309721F00084F1858D
:10268000E02D099408950C94020B0E943D1F0E94B6
:10269000FA070C942B20CF93C82F8091E50182FF7D
:1026A0001EC080FF04C08EEC94E00E94EC06809176
:1026B000E50180FF0CC01F92CF9389EC94E09F93BB
:1026C0008F930E9485070F900F900F900F9080912D
:1026D000E50180FF04C087EC94E00E94EC068C2F9B
:1026E000CF910C940B0BBF92CF92DF92EF92FF929F
:1026F0000F931F93CF93DF93CDB7DEB72A970FB613
:10270000F894DEBF0FBECDBF0E94E40886E8C82E55
:1027100081E0D82E00E010E0B02E802F0E94240926
:10272000E82EF601F1906F018F1116C00F5F1F4F59
:102730000A30110589F78FEF89838A831B820E94F3
:10274000461F8160782F9D838C8349815A816B81DC
:102750008D810E94171438C08091E50181FD0E948F
:102760002A0980E090E0FE242F2D30E0482FB901A7
:10277000082E02C0759567950A94E2F760FF41C084
:102780008E83BF8281E090E06C0102C0CC0CDD1C26
:102790004A95E2F72E2D30E02C213D21232B09F420
:1027A00080E088870E94461F8160782F9A878987FA
:1027B0004E815F8168858A850E941714F801EA5767
:1027C000FE4F80818C2580830E94B0230E94B81226
:1027D000909185018917D9F00E94B81280938501E4
:1027E0002A960FB6F894DEBF0FBECDBFDF91CF9112
:1027F0001F910F91FF90EF90DF90CF90BF900C94BE
:102800004B1301968730910509F0B0CF8FCF2A96F0
:102810000FB6F894DEBF0FBECDBFDF91CF911F91F1
:102820000F91FF90EF90DF90CF90BF900895CF93DE
:10283000DF93CDB7DEB72B970FB6F894DEBF0FBE90
:10284000CDBF4F83588769877A878B87DE011196C2
:1028500086E0FD0111928A95E9F785E0FE01379641
:1028600001900D928A95E1F749815A816B817C81B3
:102870008D819E810E94EC1A2B960FB6F894DEBFD4
:102880000FBECDBFDF91CF910895CF93C82F88237E
:1028900009F4E0C0823879F40E94B81281FDDAC0F0
:1028A00089E30E94CE1D0E94A71E89E30E941B1E81
:1028B000CF910C94A71E833859F40E94B81280FD62
:1028C000C9C083E50E94CE1D0E94A71E83E5EECFFE
:1028D000843859F40E94B81282FDBCC087E40E947B
:1028E000CE1D0E94A71E87E4E1CF8CEF8C0F813AAA
:1028F00048F48C2F0E942C288111ACC08C2F0E9490
:10290000CE1DD6CF80E28C0F883048F4C77081E0AE
:1029100001C0880FCA95EAF70E946F1EC9CF8BE5E8
:102920008C0F833078F4C53A39F0C63A41F083E829
:1029300090E0CF910C94171381E890E0FACF82E8F1
:1029400090E0F7CF88E58C0F853108F083C0C83A56
:1029500009F441C0C93A09F441C0CA3A09F441C076
:10296000CB3A09F441C0CC3A09F441C0CD3A09F45C
:1029700041C0CE3A09F441C0CF3A09F441C0C13B4D
:1029800009F441C0C03B09F441C0C23B09F441C055
:10299000C33B09F441C0C43B09F441C0C53B09F441
:1029A00041C0C63B09F441C0C73B09F441C0C83B24
:1029B00009F441C0C93B09F441C0CA3B09F441C014
:1029C000CB3B09F441C0CC3B09F441C080E090E02E
:1029D000CF910C942D1382EE90E0FACF89EE90E027
:1029E000F7CF8AEE90E0F4CF85EB90E0F1CF86EB65
:1029F00090E0EECF83EB90E0EBCF84EB90E0E8CF7C
:102A000087EB90E0E5CF8CEC90E0E2CF8DEC90E0AE
:102A1000DFCF83E891E0DCCF8AE891E0D9CF82E98B
:102A200091E0D6CF84E991E0D3CF81E292E0D0CF9C
:102A300083E292E0CDCF84E292E0CACF85E292E0D9
:102A4000C7CF86E292E0C4CF87E292E0C1CF8AE2AC
:102A500092E0BECFCF910895882309F44BC082380D
:102A600071F40E94B81281FF45C089E30E94CE1D17
:102A70000E94A71E89E30E941B1E0C94A71E833888
:102A800059F40E94B81280FF35C083E50E94CE1D24
:102A90000E94A71E83E5EFCF843859F40E94B81234
:102AA00082FF28C087E40E94CE1D0E94A71E87E4F3
:102AB000E2CF9CEF980F913AF0F290E2980F9830A5
:102AC00050F4877091E001C0990F8A95EAF7892F39
:102AD0000E94751ED2CF9BE5980F933020F480E0C2
:102AE00090E00C941713885A853120F480E090E030
:102AF0000C942D130895882321F00E946F1E0C94CE
:102B0000A71E0895882321F00E94751E0C94A71E0D
:102B100008954F925F926F927F92BF92CF92DF9211
:102B2000EF92FF920F931F93CF93DF9300D000D0CB
:102B30001F92CDB7DEB76C0185E0F601DE0111967C
:102B400001900D928A95E1F7F601208191814381F0
:102B50005481452B39F09F3F19F481E02F3F19F044
:102B600080E001C081E080FD5BC2F601E280F5807B
:102B7000F2948FE0F82229839A8389819A810E94B6
:102B80004F1D8C010E944E1D0E94151C0E94C71DE6
:102B9000B82E882359F0BE2CEE2041F082E00E942E
:102BA000B01D0E94C71D91E0B82EB926E12FE29515
:102BB000EF708E2F90E0FC01E052FA4E0C942C2B1B
:102BC000F015F01521162116791695160E160E160B
:102BD000A0160E163B173B1700180E160E160918F6
:102BE000812F807F1F70882311F01295107FEE20B7
:102BF00059F0112329F0812F0E94801E0E94A71EE8
:102C0000802F0E9445140AC0802F0E942C1511238A
:102C100029F0812F0E94861E0E94A71EBB2009F466
:102C2000FFC10E94A01D80FDFBC1F60112820E941F
:102C30009A1D0E94931CC6010E9489150E949A1D2C
:102C40007FC1812F807F1F70803211F01295107F1D
:102C5000002371F00130D9F1EE2009F444C0FF20C7
:102C600059F0F601858180FFCBCF8F70858304C03A
:102C7000EE20B1F0F11004C0812F0E947B15CECF61
:102C8000F1E0FF1204C0812F0E94911EC7CF82E0A5
:102C9000F812F2CF0E94941E812F0E94941DECCF57
:102CA000F11006C00E94941E812F0E948215B6CF9B
:102CB000E1E0FE1208C00E946C1E812309F4AECF31
:102CC0000E94971DEFCFF2E0FF12ECCFA7CFEE20CE
:102CD00029F085E08F1508F4A1CFCECFE4E0EF1501
:102CE00008F49CCFE1CFFF20F9F2802F0E942C1531
:102CF00095CF812F86958695837051F0813009F0AC
:102D00008DCFEE2079F0C80193700E942D1386CFED
:102D1000EE2029F0C80193700E9417137FCF80E046
:102D200090E0FACF80E090E0F0CF802FEE2029F005
:102D30000E9437220E94232371CF0E949F22FACF44
:102D4000812F837009F048C0E11068CF202F2295B1
:102D500026952770220F220F602F6F70462E512C60
:102D6000612C712C022E04C0440C551C661C771C6F
:102D70000A94D2F704FF1EC06FE070E080E090E09C
:102D800004C0660F771F881F991F2A95D2F7609598
:102D9000709580959095169516951370123071F078
:102DA000A0F46429752986299729113091F00E9491
:102DB0003C1C34CF60E070E0CB01EDCF6429752975
:102DC000862997290E94581C29CF0E943C1CC301C8
:102DD000B2010E94201C22CFEE20C9F1812F817008
:102DE000882309F41BCF202F229526952770220FC8
:102DF000220F602F6F70462E512C612C712C022EE9
:102E000004C0440C551C661C771C0A94D2F704FFBE
:102E100020C06FE070E080E090E004C0660F771F94
:102E2000881F991F2A95D2F7609570958095909587
:102E3000169516951370123081F0B0F46429752937
:102E4000862997291130A1F00E94161DE7CE86959C
:102E5000C7CF60E070E0CB01EBCF642975298629EC
:102E600097290E94321DDACE0E94161DC301B201BD
:102E70000E94FA1CD3CE802F90E0FC01E05EF109A5
:102E8000E531F10508F0B2C0E85BF84E0C942C2B4C
:102E90005D175D175D175D175D175D175D175D1792
:102EA0005D175D175D175D175D175D175D175D1782
:102EB0006A177A178117881792170F70812F8F71F1
:102EC000EE2021F00E94931C802FD7CE0E94B41CCC
:102ED000802FEBCEEE2049F0F4E0FF1508F49ECEF3
:102EE000812F8F710E94D91C99CE85E08F1508F42F
:102EF00095CEF6CFEE2039F0812F8F710E94931C72
:102F00008DCEEE20C9F3812F8F710E94B41C86CE26
:102F1000EE2029F0812F8F710E947E1C7FCE0E94AF
:102F2000741C7CCEEE20F1F10E94911D0E94751E52
:102F30000E94A01D8430C1F40E94AD1D812F8F71AD
:102F40000F900F900F900F900F90DF91CF911F91E6
:102F50000F91FF90EF90DF90CF90BF907F906F9098
:102F60005F904F900C94B41CE1E0EF1508F458C04A
:102F70001F71812F0E94931C63E0812F0F900F908F
:102F80000F900F900F90DF91CF911F910F91FF90B5
:102F9000EF90DF90CF90BF907F906F905F904F90B9
:102FA0000C94A41D0E94911D0E946F1EF1E0FF155C
:102FB00040F40E94AD1D0E94971D64E0812F8F7127
:102FC000DDCF81E00F900F900F900F900F90DF9169
:102FD000CF911F910F91FF90EF90DF90CF90BF9016
:102FE0007F906F905F904F900C94B01DEE2021F079
:102FF000FF2009F481CF04CEFF2009F484CF75CEE1
:10300000412F4F70602FC6010E94D71F0E949A1B4C
:1030100005CE412F4F70602FC6010E94A407FECD40
:103020000F900F900F900F900F90DF91CF911F9105
:103030000F91FF90EF90DF90CF90BF907F906F90B7
:103040005F904F9008950E948E1E0E945E1E0E9407
:10305000A71E0E9453240E94232380E090E00E9438
:10306000171380E090E00C942D130E947D1E0C94A9
:1030700023180E944F1D292F22952F702C3060F4A9
:103080002A3018F42250223058F4803F19F050F4BE
:10309000803E30F481E008952C3039F02F3029F053
:1030A00080E00895843FE1F7F5CF93FB882780F90E
:1030B0000895CF93DF9300D000D01F92CDB7DEB735
:1030C0000F900F900F900F900F90DF91CF91089578
:1030D000CF93DF9300D000D000D0CDB7DEB72696D7
:1030E0000FB6F894DEBF0FBECDBFDF91CF9108952C
:1030F0001F93CF93DF93C091900116E080919101CF
:10310000C81304C0DF91CF911F910895D0E01C9F98
:10311000F0011D9FF00D1124EE56FE4F40815181AC
:1031200062817381848195810E9468182196C7709D
:10313000E5CF4091C2015091C3016091C4017091EB
:10314000C5018091C6019091C7010C9468181F9326
:10315000CF93DF938091C70182958F70D1F48091D6
:10316000C4018823B1F080919001D0919101B09178
:10317000C201C091C3014091C5015091C601A1E0B7
:10318000BF3F09F0A0E0BA016095709516E08D137D
:1031900004C0DF91CF911F91089541155105D9F1D8
:1031A000CF3FD9F120E090E020FD3CC0189FF00116
:1031B000199FF00D1124EE56FE4F21812C1332C0C1
:1031C00020812B132FC0228121112CC02381348117
:1031D0002417350720F1241B350B283C310510F549
:1031E0002091C7012F7020612093C70126E0289FFE
:1031F000F001299FF00D1124E956FE4F80818F7058
:103200008061808382EC91E00E948915DF91CF91EB
:103210001F910C94781821E0C6CF2A2FC4CF260F17
:10322000371FDBCF01968770B2CFAF92BF92CF929C
:10323000DF92EF92FF920F931F93CF93DF93CDB75F
:10324000DEB761970FB6F894DEBF0FBECDBF8C011D
:1032500085E0F801DE011D9601900D928A95E1F757
:10326000D8014C9111965C9111971296EC90309187
:10327000C2016091C3018091C5019091C601009780
:1032800039F06F3F19F421E03F3F19F020E001C011
:1032900021E0B22FB170BB2E20FD90C1F801C38098
:1032A000D480A090C401AA2009F432C12091C701A2
:1032B000C816D90610F1D601A81BB90BCD01FF2401
:1032C000F394883C9105F0F0F12C207F09F0E9C0DF
:1032D0007C2DD98AC88A6E2D89890E94591882EC62
:1032E00091E00E948915E2ECF1E086E0DF011D9299
:1032F0008A95E9F70E9499181EC0809590958C0DCB
:103300009D1DDDCF822F807F09F084C0651325C00D
:10331000341323C0FE2CE11020C02F7020612093B5
:10332000C7010E94991882EC91E00E948915809152
:10333000C701F80185838F2D61960FB6F894DEBF23
:103340000FBECDBFDF91CF911F910F91FF90EF90F6
:10335000DF90CF90BF90AF900895CD2839F05F3FB8
:1033600019F481E04F3F19F080E001C081E080FD59
:1033700024C081E08E25F82FF170FF2E80FF3FC022
:10338000809190012091910136E0821318C04D8701
:103390005E878D859E850E944F1D292F22952F7057
:1033A000223008F1243030F59F7009F1D8011596CC
:1033B0009C91907FE1F4FB2CBECF80E0DCCF90E0CD
:1033C000389FF001399FF00D1124EE56FE4F6181B8
:1033D000561306C06081641303C06281E6120FC0F9
:1033E00001968770D2CF9F7011F0882321F3805E01
:1033F000883008F3C8010E948915BF2CDCCFFE2C51
:10340000EE2009F498CF8091C70181608093C701B5
:10341000F12C91CF651314C0341312C0E11010C009
:103420008091C701F8018583C8010E94891586E053
:10343000F801A2ECB1E001900D928A95E1F75ACF24
:103440004D875E878D859E850E943918882309F4F3
:10345000BFC0EE2009F4BCC02091C701822F829525
:103460008F7090E0029774F08091C2019091C30137
:1034700098878F831986DB86CA862C87CE010796AC
:103480000E94891586E0F801A2ECB1E001900D924E
:103490008A95E1F70E94A7180E949918FF24F394D7
:1034A0004ACF651314C0341312C0E11010C08091CC
:1034B000C701F8018583C8010E94891586E0E2EC06
:1034C000F1E0DF011D928A95E9F7FA2C34CF4D87A0
:1034D0005E878D859E850E943918882309F478C0FF
:1034E000EE2009F475C02091C701822F82958F705C
:1034F00090E002973CF28091C2019091C3019A83BF
:1035000089831B82DD82CC822E83CE010196B8CFC7
:10351000C816D90680F0F601E81BF90BCF01883CEC
:10352000910570F0F12C7C2DD98AC88A6E2D89897D
:103530000E945918D8CE809590958C0D9D1DEFCF87
:10354000FE2CEE2009F444C0651327C0341325C0B7
:103550008091C70180FD18C0982F92959F70292FE8
:1035600030E02115310581F0D80115968C9315971F
:103570002F30310509F458CF9F5F9295907F8F705F
:10358000892B15968C9350CF86E0F801A2ECB1E020
:1035900001900D928A95E1F7CECE4D875E878D859D
:1035A0009E850E94391881116DCF8091C70181607D
:1035B0008093C701C8010E948915BDCEEE2041F05D
:1035C0004D875E878D859E850E94391881115ACF5F
:1035D000C8010E94891562CF1F93CF93DF93CDB7A7
:1035E000DEB72C970FB6F894DEBF0FBECDBF4F836A
:1035F000588769877A878B879C87CE0107960E94B8
:103600001519882349F19F8188852A853B85232BBD
:1036100039F08F3F19F481E09F3F19F080E001C03D
:1036200081E080FD08C04F81588569857A858B854A
:103630009C850E94681816E08091900190919101FC
:10364000891348C02C960FB6F894DEBF0FBECDBFCD
:10365000DF91CF911F91089586E0FE013796DE013C
:10366000119601900D928A95E1F7FF81E8856A85B0
:103670007B856115710539F0EF3F19F481E0FF3F5B
:1036800019F080E001C081E080FDD5CF209191014B
:1036900030E0C9010196877099274091900150E070
:1036A00084179507C9F1F983EA837D836C8396E0DB
:1036B000929FD001939FB00D1124AE56BE4FFE01D4
:1036C000319601900D929A95E1F7809391010E94B5
:1036D0007818B1CF819FC00111248E569E4F0E9451
:1036E0001519882309F4AECFE09190011E9FF001D7
:1036F0001124EE56FE4F4081518162817381848195
:1037000095810E9468188091900190E001968770E1
:1037100099278093900190CF0E94351810929101C3
:1037200010929001E2ECF1E086E0DF011D928A95B3
:10373000E9F788CFEF92FF920F931F93CF93DF9318
:103740008C01892B81F0F12CEE24E394E801219681
:10375000F8018491843770F4843008F062C08130BD
:10376000B1F08230B1F1DF91CF911F910F91FF90B5
:10377000EF900895853709F44FC008F43FC09CE7E7
:10378000980F903780F78F770E942C154CC00E5FF2
:103790001F4FFE01849190E2980F983060F487707B
:1037A000FE2D01C0FF0F8A95EAF78F2F0E94801E21
:1037B0000E94A71E02C00E9445148F2D882309F481
:1037C000C5CFEFE9FFE03197F1F700C0000081506D
:1037D000F5CF0E5F1F4FFE01849190E2980F983055
:1037E00050F48770FE2D01C0FF0F8A95EAF78F2FE6
:1037F0000E94861EDDCF0E942C15DFCF0E5F1F4F6B
:10380000FE01C491CC23C9F28FE99FE00197F1F743
:1038100000C00000C150F6CF0E5F1F4FFE01F490B4
:10382000CCCF0E9445148E01C8CF08956093CC017F
:103830007093CD018093CE019093CF010C94231807
:103840000F931F930091CC011091CD012091CE01D7
:103850003091CF01DC01CB01802B912BA22BB32B1C
:103860008093CC019093CD01A093CE01B093CF0172
:103870001F910F910C9423180F931F930091CC016B
:103880001091CD012091CE013091CF01DC01CB010F
:1038900080239123A223B3238093CC019093CD0165
:1038A000A093CE01B093CF011F910F910C942318D8
:1038B0000F931F930091CC011091CD012091CE0167
:1038C0003091CF01DC01CB0180279127A227B327BC
:1038D0008093CC019093CD01A093CE01B093CF0102
:1038E0001F910F910C9423181092C8011092C901D6
:1038F0001092CA011092CB010C94231841E050E0C1
:1039000060E070E004C0440F551F661F771F8A9562
:10391000D2F74093C8015093C9016093CA017093D4
:10392000CB010C94231841E050E060E070E004C04B
:10393000440F551F661F771F8A95D2F78091C801E3
:103940009091C901A091CA01B091CB01842B952B14
:10395000A62BB72B8093C8019093C901A093CA01ED
:10396000B093CB010C94231841E050E060E070E08C
:1039700004C0440F551F661F771F8A95D2F74095E4
:103980005095609570958091C8019091C901A09162
:10399000CA01B091CB0184239523A623B72380933A
:1039A000C8019093C901A093CA01B093CB010C94B4
:1039B000231841E050E060E070E004C0440F551F60
:1039C000661F771F8A95D2F78091C8019091C9012F
:1039D000A091CA01B091CB0184279527A627B727CC
:1039E0008093C8019093C901A093CA01B093CB0101
:1039F0000C9423180F931F930091C8011091C901D3
:103A00002091CA013091CB01DC01CB01802B912B9D
:103A1000A22BB32B8093C8019093C901A093CA0134
:103A2000B093CB011F910F910C9423180F931F9308
:103A30000091C8011091C9012091CA013091CB01B8
:103A4000DC01CB0180239123A223B3238093C801FF
:103A50009093C901A093CA01B093CB011F910F911C
:103A60000C9423180F931F930091C8011091C90162
:103A70002091CA013091CB01DC01CB018027912735
:103A8000A227B3278093C8019093C901A093CA01CC
:103A9000B093CB011F910F910C9423180895CF92EE
:103AA000DF92EF92FF920F931F93CF93DF938C01DE
:103AB000C090C801D090C901E090CA01F090CB013C
:103AC0008091CC019091CD01A091CE01B091CF0118
:103AD000C82AD92AEA2AFB2ACFE1D0E0D701C601B9
:103AE0000C2E04C0B695A795979587950A94D2F7A2
:103AF00080FF10C0B8018C2F0E94C31F8130910538
:103B000049F0DF91CF911F910F91FF90EF90DF90DF
:103B1000CF900895219710F7B80180E00E94C31F4D
:103B2000F0CF8091D10108958093D1010895109232
:103B3000D10108958091D001859585958595089549
:103B40008091D0018770089598E0899F9001112499
:103B5000622B6093D0010C94931C1092D0010895B5
:103B60002091D001809582238093D001982F977067
:103B700069F430E0482F082E000C550B2417350748
:103B800029F08595859585950C94B41C08959091A0
:103B9000D001977081E009F480E0089590910C01C4
:103BA000992361F190910D01992341F1982F9695F8
:103BB000969596959F3088F4E0910E01F0910F0153
:103BC000E90FF11D877021E030E001C0220F8A95D6
:103BD000EAF78181822B818308959091E50190FF1E
:103BE00022C01F928F938FEF94E09F938F930E9438
:103BF00085070F900F900F900F90089520910E0160
:103C000030910F01F90132969FEF40E051918517F5
:103C100051F09F3F19F4511101C0942F4F5F4E3066
:103C2000A9F79F3F09F40895290F311D97FD3A9593
:103C3000F9018283089590910C01992371F190917B
:103C40000D01992351F1982F9695969596959F3051
:103C500098F4E0910E01F0910F01E90FF11D282F6A
:103C6000277081E090E001C0880F2A95EAF78095DF
:103C700091818923818308959091E50190FF1DC072
:103C80001F928F9381EE94E09F938F930E948507FC
:103C90000F900F900F900F90089520910E0130918A
:103CA0000F01F9013296205F3F4F9081891301C0C7
:103CB00010823196E217F307C1F7089581E090E092
:103CC000E0910E01F0910F01E80FF91F10820196AB
:103CD00080319105A9F708958091E40108959091AC
:103CE000E401892B8093E4010895982F90958091A9
:103CF000E40189238093E40108951092E40108957A
:103D00009091E301892B8093E3010895982F90957A
:103D10008091E30189238093E30108951092E301E8
:103D200008958093D20108951092D20108952091B0
:103D30000E0130910F01F9013196205F3F4F80E075
:103D4000919191118F5FE217F307D1F70895E091F8
:103D50000E01F0910F018091E4018083E0910E014A
:103D6000F0910F0180819091E301892B80839091E4
:103D7000D201992361F0E0910E01F0910F01808151
:103D8000892B80830E94971E81111092D20180910D
:103D90000E0190910F010C94C41290934B018093EB
:103DA0004A010895829590E09C01220F331F220F53
:103DB000331F2C7C95958795959587958373282B34
:103DC00030E0C901880F991F8A7A359527952575A6
:103DD000822B0895CF93DF93D92F0E94D21EC82F34
:103DE0008D2F0E94D21E2C2F30E0322F2227A901C6
:103DF000482BCA01DF91CF91089580910B02843046
:103E000011F120E488E190E00FB6F894A895809332
:103E100060000FBE2093600083B7817F846083BF02
:103E200083B7816083BF7894889583B78E7F83BF83
:103E30000FB6F894A8958091600088618093600027
:103E4000109260000FBE089508950C94241FCF9324
:103E50000E94251F0E94E4080E94241FC0E08C2FAE
:103E60000E942409811105C0CF5FCA30C1F7CF91EC
:103E7000089581E0FCCF0C94351882E084BD93E076
:103E800095BD9AEF97BD80936E0008952FB7F89473
:103E90008091E6019091E701A091E801B091E901DC
:103EA0002FBF0895CF92DF92EF92FF920F931F934F
:103EB0002FB7F8944091E6015091E7016091E80135
:103EC0007091E9012FBF6A017B01EE24FF248C0170
:103ED00020E030E0C016D106E206F30650F0481BA1
:103EE000590BCA011F910F91FF90EF90DF90CF9077
:103EF000089541505109F3CF1F920F920FB60F92C0
:103F000011248F939F93AF93BF938091E60190917B
:103F1000E701A091E801B091E9010196A11DB11D51
:103F20008093E6019093E701A093E801B093E90143
:103F3000BF91AF919F918F910F900FBE0F901F90E7
:103F400018950E94D20FF8942FEF87EA91E621503E
:103F500080409040E1F700C0000087E090EBDC017A
:103F60008093150290931602A0931702B093180243
:103F70009CE088E10FB6F894A895809360000FBE8E
:103F800090936000FFCF972F70E027E0929F600D25
:103F9000711D1124FB0196E4899FE00DF11D112490
:103FA000EE0FFF1FE455FF4F85919491089580E037
:103FB00090E00895CF92DF92EF92FF920F931F93BC
:103FC000CF936C01C0E08C2F0E94240900E010E028
:103FD000E82EF12CC701002E02C0959587950A9412
:103FE000E2F780FF1CC0602F7C2F80E00E94C31F7F
:103FF0008C159D0559F0292F207E392F307C11F02A
:10400000203A69F490E0C816D90649F481E0CF91CE
:104010001F910F91FF90EF90DF90CF9008950F5F69
:104020001F4F07301105B1F6CF5FCA3061F680E04F
:10403000EECFCF93DF93EC018CE290E00E94DA1F89
:10404000882329F0CE01DF91CF910C94DA1F80E014
:10405000DF91CF910895CF930E949221811102C0E8
:104060000E94782184E295E00E94EC06C5E6C150EA
:1040700009F006C18DE195E00E94EC0689E290E02E
:104080000E941920811132C18AE290E00E94192019
:1040900081110E94782185E090E00E941920811111
:1040A0000E94A11F0E949D218093E50187E090E07E
:1040B0000E941920882391F08BE190E00E94192042
:1040C000882309F4E6C08091E50181FB992790F9E6
:1040D00021E0922790FB81F98093E5018091E50131
:1040E0000E94A1210E94AF218093140280EE90E0F3
:1040F0000E941920882341F080911402982F9095F6
:1041000090FB80F98093140289E390E00E941920CB
:10411000882359F08091140281FB992790F921E0BE
:10412000922790FB81F98093140282EE90E00E9426
:104130001920882359F08091140282FB992790F965
:1041400021E0922790FB82F98093140286EE90E0A2
:104150000E941920882359F08091140283FB99272B
:1041600090F921E0922790FB83F98093140283EE6B
:1041700090E00E941920882359F08091140284FB5A
:10418000992790F921E0922790FB84F980931402FB
:1041900085E390E00E941920882359F08091140251
:1041A00085FB992790F921E0922790FB85F9809370
:1041B000140281E390E00E941920882359F0809135
:1041C000140286FB992790F921E0922790FB86F94B
:1041D0008093140289E190E00E941920882359F00D
:1041E0008091140287FB992790F921E0922790FB98
:1041F00087F980931402809114020E94B321809168
:10420000140287FB882780F980930D018DE190E0EF
:104210000E941920C82F8BE190E00E941920811183
:10422000C26086E090E00E9419208111C46080E2A3
:1042300090E00E9419208111C86081E290E00E9404
:1042400019208111C06182E290E00E941920811141
:10425000C06283E290E00E9419208111C06484E270
:1042600090E00E9419208823D9F1C0688C2F0E9409
:10427000AA216C2F70E080E090E0CF910C94161C86
:104280000E94E4088FE39CE90197F1F700C0000069
:10429000EECE8EE090E00E941920882351F08091AC
:1042A000E50182FB992790F921E0922790FB82F9A2
:1042B00013CF80E190E00E9419209091E5018823BE
:1042C00051F093FB882780F921E0822780FB93F946
:1042D0009093E50103CF892F809580FB90F9F8CF6B
:1042E000C111C4CF0E94A621682FC4CFCF910895D9
:1042F0006DEE7EEF80E090E00E94622B60E082E055
:1043000090E00E94542B60E083E090E00E94542BE8
:1043100060E084E090E00E94542B60E085E090E053
:104320000C94542B80E090E00E944E2B21E08D3EB7
:104330009E4F09F020E0822F089582E090E00C94D7
:10434000462B682F82E090E00C94542B83E090E0A1
:104350000C94462B682F83E090E00C94542B84E05F
:1043600090E00C94462B682F84E090E00C94542B42
:104370008091EC0180FF12C06091130185E0689F7D
:10438000B00111247595679575956795603871052D
:10439000A8F56115710581F581E0089581FF09C0D7
:1043A0006091130185E0689FB001112475956795B0
:1043B000EDCF82FF07C06091130185E0689FB001D7
:1043C0001124E4CF9091ED019923A1F060911201A5
:1043D000961788F72091130185E0289F90011124FA
:1043E000929FA001939F500D112470E0CA010E947A
:1043F000182BCCCF65E070E0862F08958FE70895E5
:104400008091EC0180FF0CC06091110170E0759506
:104410006795759567956115710539F581E0089582
:1044200081FF06C06091110170E075956795F3CF2B
:1044300082FF08C06091110170E06038710558F387
:104440008FE708958091ED01882369F06091100154
:10445000861780F790911101899FC001112470E0A7
:104460000E94182BEACF61E070E0862F0895803F0C
:1044700031F40E94B82181958093F0010895813F25
:1044800019F40E94B821F8CF823F31F40E94B8217C
:1044900081958093EF010895833F19F40E94B8211C
:1044A000F8CF893F29F40E9400228093F1010895FA
:1044B0008A3F21F40E9400228195F7CF8B3F31F48F
:1044C0000E94002281958093F20108958C3F19F497
:1044D0000E940022F8CF843F31F48091EE01816088
:1044E0008093EE010895853F21F48091EE01826072
:1044F000F7CF863F21F48091EE018460F1CF873FB2
:1045000021F48091EE018860EBCF883F21F4809107
:10451000EE018061E5CF8D3F31F48091EC01816047
:104520008093EC0108958E3F21F48091EC0182602C
:10453000F7CF8F3FB9F78091EC018460F1CF803FD6
:10454000C1F48091F00187FD1092F0018091EF019C
:1045500081110EC08091F00181110AC08091F1019A
:10456000811106C08091F201811102C01092ED010B
:104570000895813F29F48091F00118162CF3E6CFBD
:104580009091EF01823F29F497FFE0CF1092EF0165
:10459000DDCF833F19F41916CCF3D8CF893F39F416
:1045A0008091F101181694F61092F101CFCF8A3F55
:1045B00029F48091F10187FFC9CFF6CF8B3F39F401
:1045C0008091F20187FFC2CF1092F201BFCF8C3FE2
:1045D00029F48091F2011816BCF3B8CF843F31F46E
:1045E0008091EE018E7F8093EE01B0CF853F21F464
:1045F0008091EE018D7FF7CF863F21F48091EE010F
:104600008B7FF1CF873F21F48091EE01877FEBCF45
:10461000883F21F48091EE018F7EE5CF8D3F31F40C
:104620008091EC018E7F8093EC0190CF8E3F21F43E
:104630008091EC018D7FF7CF8F3F09F087CF80917C
:10464000EC018B7FF0CF8091E50183FF7EC080E697
:1046500095E00E94EC068091EE011F928F938BE50E
:1046600095E09F938F930E94850789E595E00E94CE
:10467000EC068091EF01282F082E000C330B3F939E
:104680008F9386E595E09F938F930E94850784E53D
:1046900095E00E94EC068091F001282F082E000C76
:1046A000330B3F938F9381E595E09F938F930E9407
:1046B00085078FE495E00E94EC068091F101282F98
:1046C000082E000C330B3F938F938CE495E09F935F
:1046D0008F930E9485078AE495E00E94EC06809102
:1046E000F201282F082E000C330B3F938F9387E4A1
:1046F00095E09F938F930E94850784E495E00E9444
:10470000EC068091ED011F928F9381E495E09F93D9
:104710008F930E9485078FE395E00E94EC068091BD
:10472000EC011F928F938CE395E09F938F930E94EF
:10473000850789E395E00E94EC068DB79EB74C96FD
:104740000FB6F8949EBF0FBE8DBF8EEE91E00E9413
:104750000C130E94461F9093EB018093EA01089589
:104760001F93CF93DF938091EA019091EB010E9418
:10477000521FAC019091ED019923D1F020911401C9
:1047800030E04217530780F08091EF01C091F001B3
:10479000D091F1011091F201811111C0C1117FC0BE
:1047A000D1117DC011117BC0DF91CF911F91089570
:1047B000209115018AE0289F90011124E2CF9F3FAC
:1047C00019F09F5F9093ED01181624F40E94B82110
:1047D0008093EF018091EF0187FF05C00E94B8210F
:1047E00081958093EF011C1624F40E94B8218093D8
:1047F000F0018091F00187FF05C00E94B8218195EA
:104800008093F0016091EF01662331F1C091F001D6
:10481000CC2311F1062E000C770B880B990B0E940C
:10482000132A23E333E343E35FE30E94772A0E94E2
:10483000DB296093EF016C2FCC0F770B880B990B62
:104840000E94132A23E333E343E35FE30E94772AC2
:104850000E94DB296093F0011D1624F40E940022BF
:104860008093F1018091F10187FF05C00E94002231
:1048700081958093F101111624F40E940022809307
:10488000F2018091F20187FF05C00E94002281950C
:104890008093F201DF91CF911F910C9423239F3FCE
:1048A00009F08FCFA0CFEEEEF1E085E0DF011D92A1
:1048B0008A95E9F71092ED011092EC01089583E8D2
:1048C00097E00E94EC061F9281E08F931F9285E093
:1048D0008F9385E397E09F938F930E9485070F90B6
:1048E0000F900F900F900F900F900895833009F460
:1048F00045C028F4813061F0823049F10895853057
:1049000009F46AC008F451C0863009F47CC00895E7
:1049100080911501262F30E0280F311D2F3F3105E2
:1049200094F4680F60931501809115011F928F9385
:104930008EE696E09F938F930E9485070F900F90CD
:104940000F900F9008958FEF80931501EDCF809118
:104950001401262F30E0280F311D2F3F310554F46C
:10496000680F60931401809114011F928F938CE55E
:1049700096E0E0CF8FEF80931401F5CF8091130183
:10498000262F30E0280F311D2F3F310554F4680FDA
:1049900060931301809113011F928F9389E496E035
:1049A000C9CF8FEF80931301F5CF80911201262F8D
:1049B00030E0280F311D2F3F310554F4680F60930C
:1049C0001201809112011F928F9384E396E0B2CF7F
:1049D0008FEF80931201F5CF80911101262F30E0E7
:1049E000280F311D2F3F310554F4680F60931101DA
:1049F000809111011F928F938BE196E09BCF8FEFF7
:104A000080931101F5CF20911001862F90E0820F45
:104A1000911D8F3F910554F4620F609310018091B6
:104A200010011F928F9380E096E084CF8FEF8093E8
:104A30001001F5CF8330C9F128F4813061F0823064
:104A400019F10895853009F452C008F43FC086304A
:104A500009F45EC0089580911501681790F4861BD3
:104A600080931501809115011F928F9381EF95E03E
:104A70009F938F930E9485070F900F900F900F9038
:104A8000089510921501EECF80911401681750F42B
:104A9000861B80931401809114011F928F938FEDD8
:104AA00095E0E6CF10921401F6CF809113016817BC
:104AB00050F4861B80931301809113011F928F93F2
:104AC0008CEC95E0D5CF10921301F6CF80911201B6
:104AD000681750F4861B80931201809112011F9277
:104AE0008F9387EB95E0C4CF10921201F6CF80919F
:104AF0001101681750F4861B8093110180911101F8
:104B00001F928F938EE995E0B3CF10921101F6CFEB
:104B100080911001681750F4861B809310018091DA
:104B200010011F928F9383E895E0A2CF109210019D
:104B3000F6CFCF93C82F1F928F9388E898E09F936A
:104B40008F930E94850761E070E080E090E004C0F0
:104B5000660F771F881F991FCA95D2F70E94161CEF
:104B60000F900F900F900F90CF910C943518CF931A
:104B70008D3109F47BC008F04BC08E3009F4DDC1E3
:104B8000B8F4873009F4BFC148F4863009F4A9C1EC
:104B90008EEA9AE00E94EC06C0E022C0883009F458
:104BA00071C08B30A9F784EB98E00E94EC0668C0D6
:104BB000863109F4FFC1B8F4803109F4D1C18131E3
:104BC00039F70E943518C0910D0181E0C827C093C4
:104BD0000D01CC2309F435C28BEB9AE00E94EC0660
:104BE0008C2FCF910895893109F4CDC18B3181F695
:104BF0008091E50181FB992790F921E0922790FBB4
:104C000081F98093E50181FF95C187E99CE08CC122
:104C1000853341F058F4873229F008F415C28932FF
:104C200009F0B6CF80E00E9499252AC0833438F479
:104C30008A3308F00BC2883309F4B5CFA9CF833487
:104C400089F3883409F0A4CF0E9435188DEB9CE0DD
:104C50000E94EC069FEF23ED80E3915020408040BE
:104C6000E1F700C000000E94A11F0AC08DED9CE08A
:104C70000E94EC060E9495290E94B8120E940B0B1C
:104C8000C1E0AECF82ED9CE00E94EC068EE99AE096
:104C90000E94EC060E94A6211F928F938BE99AE056
:104CA0009F938F930E94850789E99AE00E94EC0602
:104CB0000E949D21C82F86E89AE00E94EC061F9270
:104CC000CF9381E89AE09F938F930E9485078FE7A7
:104CD0009AE00E94EC0685E79AE00E94EC068C2F91
:104CE00081701F928F9382E79AE09F938F930E9427
:104CF000850780E79AE00E94EC0686E69AE00E942B
:104D0000EC06C1FB882780F91F928F9383E69AE017
:104D10009F938F930E94850781E69AE00E94EC069C
:104D200085E59AE00E94EC06C2FB882780F91F9275
:104D30008F9382E59AE09F938F930E94850780E589
:104D40009AE00E94EC0687E49AE00E94EC06C3FB1E
:104D5000CC27C0F91F92CF9384E49AE09F938F935E
:104D60000E94850782E49AE00E94EC060E94AF212F
:104D7000C82F8EE29AE00E94EC061F92CF9389E240
:104D80009AE09F938F930E94850787E29AE00E94A2
:104D9000EC068EE09AE00E94EC068C2F81701F9248
:104DA0008F938BE09AE09F938F930E9485078DB736
:104DB0009EB780960FB6F8949EBF0FBE8DBF89E058
:104DC0009AE00E94EC0682EF99E00E94EC06C1FB9B
:104DD000882780F91F928F938FEE99E09F938F938E
:104DE0000E9485078DEE99E00E94EC068BED99E01C
:104DF0000E94EC06C2FB882780F91F928F9388EDF2
:104E000099E09F938F930E94850786ED99E00E9419
:104E1000EC0684EC99E00E94EC06C3FB882780F93D
:104E20001F928F9381EC99E09F938F930E94850747
:104E30008FEB99E00E94EC0685EB99E00E94EC066E
:104E4000C4FB882780F91F928F9382EB99E09F9390
:104E50008F930E94850780EB99E00E94EC068EE913
:104E600099E00E94EC06C5FB882780F91F928F937A
:104E70008BE999E09F938F930E94850789E999E0D8
:104E80000E94EC068DE799E00E94EC06C6FB88279D
:104E900080F91F928F938AE799E09F938F930E94E6
:104EA000850788E799E00E94EC0680E799E00E9478
:104EB000EC06C7FBCC27C0F91F92CF938DE699E093
:104EC0009F938F930E9485078BE699E00E94EC06E2
:104ED0008DB79EB74C960FB6F8949EBF0FBE8DBF90
:104EE000CFCE8091E501817F8E7F8093E5018DE8B3
:104EF00098E00E94EC068EEC9CE00E94EC0681E0BB
:104F00008093F401BDCE8091E50180FF0BC080EB62
:104F10009CE00E94EC068091E501817F8E7F80936A
:104F2000E501AECE84EA9CE00E94EC068091E501AA
:104F30008160F5CF89E89CE038CE8091E50182FB65
:104F4000992790F921E0922790FB82F98093E5015F
:104F500082FF03C08AE79CE0E7CF8AE69CE025CE8B
:104F60008091E50183FB992790F921E0922790FB3E
:104F700083F98093E50183FF03C08EE59CE0D4CFE5
:104F800081E59CE012CE82E49CE00E94EC068FE179
:104F90009CE00E94EC068BED9BE00E94EC068EEA02
:104FA0009BE00E94EC0689E69BE00E94EC068EE303
:104FB0009BE0FBCD80E39BE00E94EC060E94B812D0
:104FC0001F928F9386E19BE09F938F930E948507AA
:104FD00080910C011F928F938FEF9AE09F938F9394
:104FE0000E94850780917E011F928F938CEE9AE03C
:104FF0009F938F930E94850780910D011F928F933D
:1050000089ED9AE09F938F930E9485078091E60136
:105010009091E701A091E801B091E901BF93AF93AE
:105020009F938F9385EC9AE09F938F930E948507BF
:105030008DB79EB746960FB6F8949EBF0FBE8DBF34
:105040001FCE80EB9AE0B1CD8D51EDCD8953EBCDE4
:1050500080E008950C942828CF93C82F8091F40104
:105060008130D1F038F0823009F44DC01092F40153
:1050700080E010C0E0910E01F0910F0180818D3031
:10508000B9F78C2F0E942A2881111EC08C2F0E94F4
:10509000B7258170CF910895E0910E01F0910F0135
:1050A00080818D3071F38C2F0E94282881111BC0C4
:1050B000C431D9F060F4CB3071F0C031D1F08EE75B
:1050C00098E00E94EC0613C081E090E0E2CFC93284
:1050D00061F0C833A1F78DE898E00E94EC0684E8FF
:1050E00098E00E94EC0681E0D4CF1092F40180E0B9
:1050F000D0CF0E945F2480E898E00E94EC0682E016
:105100008093F401F0CFC432C8F4CE3108F0BEC0B1
:10511000CB30E1F040F4C73009F4CFC082E297E031
:105120000E94EC0626C0C331C1F1C431B9F78091A9
:10513000F301882351F11092F3010AC0CB3409F432
:10514000BAC0C8F4C93299F3C83341F70E945F244A
:105150008091F301882309F4C7C01F928F938CE1DB
:1051600097E09F938F930E9485070F900F900F9069
:105170000F9081E08FCFC13509F497C0C23509F493
:105180008EC0CE3459F66AE091C081E397E00E9468
:10519000EC0681E08093F4017DCF8BE097E00E94E4
:1051A000EC0689EF96E00E94EC06809115011F92B3
:1051B0008F9386EF96E09F938F930E94850784EFED
:1051C00096E00E94EC0682EE96E00E94EC0680914A
:1051D00014011F928F938FED96E09F938F930E94FF
:1051E00085078DED96E00E94EC068EEC96E00E941D
:1051F000EC06809113011F928F938BEC96E09F93A6
:105200008F930E94850789EC96E00E94EC0688EB5C
:1052100096E00E94EC06809112011F928F9385EB1D
:1052200096E09F938F930E94850783EB96E00E9400
:10523000EC068EE996E00E94EC06809111011F9227
:105240008F938BE996E09F938F930E94850789E95E
:1052500096E00E94EC0682E896E00E94EC068091BF
:1052600010011F928F938FE796E09F938F930E9478
:1052700085078DE796E00E94EC068DB79EB74896AD
:105280000FB6F8949EBF0FBE8DBF62CFCE51EC2FEC
:10529000F0E0E05CFE4F80818093F30159CF61E044
:1052A0008091F3010E94762453CF61E08091F30155
:1052B0000E941A254DCF6AE0F3CF8EE1809315014D
:1052C00082E38093140185E0809313018AE0809348
:1052D000120188E08093110188E28093100184E23A
:1052E00097E00E94EC0634CF89E197E019CFE1E81E
:1052F000F0E08081886080838081816080838FB7C7
:10530000F89493E09093890090ED909388008FBF7C
:105310000895EFE6F0E08081826080830895EFE6F3
:10532000F0E080818D7F80830895EFE6F0E080815A
:1053300092E08927808308951F920F920FB60F92F3
:1053400011242F933F934F935F936F937F938F938A
:105350009F93AF93BF93EF93FF938091F50190914B
:10536000F60101969093F6018093F501811103C037
:1053700082E00E940B0BE091F601E695E695F0E0E5
:10538000E351F34FE4918091F5018E1303C080E067
:105390000E940B0BFF91EF91BF91AF919F918F9165
:1053A0007F916F915F914F913F912F910F900FBE21
:1053B0000F901F9018950E94E2296894B1110C94E7
:1053C000712A08950E94562A88F09F5798F0B92FA5
:1053D0009927B751B0F0E1F0660F771F881F991F2A
:1053E0001AF0BA95C9F714C0B13091F00E94702A32
:1053F000B1E008950C94702A672F782F8827B85F42
:1054000039F0B93FCCF3869577956795B395D9F781
:105410003EF490958095709561957F4F8F4F9F4F8B
:105420000895E89409C097FB3EF490958095709597
:1054300061957F4F8F4F9F4F9923A9F0F92F96E9E0
:10544000BB279395F695879577956795B795F11155
:10545000F8CFFAF4BB0F11F460FF1BC06F5F7F4FF2
:105460008F4F9F4F16C0882311F096E911C0772304
:1054700021F09EE8872F762F05C0662371F096E80D
:10548000862F70E060E02AF09A95660F771F881FDC
:10549000DAF7880F9695879597F9089557FD9058F4
:1054A000440F551F59F05F3F71F04795880F97FBE8
:1054B000991F61F09F3F79F08795089512161306A2
:1054C0001406551FF2CF4695F1DF08C016161706D1
:1054D0001806991FF1CF8695710561050894089506
:1054E000E894BB2766277727CB0197F908950E9498
:1054F0008A2A0C94FB2A0E94ED2A38F00E94F42A92
:1055000020F0952311F00C94E42A0C94EA2A11243B
:105510000C94712A0E944E2A70F3959FC1F3950F47
:1055200050E0551F629FF001729FBB27F00DB11D27
:10553000639FAA27F00DB11DAA1F649F6627B00DB7
:10554000A11D661F829F2227B00DA11D621F739FA0
:10555000B00DA11D621F839FA00D611D221F749FAE
:105560003327A00D611D231F849F600D211D822FF5
:10557000762F6A2F11249F5750409AF0F1F088231C
:105580004AF0EE0FFF1FBB1F661F771F881F915049
:105590005040A9F79E3F510580F00C94E42A0C94EA
:1055A000712A5F3FE4F3983ED4F38695779567952B
:1055B000B795F795E7959F5FC1F7FE2B880F911D73
:1055C0009695879597F9089597F99F6780E870E019
:1055D00060E008959FEF80EC089500240A94161669
:1055E000170618060906089500240A9412161306D1
:1055F000140605060895092E0394000C11F488235F
:1056000052F0BB0F40F4BF2B11F460FF04C06F5F7A
:105610007F4F8F4F9F4F0895991B79E004C0991FCA
:10562000961708F0961B881F7A95C9F780950895FC
:1056300097FB072E16F4009407D077FD09D00E943F
:10564000322B07FC05D03EF4909581959F4F08952D
:10565000709561957F4F0895EE0FFF1F0590F491AF
:10566000E02D0994AA1BBB1B51E107C0AA1FBB1F59
:10567000A617B70710F0A61BB70B881F991F5A95DE
:10568000A9F780959095BC01CD010895F999FECFB9
:1056900092BD81BDF89A992780B50895A8E1B0E040
:1056A00042E050E00C94692B262FF999FECF1FBAE7
:1056B00092BD81BD20BD0FB6F894FA9AF99A0FBE3B
:1056C000019608950E94542B272F0C94552BDC0132
:1056D000CB01FC01F999FECF06C0F2BDE1BDF89AFD
:1056E000319600B40D9241505040B8F70895F894A7
:0256F000FFCFEA
:1056F20005010C0BFF0BDA0BA60B720B0101D30198
:1057020028080A05321EF4F5F6F73133329466970B
:10571200C63400000000003F4D3620396E042104DB
:10572200EB03CB03920305031E03370350037003FD
:0A5732000102030405060708090040
:00000001FF
