:100000000C94F5050C94C1090C943C060C943C0628
:100010000C943C060C943C060C943C060C943C0658
:100020000C943C060C943C060C9435100C9407116F
:100030000C943C060C943C060C943C060C943C0638
:100040000C943C060C94232C0C943C060C943C061B
:100050000C943C060C94A51F0C943C060C943C0696
:100060000C943C060C943C060C943C060C943C0608
:100070000C943C060C943C060C943C060C943C06F8
:100080000C943C060C943C060C943C060C943C06E8
:100090000C9400090C943C060C943C060C943C0611
:1000A0000C943C060C943C060C943C0632001E005A
:1000B0001F002000210022002B0014001A0008005D
:1000C00015001700390004001600070009000A0097
:1000D000E1001D001B000600190005002900392859
:1000E0002B0000222C00E000230024002500260025
:1000F00027002D001C0018000C00120013002F0018
:100100000B000D000E000F00330034001100100032
:10011000360037003800E500F0A328002A0051001F
:100120003400E6000A722F63203031323334353622
:100130003738394142434445460A00253032580099
:100140003A20002530313662000A005B435D005BD7
:10015000445D005B525D005B535D005B575D005585
:10016000534220636F6E666967757265642E0A007C
:100170004B6579626F6172642073746172742E0AC8
:10018000005B735D001E034C006500740073005F2C
:1001900000730070006C00690074005F003200356D
:1001A00000360000000C0374007500740061006EDE
:1001B0000000000403090409028D00050100A032BB
:1001C00009040000010301010009211101000122BD
:1001D0003F000705810308000A090401000103012B
:1001E0000200092111010001224D000705820308C8
:1001F000000A0904020001030000000921110100A6
:10020000012236000705830308000A0904030002DF
:1002100003000000092111010001222000070584CC
:100220000320000107050403200001090404000164
:100230000300000009211101000122390007058592
:10024000031000011201100100000008EDFE4444FB
:1002500001000102000105010906A101050719E0DD
:1002600029E7150025019508750181020508190186
:100270002905950575019102950175039101050701
:100280001900297715002501957875018102C006AE
:1002900031FF0974A1010975150025FF9520750826
:1002A00081020976150025FF952075089102C00589
:1002B000010980A101850216010026B7001A01007C
:1002C0002AB700751095018100C0050C0901A10134
:1002D0008503160100269C021A01002A9C02751053
:1002E00095018100C005010902A1010901A10005D4
:1002F000091901290515002501950575018102954A
:1003000001750381010501093009311581257F95AA
:10031000027508810609381581257F9501750881C8
:1003200006050C0A38021581257F9501750881069E
:10033000C0C005010906A101050719E029E715005C
:10034000250195087501810295017508810105084F
:100350001901290595057501910295017503910112
:100360000507190029FF150025FF9506750881006E
:10037000C06B6579626F6172645F7265706F727471
:100380003A20002530325820000A006B6579626FF0
:100390006172645F7365745F6C65643A2000253038
:1003A0003258000A006164645F6B65795F6269744A
:1003B0003A2063616E2774206164643A20253032EC
:1003C000580A0064656C5F6B65795F6269743A20F6
:1003D00063616E27742064656C3A20253032580AB8
:1003E00000626F6F676D61676963207363616E3A66
:1003F000202E2E2E2000646F6E652E0A006D6F7504
:1004000073656B6579205B62746E7C7820792076E9
:1004100020685D287265702F61636C293A205B004B
:1004200025303258007C002564002000256400201F
:100430000025640020002564005D28002575002F3C
:1004400000257500290A00536C656570204C4544F1
:1004500020746573740A006565636F6E6669673A38
:100460000A00433E20000A0A626F6F746C6F616479
:1004700065722E2E2E20000A64656275673A206F21
:1004800066660A000A64656275673A206F6E0A0044
:100490000A6D61747269783A206F6E0A000A6D61A4
:1004A000747269783A206F66660A000A6B65796231
:1004B0006F6172643A206F6E0A000A6B6579626F31
:1004C0006172643A206F66660A000A6D6F75736523
:1004D0003A206F6E0A000A6D6F7573653A206F6679
:1004E000660A000A092D2056657273696F6E202D09
:1004F0000A00444553433A20746D6B2073706C6955
:1005000074206B6579626F617264206669726D77C1
:100510006172650A005649443A20307846454544A0
:1005200028747574616E29205049443A203078341B
:10053000343434284C6574735F73706C69745F3243
:10054000353629205645523A203078303030310A3D
:10055000004255494C443A20383164333962322DD7
:100560006469727479202831373A33303A32322054
:100570004170722031332032303231290A004F501D
:1005800054494F4E533A204C55464120424F4F5408
:100590004D41474943204D4F5553454B4559204503
:1005A000585452414B455920434F4E534F4C4520D0
:1005B000434F4D4D414E44204E4B524F2034303925
:1005C000360A004743433A20342E362E3220415615
:1005D000522D4C4942433A20312E382E302041567C
:1005E000525F415243483A20617672350A000A0947
:1005F0002D20537461747573202D0A00686F737415
:100600005F6B6579626F6172645F6C6564732829E2
:100610003A2025580A006B6579626F6172645F70D9
:10062000726F746F636F6C3A2025580A006B65799E
:10063000626F6172645F69646C653A2025580A00D4
:100640006B6579626F6172645F6E6B726F3A2025C1
:10065000580A0074696D65725F636F756E743A2035
:100660002530346C580A004E4B524F3A206F6E0AB8
:10067000004E4B524F3A206F66660A003F00646599
:100680006661756C745F6C617965723A20002575DE
:10069000000A0064656275675F636F6E6669672E46
:1006A0007261773A200025303258000A002E656EBC
:1006B00061626C653A20002575000A002E6D617438
:1006C0007269783A20002575000A002E6B65796200
:1006D0006F6172643A20002575000A002E6D6F75F7
:1006E00073653A20002575000A006B65796D6170AD
:1006F0005F636F6E6669672E7261773A20002530FE
:100700003258000A002E737761705F636F6E7472E7
:100710006F6C5F636170736C6F636B3A200025755B
:10072000000A002E636170736C6F636B5F746F5FA0
:10073000636F6E74726F6C3A20002575000A002E8C
:10074000737761705F6C616C745F6C6775693A2078
:10075000002575000A002E737761705F72616C74FA
:100760005F726775693A20002575000A002E6E6F6A
:100770005F6775693A20002575000A002E7377615E
:10078000705F67726176655F6573633A20002575F7
:10079000000A002E737761705F6261636B736C6136
:1007A00073685F6261636B73706163653A200025F3
:1007B00075000A002E6E6B726F3A20002575000AD4
:1007C000000A092D204D61676963202D0A643A09EA
:1007D00064656275670A783A096465627567206DB9
:1007E00061747269780A6B3A096465627567206B97
:1007F0006579626F6172640A6D3A09646562756752
:10080000206D6F7573650A763A0976657273696F44
:100810006E0A733A097374617475730A633A0963F3
:100820006F6E736F6C65206D6F64650A302D343A9E
:10083000096C61796572302D34284631302D46348B
:10084000290A506175733A09626F6F746C6F616445
:1008500065720A653A09656570726F6D0A6E3A09CC
:100860004E4B524F0A7A3A09736C656570204C45BD
:100870004420746573740A000A092D20436F6E7357
:100880006F6C65202D0A4553432F713A09717569C4
:10089000740A6D3A096D6F7573656B65790A004C62
:1008A00025640A00433E20004D3E20003F000A0917
:1008B0002D204D6F7573656B6579202D0A45534367
:1008C0002F713A09717569740A313A0964656C616E
:1008D00079282A31306D73290A323A09696E7465B4
:1008E0007276616C286D73290A333A096D61785FFD
:1008F00073706565640A343A0974696D655F746F75
:100900005F6D61780A353A09776865656C5F6D617E
:10091000785F73706565640A363A09776865656C57
:100920005F74696D655F746F5F6D61780A0A703A14
:10093000097072696E742076616C7565730A643A29
:10094000097365742064656661756C74730A7570EB
:100950003A092B310A646F776E3A092D310A7067B4
:1009600075703A092B31300A7067646F776E3A09F7
:100970002D31300A0A7370656564203D2064656C12
:100980007461202A206D61785F7370656564202A28
:100990002028726570656174202F2074696D655F11
:1009A000746F5F6D6178290A0077686572652064ED
:1009B000656C74613A20637572736F723D25642CA7
:1009C00020776865656C3D25640A53656520687409
:1009D00074703A2F2F656E2E77696B697065646944
:1009E000612E6F72672F77696B692F4D6F75736515
:1009F0005F6B6579730A00433E2000736574206461
:100A0000656661756C740A003F004D25643E2000E8
:100A10004D3E000A092D2056616C756573202D0A24
:100A200000313A2064656C6179282A31306D732970
:100A30003A20002575000A00323A20696E7465720A
:100A400076616C286D73293A20002575000A003301
:100A50003A206D61785F73706565643A2000257592
:100A6000000A00343A2074696D655F746F5F6D61D0
:100A7000783A20002575000A00353A2077686565C8
:100A80006C5F6D61785F73706565643A20002575F1
:100A9000000A00363A20776865656C5F74696D6599
:100AA0005F746F5F6D61783A20002575000A006DF4
:100AB0006B5F64656C6179203D2025640A006D6B75
:100AC0005F696E74657276616C203D2025640A0052
:100AD0006D6B5F6D61785F7370656564203D202587
:100AE000640A006D6B5F74696D655F746F5F6D6143
:100AF00078203D2025640A006D6B5F776865656C22
:100B00005F6D61785F7370656564203D2025640AC0
:100B1000006D6B5F776865656C5F74696D655F74A8
:100B20006F5F6D6178203D2025640A006D6B5F6406
:100B3000656C6179203D2025640A006D6B5F696EEC
:100B400074657276616C203D2025640A006D6B5FD0
:100B50006D61785F7370656564203D2025640A00CF
:100B60006D6B5F74696D655F746F5F6D6178203D5B
:100B70002025640A006D6B5F776865656C5F6D6149
:100B8000785F7370656564203D2025640A006D6B95
:100B90005F776865656C5F74696D655F746F5F6DC5
:100BA0006178203D2025640A00000000000000005C
:100BB00000000000010204060A0F17202C3A4A5DCB
:100BC00071879DB3C7DAE9F5FCFFFCF5E9DAC7B335
:100BD0009D87715D4A3A2C20170F0A060402010016
:100BE0000000000000000000000011241FBECFEF35
:100BF000DAE0DEBFCDBF04B603FE27C08091460217
:100C000090914702A0914802B0914902873020EBB1
:100C1000920727E0A20720EBB207B9F41092460230
:100C200010924702109248021092490214BE84B7F3
:100C3000877F84BF88E10FB6F8948093600010929C
:100C400060000FBEE0E0F8E3099511E0A0E0B1E03C
:100C5000E4EDFBE502C005900D92AA34B107D9F787
:100C600012E0AAE4B1E001C01D92A634B107E1F799
:100C70000E94590D0C94E82D0C940000FF93EF9303
:100C8000E0914A01F0914B01309709F00995EF91FD
:100C9000FF910895FC018591803011F0EFDFFBCFCB
:100CA0000895FF27E0E230E247FF0CC0419597FF2F
:100CB00009C0EDE26095709580959095611D711D5C
:100CC000811D911D27FF02C0219530E350E2AA2724
:100CD000660F771F881F991FAA1FA41710F0A41B67
:100CE00063955A95A9F7AA3008F0A95FA05DAF9364
:100CF000F395611571058105910541F7ED3211F408
:100D0000EF93F395F21718F43F93F395FBCF8F9180
:100D1000B5DFFA95E1F70895E991F9918591803071
:100D200021F0853219F0AADFF9CF089520E0E89488
:100D300055915532C1F3503311F4689455915A339B
:100D400048F4505390F3220F022E220F220F200D51
:100D5000250FF4CF0EF4219589919991533619F30B
:100D6000533729F1533559F1BC0188279927E89465
:100D70005C3621F48991999168945591543639F4EF
:100D800046EF7EF077FF0DC08FEF9FEF0AC055371B
:100D90004AE039F0583540E121F0523642E009F09E
:100DA0000895FF93EF937DDFEF91FF91B7CFFF930E
:100DB000EF93FC0181918030B9F360DFFBCFFF93AB
:100DC000EF9368DFF1CFDF93CF93CDB7DEB72596F2
:100DD000A3DFCF91DF910895882319F087E797E784
:100DE00002C080E090E090930108809300082AE020
:100DF00088E190E00FB6F894A895809360000FBE4C
:100E000020936000FFCFFC01858182958F70613057
:100E100049F1613018F0623071F528C08281882371
:100E200061F00E94981D882331F50E94A71D882338
:100E300011F589E20E94471408950E94981D8823A5
:100E400041F40E94A71D882321F489E20E941A150B
:100E500008950E94B51D0E949E1D0E94AA1C0E941A
:100E600013180895853039F480E003C0853019F4F3
:100E700081E00E94EC060895CF93DF93A6E1B1E0F4
:100E800080E090E041E050E02D91E22FE295EF709C
:100E9000F0E061A12F70EA0102C0CC0FDD1F2A959E
:100EA000E2F79E013C2F3095632361A332A1322BE0
:100EB00032A301968530910539F7DF91CF910895DE
:100EC000CF93DF93809125028B60809325020E944F
:100ED0003C07A0E2B1E080E090E041E050E02D91DD
:100EE000E22FE295EF70F0E061A12F70EA0102C0FD
:100EF000CC0FDD1F2A95E2F79E013C2F309563232E
:100F000061A332A1322B32A301968630910539F7C5
:100F1000559A209AACE4B1E0E6E5F1E080E01D925C
:100F200011928F5F8A30D9F7DF91CF9108958F9218
:100F30009F92BF92CF92DF92EF92FF920F931F93F7
:100F4000CF93DF9300D0CDB7DEB780910101882326
:100F500019F060E070E002C065E070E086E1C82E44
:100F600081E0D82E8824992401E010E096E5E92E4E
:100F700091E0F92EE60EF71E25E0B22EF6018191E2
:100F80006F01E82FE295EF70F0E021A18F70A801CA
:100F900002C0440F551F8A95E2F7CA01242B21A3F2
:100FA00092A18095982392A350EA5A95F1F7A0E276
:100FB000B1E040E050E020E03D91E32FE295EF709A
:100FC000F0E080A190E03F7002C0959587953A953A
:100FD000E2F780FD08C0C801042E02C0880F991FE7
:100FE0000A94E2F701C080E0282B4F5F5F4F463044
:100FF000510511F7F701E80DF91D8081821719F0ED
:101000002083B092000169837A830E943C07089490
:10101000811C911C69817A8185E08816910409F010
:10102000ADCF809100018823E9F0815080930001C9
:10103000882339F0EFE9FFE03197F1F700C00000B5
:1010400011C080E090E09B01245B3E4FD901A80FC6
:10105000B91FF701E80FF91F40814C9301968530C5
:101060009105A1F781E00F900F90DF91CF911F9133
:101070000F91FF90EF90DF90CF90BF909F908F9057
:101080000895CF93DF9380910101882319F0C5E083
:10109000D0E002C0C0E0D0E00E94340A009799F48A
:1010A00080E090E0C45BDE4FFC01EB55FE4F2081F9
:1010B000FE01E80FF91F2083019685309105A1F705
:1010C00080E090E002C081E090E0DF91CF91089550
:1010D000CF930E949707C82F0E9441080097C9F03C
:1010E0005D98809160018F5F809360018630A0F0F1
:1010F00080910101882319F0E5E0F0E002C0E0E012
:10110000F0E0E45BFE4F108211821282138214829F
:1011100003C05D9A109260018C2FCF9108950E94B8
:10112000970780910101882319F020E030E002C088
:1011300025E030E080E090E0245B3E4FF901E80FCD
:10114000F91F4081FC01EB55FE4F4083019685302D
:101150009105A1F70895ECE4F1E0E80FF11D80811D
:101160000895CF92DF92EF92FF920F931F93CF9348
:10117000DF9384E291E00E944A060CE411E0C0E0B3
:10118000D0E03BE3E32E31E0F32E43E4C42E41E014
:10119000D42E00D000D0EDB7FEB7F282E182D48326
:1011A000C3830E94E3060F900F900F900F9080E48E
:1011B00091E00E944A06F80181918F0190E00E941F
:1011C000121F00D000D0EDB7FEB7D282C182948347
:1011D00083830E94E3060F900F900F900F9089E495
:1011E00091E00E944A062196CA30D10591F6DF911E
:1011F000CF911F910F91FF90EF90DF90CF900895C6
:101200001F920F920FB60F9211248F939F93EF931B
:10121000FF938091B90090E0887F907080389105AD
:1012200099F08138910534F40097E9F18036910501
:10123000E1F507C0883A910529F1883B9105A9F5A8
:1012400021C01092610131C080916101882389F42D
:101250008091BB008093620180916201803420F014
:101260001092620180E001C081E091E09093610101
:101270001DC0E0916201F0E08091BB00ED59FE4F8E
:10128000808308C0E0916201F0E0ED59FE4F80815B
:101290008093BB008091620190E001968F73907003
:1012A0008093620102C01092BC0081E09091BC006A
:1012B00095688295880F880F807C892B8093BC006D
:1012C000FF91EF919F918F910F900FBE0F901F9004
:1012D0001895509A08955098589A0895589A0895D4
:1012E0000E946B0989B180FFFDCF80E88A95F1F7F4
:1012F00008950E946909589880E88A95F1F70E943C
:101300006E0908950E946B0998E080E029B1880F6A
:101310002170822B20E82A95F1F725E02A95F1F734
:101320000000915099F708951F93CF93DF93C82F32
:101330000E94690918E0D0E01150CE01012E02C0D0
:10134000959587950A94E2F780FF03C00E946E0985
:1013500001C0589880E88A95F1F7112369F7DF9169
:10136000CF911F9108950E9469090E946E09089506
:101370000E946B09E89AE9E6F0E080818C7F808327
:1013800008951F920F920FB60F921124CF92DF9201
:10139000FF920F931F932F933F934F935F936F93FE
:1013A0007F938F939F93AF93BF93EF93FF93CF93CD
:1013B000DF930F92CDB7DEB70E94790900E010E00D
:1013C000FF2485EAC82E81E0D82EC00ED11EF6017A
:1013D00080810E9494090E947909F6018081F80EAB
:1013E0000F5F1F4F0530110561F78F2D0E94940983
:1013F0000E947909F0E8FA95F1F780E48A95F1F70F
:101400000E9482098093A4010E9479090091A4019D
:101410000E94820989830E9479090E946B0989814F
:10142000081721F08091A301816003C08091A3017E
:101430008E7F8093A3010F90DF91CF91FF91EF9169
:10144000BF91AF919F918F917F916F915F914F91DC
:101450003F912F911F910F91FF90DF90CF900F90B0
:101460000FBE0F901F901895CF92DF92FF920F93AF
:101470001F93CF93DF930F92CDB7DEB7F8940E94FE
:101480006909589885E08A95F1F700000E946B0978
:101490000E946E09E0E8EA95F1F789B180FD34C059
:1014A0000E947009CC24DD24FF240E948209860159
:1014B0000B551E4FF80180830E947009F80180814E
:1014C000F80E0894C11CD11CF5E0CF16D10469F7C1
:1014D0000E94820989830E9470098981F816A1F40B
:1014E0008091A4010E9494090E9470098091A40136
:1014F0000E9494090E9470090E9469090E946E0965
:10150000789480E090E003C0789481E090E00F90C0
:10151000DF91CF911F910F91FF90DF90CF900895B1
:10152000E8EDF0E08081806180838AE18A95F1F7BF
:1015300000C08091D9008170089587E090E00E94FA
:10154000B72D91E0882309F490E0909301010E9467
:10155000900A882319F00E94B30902C00E94B809BA
:10156000789408950E9460070E948F08FDCF0E9422
:101570009D0A0E94900A882311F40E94B20A0895DD
:1015800008958091BB0108959FB7F8941092BD0112
:101590009FBF90913C02943009F05AC09091E900AD
:1015A0009F702091EC0020FF02C020E801C020E0E5
:1015B000292B94E09093E9009091EB0090FF43C0B9
:1015C0009091EE0097FF3FC09091BE01992321F0CA
:1015D0009091E80095FF37C01092BE0196E014C0CC
:1015E00030913C02343079F53091EB0035FD2BC061
:1015F000915021F481E08093BE0125C0EFE9FFE026
:101600003197F1F700C000003091E80035FFE8CFD6
:101610008093F1008091E80085FD0AC08091E80088
:1016200080FFFCCF8091E8008E778093E80006C0B1
:101630008FB7F89491E09093BD018FBF2F702093E6
:10164000E90080E008952F702093E9008FEF08955E
:101650008FEF0895CF93DF9300D00F92CDB7DEB711
:1016600020913C02243021F523E029839B838A8347
:101670002093E9008FEF06C095ED9A95F1F70000F1
:10168000882329F09091E800815095FFF5CF809153
:10169000E80085FF0DC0CE01019663E070E040E0F8
:1016A00050E00E94120E8091E8008E778093E8004F
:1016B0000F900F900F90DF91CF910895CF93DF930C
:1016C00000D00F92CDB7DEB720913C02243029F52F
:1016D00022E029839B838A8383E08093E9008FEF54
:1016E00006C095ED9A95F1F70000882329F09091B6
:1016F000E800815095FFF5CF8091E80085FF0DC08F
:10170000CE01019663E070E040E050E00E94120ECE
:101710008091E8008E778093E8000F900F900F90F3
:10172000DF91CF91089520913C022430F9F422E01A
:101730002093E9002FEF06C035ED3A95F1F7000050
:10174000222329F03091E800215035FFF5CF209178
:10175000E80025FF0BC065E070E040E050E00E942B
:10176000120E8091E8008E778093E8000895CF9361
:10177000DF93D82FC92F80913C02843009F04BC0F1
:1017800080910C018823E9F080910D018823C9F034
:1017900085E08093E9008FEF06C095E19A95F1F717
:1017A0000000882329F09091E800815095FFF5CF43
:1017B0008091E80085FF2FC08D2F9C2F60E170E0A5
:1017C00018C081E08093E9008FEF06C095ED9A95EF
:1017D000F1F70000882329F09091E800815095FFEF
:1017E000F5CF8091E80085FF16C08D2F9C2F68E013
:1017F00070E040E050E00E94120E8091E8008E7789
:101800008093E800ABEAB1E0ED2FFC2F80E101907E
:101810000D928150E1F7DF91CF9108958BE491E033
:101820000E944A0680913B02882349F40E94B90F26
:101830000E9416108091E20084608093E200089577
:101840008FE491E00E944A0610923B02089583E5DE
:1018500091E00E944A06089587E591E00E944A06B9
:101860000E94102C08958BE591E00E944A060E9488
:10187000661F0E94162C0E94B6120E94C00A08958C
:101880008091BC018F5F8093BC0162E30E94842D34
:101890009923A9F51092BC018091BD01882379F1AB
:1018A00080913C02843049F58091E9008F709091DD
:1018B000EC0090FF02C090E801C090E0982B84E01B
:1018C0008093E9008091EB0080FF14C08091EE00CE
:1018D00087FD03C00FC01092F1008091E80085FDE4
:1018E000FACF8091E80080FF05C08091E8008E77F4
:1018F0008093E8009F709093E9001092BD010895D5
:1019000081E061EC42E00E94300F82E061EC42E055
:101910000E94300F83E061EC42E00E94300F84E0CF
:1019200061EC42E20E94300F85E061EC42E10E94EE
:10193000300F089580913E02833009F458C08430FE
:1019400030F4813071F0823009F0B2C099C08A3031
:1019500009F486C08B3009F46BC0893009F0A8C047
:1019600020C080913D02813A09F0A2C08091E80038
:10197000877F8093E8008091410290914202009716
:1019800021F060E080E090E003C060E18BEA91E04C
:1019900070E00E94630E8091E8008B778093E800EE
:1019A000089580913D02813209F082C08091410208
:1019B00090914202009721F08430910509F078C09F
:1019C0008091E800877F8093E80005C080913C0209
:1019D000882309F46DC08091E80082FFF7CF8091E1
:1019E000F1008093BB018091E8008B771CC080914F
:1019F0003D02813A09F05CC080914102909142021F
:101A0000009709F055C08091E800877F8093E80037
:101A10008091E80080FFFCCF80910C018093F10061
:101A20008091E8008E778093E8000E94650F08950A
:101A300080913D028132E1F5809141029091420214
:101A40000097B1F58091E800877F8093E8000E94BD
:101A5000650F80913F0280930C010E941318089536
:101A600080913D02813221F58091E800877F80934B
:101A7000E8000E94650F809140028093AA010895BA
:101A800080913D02813AA1F48091E800877F8093A4
:101A9000E8008091E80080FFFCCF8091AA0180934C
:101AA000F1008091E8008E778093E8000E94650F36
:101AB000089584B7877F84BF88E10FB6F894809338
:101AC0006000109260000FBE90E080E80FB6F894BE
:101AD00080936100909361000FBE0E9445130E94A5
:101AE000B90F0E9416108091E20084608093E2009A
:101AF00084EC9AE00E94F11E789480913C0284303C
:101B0000E1F78FE591E00E944A060E94481382E0C7
:101B100091E00E94B1120E94FE2B80E791E00E94AA
:101B20004A0610C081E891E00E944A060E942A1FDE
:101B300080913A02882331F00E94521F882311F0CD
:101B40000E94FC0D80913C02853061F30E9481135C
:101B5000F9CF933099F0943038F4913009F43EC0C5
:101B6000923009F040C005C09132D1F09232D9F5DF
:101B700025C08DE890E0E7EBF1E039C0813041F01D
:101B8000813018F0823079F506C0E3EBF1E005C052
:101B9000E5EAF1E002C0E5E8F1E0849190E027C0D9
:101BA000653008F5E62FF0E0EE0FFF1FEA5DFE4F0F
:101BB0000190F081E02D89E090E019C0653098F443
:101BC00070E0FB01EE0FFF1FE05DFE4F0190F08122
:101BD000E02D665C7E4FDB018C91E0CF82E190E0EE
:101BE000E4E4F2E004C080E090E0E0E0F0E0DA015C
:101BF0001196FC93EE93089580E189BD82E189BD41
:101C000009B400FEFDCF8091D8008F7D8093D8006D
:101C10008091E00082608093E0008091E00081FD8F
:101C2000FCCF0895AF92BF92CF92DF92EF92FF92D6
:101C30001F93CF93DF93EC017B016A010E94860F13
:101C4000182F8823A9F5C114D10439F0F601208199
:101C50003181E21AF30AC20FD31FAA24BB2423C086
:101C60008091E80085FD16C08091E8008E77809312
:101C7000E800C114D10449F0F601808191818A0DF8
:101C80009B1D9183808315E013C00E94860F8823DB
:101C900051F00DC089918093F1000894E108F1089A
:101CA0000894A11CB11CE114F104D1F601C0182F55
:101CB000812FDF91CF911F91FF90EF90DF90CF9018
:101CC000BF90AF900895409143025091440246174F
:101CD000570720F4BA01FC0140E03DC061157105D1
:101CE000D1F74091E8004E774093E800F4CF80911F
:101CF0003C02882309F447C0853009F446C080912E
:101D0000E80083FD3EC08091E80082FD34C08091F0
:101D1000E80080FF20C09091F3008091F200392FFD
:101D200020E090E0822B932B06C041914093F1007C
:101D30006150704001966115710519F08830910568
:101D4000A0F341E08830910509F040E08091E8007F
:101D50008E778093E8006115710549F6442339F6C2
:101D60000AC080913C02882371F0853071F0809127
:101D7000E80083FD0CC08091E80082FFF2CF80E094
:101D8000089581E0089582E0089583E0089581E058
:101D9000089540914302509144024617570720F49A
:101DA000BA01FC0140E03EC061157105D1F74091D8
:101DB000E8004E774093E800F4CF80913C028823FE
:101DC00009F448C0853009F447C08091E80083FDDC
:101DD0003FC08091E80082FD35C08091E80080FF1F
:101DE00021C09091F3008091F200392F20E090E023
:101DF000822B932B07C044914093F10031966150A0
:101E0000704001966115710519F08830910598F3BD
:101E100041E08830910509F040E08091E8008E773C
:101E20008093E8006115710541F6442331F60AC03C
:101E300080913C02882371F0853071F08091E80038
:101E400083FD0CC08091E80082FFF2CF80E008950E
:101E500081E0089582E0089583E0089581E0089587
:101E6000982F2AC09093E900981739F07091EC00F0
:101E70002091ED005091F00003C0242F762F50E008
:101E800021FF19C03091EB003E7F3093EB00309181
:101E9000ED003D7F3093ED003091EB0031603093E9
:101EA000EB007093EC002093ED005093F000209134
:101EB000EE0027FF08C09F5F9730A0F28F708093DD
:101EC000E90081E0089580E0089580913D0287FF58
:101ED00013C004C080913C028823B9F08091E800CF
:101EE00082FFF8CF8091E8008B778093E800089517
:101EF00080913C02882349F08091E80080FFF8CF70
:101F00008091E8008E778093E80008958091E40046
:101F10009091E50045E601C0C9012091EC0020FF49
:101F200023C02091E80020FD15C020913C0222230F
:101F300099F0253099F02091EB0025FD11C02091FA
:101F4000E4003091E5002817390739F3415021F7B3
:101F500084E0089580E0089582E0089583E0089584
:101F600081E0089580E008952091E80022FFDDCF10
:101F7000F9CF0E9428100E943010E0EEF0E080813E
:101F800081608083E8EDF0E080818F77808319BCE9
:101F9000A7EDB0E08C918E7F8C9380818F7E8083C3
:101FA00010923B0208950F931F93CF93DF930E94EB
:101FB00028100E943010C8EDD0E088818F77888388
:101FC00088818068888388818F7D888319BC10927E
:101FD0003C021092380210923A021092390200EE3E
:101FE00010E0F80180818B7F808388818160888305
:101FF00080E060E042E00E94300FE1EEF0E080819E
:102000008E7F8083E2EEF0E080818160808380813A
:1020100088608083F80180818E7F808388818061E1
:102020008883DF91CF911F910F910895E8EDF0E043
:1020300080818F7E8083E7EDF0E080818160808306
:1020400084E082BF81E080933B020E94D30F089519
:10205000E8EDF0E080818E7F80831092E2000895A9
:102060001092DA001092E10008951F920F920FB6BD
:102070000F9211242F933F934F935F936F937F930E
:102080008F939F93AF93BF93EF93FF938091E10062
:1020900082FF0BC08091E20082FF07C08091E100C7
:1020A0008B7F8093E1000E94400C8091DA0080FFDA
:1020B0001FC08091D80080FF1BC08091DA008E7F06
:1020C0008093DA008091D90080FF0DC080E189BD46
:1020D00082E189BD09B400FEFDCF81E080933C021E
:1020E0000E940E0C05C019BC10923C020E94200CEC
:1020F0008091E10080FF19C08091E20080FF15C04F
:102100008091E2008E7F8093E2008091E200806106
:102110008093E2008091D80080628093D80019BC3F
:1021200085E080933C020E942C0C8091E10084FFAA
:1021300030C08091E20084FF2CC080E189BD82E143
:1021400089BD09B400FEFDCF8091D8008F7D8093BA
:10215000D8008091E1008F7E8093E1008091E200C1
:102160008F7E8093E2008091E20081608093E200A4
:1021700080913802882311F084E007C08091E30049
:1021800087FF02C083E001C081E080933C020E948F
:10219000330C8091E10083FF29C08091E20083FF2E
:1021A00025C08091E100877F8093E10082E08093E9
:1021B0003C02109238028091E1008E7F8093E10012
:1021C0008091E2008E7F8093E2008091E200806146
:1021D0008093E20080E060E042E00E94300F809156
:1021E000F00088608093F0000E94270CFF91EF912F
:1021F000BF91AF919F918F917F916F915F914F911F
:102200003F912F910F900FBE0F901F9018951F9226
:102210000F920FB60F9211242F933F934F935F931A
:102220006F937F938F939F93AF93BF93CF93EF93CE
:10223000FF93C091E900CF708091EC001092E9000B
:102240008091F000877F8093F00078940E94431182
:102250001092E9008091F00088608093F000C093B4
:10226000E900FF91EF91CF91BF91AF919F918F9135
:102270007F916F915F914F913F912F910F900FBE82
:102280000F901F9018951F93CF93DF93CDB7DEB7B4
:10229000AC970FB6F894DEBF0FBECDBF80E0EDE384
:1022A000F2E09091F10091938F5F8830D1F70E9416
:1022B0009A0C8091E80083FF3CC180913D022091FF
:1022C0003E02253009F484C0263040F42130A1F1CB
:1022D000213070F0233009F02CC12EC0283009F4D1
:1022E000F7C0293009F407C1263009F022C194C093
:1022F000803821F0823809F01CC108C08091390271
:1023000090913A02992371F082600CC08091410251
:102310008F708093E9009091EB0081E095FF80E061
:102320001092E9009091E800977F9093E8008093E5
:10233000F1001092F100D7C0882319F0823009F023
:10234000F8C090E08F719070009729F0823091056D
:1023500009F0EFC00BC080913F02813009F0E9C065
:10236000233009F080E080933A022CC080913F0234
:10237000882341F5209141022F7009F4DAC020939F
:10238000E9008091EB0080FF1DC080913E02833008
:1023900021F48091EB00806213C08091EB0080619A
:1023A0008093EB0081E090E002C0880F991F2A958E
:1023B000E2F78093EA001092EA008091EB008860D7
:1023C0008093EB001092E9008091E800877F8EC037
:1023D000882309F0AEC010913F021F778091E3007F
:1023E0008078812B8093E3008091E800877F809341
:1023F000E8000E94650F8091E80080FFFCCF80918B
:10240000E30080688093E300112311F083E001C0B2
:1024100082E080933C028DC08058823008F089C0F1
:1024200080913F029091400223E08C3D9207B1F5EC
:1024300083E08C838AE28B835FB7F894DE01139686
:1024400080E090E04EE061E2E42FF0E0609357001E
:10245000E49180FF03C0E295EF704F5FEF702E2F85
:1024600030E0EA3018F0295C3F4F02C0205D3F4F5A
:1024700013963C932E9312970196129684319105F0
:1024800019F75FBF8091E800877F8093E800CE0155
:1024900003966AE270E00E94630E14C060914102EC
:1024A000AE014F5F5F4F0E94A90DBC01009709F478
:1024B00040C08091E800877F8093E80089819A81FD
:1024C0000E94C90E8091E8008B778093E80031C0AC
:1024D000803879F58091E800877F8093E8008091CB
:1024E00038028093F1008091E8008E778093E800B5
:1024F0000E94650F1EC08823E1F490913F02923044
:10250000C0F48091E800877F8093E80090933802C0
:102510000E94650F80913802882321F48091E300A6
:1025200087FF02C084E001C081E080933C020E94EA
:10253000800C8091E80083FF0AC08091E800877FCB
:102540008093E8008091EB0080628093EB00AC9672
:102550000FB6F894DEBF0FBECDBFDF91CF911F91B4
:1025600008959093C0018093BF010895E091BF0149
:10257000F091C001309729F00190F081E02D09958C
:10258000089580E00895FF920F931F93CF93DF93F8
:10259000182F092FE091BF01F091C0013097C1F1D0
:1025A0000280F381E02D09958091250282FF30C0E1
:1025B00080FF04C081E793E00E944A06C12FD02F1C
:1025C00080E1F82E03E813E08091250280FF14C01B
:1025D00000D000D0EDB7FEB73196ADB7BEB71296BA
:1025E0001C930E9311978881828313820E94E306C5
:1025F0000F900F900F900F90FA942196FF2021F7E3
:102600008091250280FF04C089E893E00E944A0679
:10261000DF91CF911F910F91FF900895E091BF013D
:10262000F091C001309721F00480F581E02D0995EB
:1026300008952091C1013091C2018217930771F072
:102640009093C2018093C101E091BF01F091C0015C
:10265000309721F00680F781E02D099508952091AB
:10266000C3013091C4018217930771F09093C401A4
:102670008093C301E091BF01F091C001309721F038
:102680000084F185E02D099508950E94B70A089508
:102690000E94691F0E9460070E9462200895CF93E4
:1026A000C82F8091250282FF27C080FF04C08BE8DD
:1026B00093E00E944A068091250280FF15C000D059
:1026C00000D0EDB7FEB731962EE933E0ADB7BEB717
:1026D00012963C932E931197C28313820E94E306B5
:1026E0000F900F900F900F908091250280FF04C0F3
:1026F00083EA93E00E944A068C2F0E94C00ACF9181
:102700000895BF92CF92DF92EF92FF920F931F93A3
:10271000CF93DF93CDB7DEB72A970FB6F894DEBF1D
:102720000FBECDBF0E94680805EC11E0EE24FF2427
:10273000CE2C8E2D0E94AB08D82EF801B1908F01BF
:10274000B826E9F18091250281FF02C00E94B108FC
:1027500020E030E04B2D50E0CA01022E02C09595DA
:1027600087950A94E2F780FF25C02E83CF8201E08F
:1027700010E002C0000F111F2A95E2F78D2D90E0A6
:102780008023912321E0009709F420E028870E940C
:10279000721F8160782F9A8789874E815F81688553
:1027A0008A850E941514F701EB53FE4F8081802724
:1027B00080831DC02F5F3F4F2630310569F6089496
:1027C000E11CF11CFAE0EF16F10409F0B1CF8FEF34
:1027D00089838A831B820E94721F8160782F9D8368
:1027E0008C8349815A816B818D810E9415140E94CE
:1027F00041240091CF010E94B612081731F00E94C7
:10280000B6128093CF010E944F132A960FB6F89408
:10281000DEBF0FBECDBFDF91CF911F910F91FF9013
:10282000EF90DF90CF90BF900895CF93DF93CDB717
:10283000DEB72B970FB6F894DEBF0FBECDBF4F8328
:10284000588769877A878B87972F282FDE01119603
:1028500086E0FD0111928A95E9F7FE01379685E041
:1028600001900D928150E1F749835A83792F9C831F
:102870002D836B81822F9E810E94141B2B960FB695
:10288000F894DEBF0FBECDBFDF91CF910895CF93F7
:10289000C82F882309F4CCC0823859F40E94B6129C
:1028A00081FDC6C089E30E94D61D0E94C91E89E32E
:1028B0000CC0833879F40E94B61280FDB9C083E55C
:1028C0000E94D61D0E94C91E83E50E94341E0E94EC
:1028D000C91EAEC0843859F40E94B61282FDA8C049
:1028E00087E40E94D61D0E94C91E87E4EECF845063
:1028F000813A50F48C2F0E94562A882309F098C000
:102900008C2F0E94D61DE3CF8C2F805E883050F430
:10291000C77081E090E001C0880FCA95EAF70E9475
:10292000901ED5CF8C2F855A833078F4C53A29F084
:10293000C63A31F482E890E005C081E890E002C038
:1029400083E890E00E94191373C08C2F885A853158
:1029500008F06EC0C83A61F1C93A69F1CA3A71F13A
:10296000CB3A79F1CC3A81F1CD3A89F1CE3A91F175
:10297000CF3A99F1C13BA1F1C03BA9F1C23BB1F102
:10298000C33BB9F1C43BC1F1C53BC9F1C63BD1F171
:10299000C73BD9F1C83BE1F1C93BE9F1CA3BF1F1D1
:1029A000CB3BF9F1CC3B09F03FC08AE292E03EC05C
:1029B00082EE90E03BC089EE90E038C08AEE90E075
:1029C00035C085EB90E032C086EB90E02FC083EB02
:1029D00090E02CC084EB90E029C087EB90E026C00B
:1029E0008CEC90E023C08DEC90E020C083E891E077
:1029F0001DC08AE891E01AC082E991E017C084E91D
:102A000091E014C081E292E011C083E292E00EC036
:102A100084E292E00BC085E292E008C086E292E098
:102A200005C087E292E002C080E090E00E942F1390
:102A3000CF910895882309F44EC0823859F40E943A
:102A4000B61281FF48C089E30E94D61D0E94C91EAC
:102A500089E30CC0833869F40E94B61280FF3BC042
:102A600083E50E94D61D0E94C91E83E50E94341E84
:102A70001FC0843859F40E94B61282FF2CC087E42C
:102A80000E94D61D0E94C91E87E4F0CF982F945053
:102A9000913A60F3982F905E983068F4282F277051
:102AA00081E090E001C0880F2A95EAF70E94961E07
:102AB0000E94C91E0895982F955A933028F480E0FB
:102AC00090E00E9419130895885A853120F480E01F
:102AD00090E00E942F130895882321F00E94901EF9
:102AE0000E94C91E0895882321F00E94961E0E940C
:102AF000C91E08959F92AF92BF92CF92DF92EF923C
:102B0000FF920F931F93CF93DF9300D000D000D09C
:102B1000CDB7DEB75C01DE011196FC0185E00190C6
:102B20000D928150E1F7F50130812181C28015813C
:102B300012951F7083819481009709F44FC22F3F33
:102B400009F039C23F3F09F036C248C2CC2059F0E3
:102B500082E09E830E94B81D0E94CF1D9924939409
:102B600098269E8101C09924292F22952F7030E04C
:102B70002530310509F4ADC0263031056CF4243020
:102B800031050CF085C0892F807F4FE0F42EF922AB
:102B90002230310594F515C02C3031054CF42A3023
:102BA00031050CF056C12830310509F0F0C19CC048
:102BB0002C30310509F4DCC12F30310509F0E7C1B3
:102BC000E0C1882319F0F29490EFF922CC2049F06B
:102BD000FF2009F4B9C18F2D0E94A01E0E94C91EBA
:102BE000B3C1802F0E941A15FF2009F4D0C18F2D88
:102BF0000E94A61E0E94C91ECAC1803219F0F2941A
:102C000080EFF822002319F0013079F524C0CC20A0
:102C100081F01123A1F1113021F48F2D0E94B01EFB
:102C2000B6C1123061F50E94B31E8F2D0E949B1D0C
:102C300026C0112369F0113041F40E948D1E8F21AE
:102C400009F4A5C10E949E1D03C0123009F49FC162
:102C50000E94B31E1BC0CC2021F0163008F097C193
:102C60000EC0153008F093C111C0CC2061F01123C3
:102C700031F0F501858180FF67C18F7085838F2DCD
:102C80000E946C1584C1112309F069C18F2DFFC00A
:102C9000292F26952695237030E02115310529F03E
:102CA0002130310509F073C10AC0CC2019F0802F02
:102CB000937002C080E090E00E94191368C1CC209C
:102CC00019F0802F937002C080E090E00E942F13D3
:102CD0005EC1802FCC2019F00E94812202C00E9488
:102CE000EB220E94712353C1892F837009F055C0D4
:102CF000CC2009F04CC1802F829586958770880F73
:102D0000880F202F2F70C22EDD24EE24FF24082EE2
:102D100004C0CC0CDD1CEE1CFF1C0A94D2F704FF8F
:102D200010C00FE010E020E030E004C0000F111FE1
:102D3000221F331F8A95D2F7009510952095309564
:102D400003C000E010E09801969596959370892F46
:102D500090E08230910579F083309105A9F0C02A86
:102D6000D12AE22AF32A8130910591F0C701B601F8
:102D70000E94841C0CC1C02AD12AE22AF32AC7016E
:102D8000B6010E94971C03C1C901B8010E94841CAE
:102D9000C701B6010E94711CFAC0CC2019F080FF57
:102DA000F6C002C081FFF3C0802F829586958770A0
:102DB000880F880F402F4F70C42EDD24EE24FF248F
:102DC000082E04C0CC0CDD1CEE1CFF1C0A94D2F7AC
:102DD00004FF10C04FE050E060E070E004C0440F1A
:102DE000551F661F771F8A95D2F7409550956095BD
:102DF000709503C040E050E0BA01969596959370A7
:102E0000892F90E08230910591F083309105C1F0D7
:102E10004C295D296E297F298130910529F0CB014C
:102E2000BA010E942B1DB3C0CB01BA010FC04C29BF
:102E30005D296E297F29CB01BA010E943E1DA7C0E2
:102E4000CB01BA010E942B1DC701B6010E94181DBB
:102E50009EC0013F69F1023F30F4003E08F470C0AB
:102E6000003F48F017C0033F79F1033F38F1043FBA
:102E700009F066C033C00F70892F8F71CC2021F00C
:102E80000E94C01C802FFCCE0E94DC1C802F0E9460
:102E900073157DC0CC2021F0153008F078C003C038
:102EA000163008F074C0892F8F710E94FC1C6FC00F
:102EB000892F8F71CC2009F458C04CC0892F8F7195
:102EC000CC2009F447C051C0CC2029F0892F8F7144
:102ED0000E94B01C5CC00E94AA1C59C09E83CC20DA
:102EE000D1F00E94981D0E94961E0E94A71D9E81EF
:102EF000843031F40E94B51D9E81892F8F7158C096
:102F0000123008F06BC0192F1F71812F0E94C01C56
:102F1000812F63E00EC00E94981D0E94901E123007
:102F200058F00E94B51D0E949E1D9E81892F8F71B1
:102F300064E00E94AB1D52C081E00E94B81D4EC0EB
:102F4000CC2059F0112321F0802F0E9447141FC07C
:102F5000892F8F710E94C01C1AC0112321F0802F6D
:102F60000E941A1514C0892F8F710E94DC1C0FC09B
:102F7000492F4F70C501602F0E9409200E94D11B6C
:102F800006C0492F4F70C501602F0E94030799208A
:102F900029F10E94A71D80FD21C0F50112820E9427
:102FA000A11D0E94C01CC5010E947A150E94A11D8E
:102FB0000E94DC1C13C039832A8389819A810E9474
:102FC000521D082F9E830E94511D0E946D1C0E945D
:102FD000CF1D9E81882309F0B9CDC5CD26960FB6A9
:102FE000F894DEBF0FBECDBFDF91CF911F910F913F
:102FF000FF90EF90DF90CF90BF90AF909F9008959B
:103000000E94AD1E0E947F1E0E94C91E0E94E824DD
:103010000E94712380E090E00E94191380E090E00C
:103020000E942F1308950E949D1E0E94001808956B
:103030000E94521D292F22952F7030E02C3031052F
:103040004CF42A3031056CF42250304022303105E6
:10305000B8F407C02C30310579F02F30310581F4F8
:103060000BC0803F39F0813F18F4803E58F402C015
:10307000843F41F481E008959F7081E093FD03C097
:1030800080E0089580E00895CF93DF9300D000D0D2
:103090000F92CDB7DEB70F900F900F900F900F905B
:1030A000DF91CF910895CF93DF9300D000D000D06F
:1030B000CDB7DEB726960FB6F894DEBF0FBECDBFF4
:1030C000DF91CF910895CF93DF93C091D60114C0C3
:1030D000D0E0FE01EE0FFF1FEC0FFD1FEE0FFF1FF4
:1030E000E952FE4F408151816281738184819581D3
:1030F0000E9453182196C77080910702C81741F7A4
:10310000DF91CF9108954091D0015091D10160910C
:10311000D2017091D3018091D4019091D5010E9488
:10312000531808954115510551F06F3F59F421E0AE
:1031300030E08F3F11F020E030E0C901089581E0D8
:1031400090E0089580E090E00895CF92DF92EF92B2
:10315000FF920F931F93CF93DF938091D5018295B8
:103160008F7009F05CC08091D201882309F457C0A8
:10317000C091D601E0900702D091D001F090D1012A
:103180000091D3011091D4016801C094D09444C03F
:103190008D2F6F2DA8010E9492188823D9F52C2F0E
:1031A00030E0F901EE0FFF1FE20FF31FEE0FFF1FDC
:1031B000E952FE4F8181F81669F58081D81751F5E3
:1031C0008281882339F5838194818017910718F0D3
:1031D000801B910B02C08C0D9D1D883C9105D0F485
:1031E0008091D5018F7080618093D501F901EE0F38
:1031F000FF1FE20FF31FEE0FFF1FE452FE4F80810F
:103200008F708061808380ED91E00E947A150E942A
:10321000631805C0CF5FC770CE1509F0B9CFDF9135
:10322000CF911F910F91FF90EF90DF90CF90089575
:103230007F928F929F92AF92BF92CF92DF92EF9246
:10324000FF920F931F93CF93DF93CDB7DEB76197B4
:103250000FB6F894DEBF0FBECDBF5C01DE01119644
:10326000FC0185E001900D928150E1F7D501EC90D1
:103270001196DC9011971296FC90129713968D90F0
:103280009C9014977090D001C090D1010091D3010F
:103290001091D401872D6C2DA8010E9492188823CB
:1032A00009F07FC18091D201882309F408C18016FA
:1032B000910638F0C401801B910B883C910548F0C1
:1032C000A6C000951095080D191D083C110508F0C1
:1032D0009EC08091D501982F907F09F058C0CD14E1
:1032E00099F47E1489F4FF2079F48F7080618093C3
:1032F000D5010E94831880ED91E00E947A1580919B
:10330000D501F501858369C18E2D6D2DA4010E9423
:103310009218882399F5FF20A1F58091D60120917C
:10332000070216C090E0FC01EE0FFF1FE80FF91F27
:10333000EE0FFF1FE952FE4F3181D31639F4308171
:10334000E31621F43281332309F047C101968770D7
:10335000821741F757C19F7061F0882351F43DC136
:103360009F7039F0D50115969C911597907F09F4BF
:1033700034C1805E883008F430C12AC1FF2009F4CE
:103380002CC18091D50181608093D50126C1CD14D7
:1033900091F47E1481F4FF2071F4F5018583C50159
:1033A0000E947A15A0EDB1E0F50186E001900D9242
:1033B0008150E1F70AC1E982DA8289819A810E940B
:1033C0001818882309F404C1FF2009F401C12091D1
:1033D000D501822F82958F7090E08230910574F034
:1033E0008091D0019091D1019D878C871E86988A0B
:1033F0008F86298BCE010C960E947A15A0EDB1E044
:10340000F50186E001900D928150E1F7DCC08091DA
:10341000D501982F907FA1F4E982DA82FB82782D82
:103420009D828C824E2D5D2D6F2D8D810E944418C2
:1034300000ED11E0C8010E947A1586E0D801ABC00A
:10344000CD1489F47E1479F4FF2069F4F5018583A5
:10345000C5010E947A15E0EDF1E086E0DF011D92E2
:103460008A95E9F7B8C0E982DA8289819A810E9457
:103470001818882309F4ACC0FF2009F4A9C02091D2
:10348000D501822F82958F7090E08230910574F083
:103490008091D0019091D1019F838E8318869A8666
:1034A00089862B87CE0106960E947A15A0EDB1E0A1
:1034B000F50186E001900D928150E1F784C08016FD
:1034C000910638F0C401801B910B883C910548F0AF
:1034D00052C000951095080D191D083C110508F003
:1034E0004AC0FF2009F474C0CD1471F57E1461F553
:1034F0002091D50120FD1FC0322F32953F70832FC0
:1035000090E00097C1F0F50125838F30910539F0E7
:10351000832F8F5F8295807F2F70282B2583C50195
:103520000E947A15A0EDB1E0F50186E001900D92C0
:103530008150E1F74AC0A0EDB1E0F50186E00190CD
:103540000D928150E1F747C0E982DA8289819A8140
:103550000E941818882349F0A0EDB1E0F50186E03B
:1035600001900D928150E1F72EC08091D5018160CC
:103570008093D5012DC0E982DA82FB82782D9D826D
:103580008C824E2D5D2D6F2D8D810E944418E0EDB3
:10359000F1E086E0DF011D928A95E9F70E94831829
:1035A0001CC0FF20A9F0E982DA8289819A810E94F9
:1035B0001818882369F0A0EDB1E0F50186E00190CC
:1035C0000D928150E1F70E94A5180E94831803C054
:1035D000C5010E947A1581E001C080E061960FB6B6
:1035E000F894DEBF0FBECDBFDF91CF911F910F9139
:1035F000FF90EF90DF90CF90BF90AF909F908F9013
:103600007F900895E982DA8289819A810E94521D11
:10361000292F22952F7030E0223031050CF49BCEFB
:1036200024303105ACF69CCEEF92FF920F931F939E
:10363000CF93DF93CDB7DEB72C970FB6F894DEBFEC
:103640000FBECDBF4F83588769877A878B879C874A
:10365000CE0107960E941819882391F04A855B8550
:103660008F8168850E949218882309F078C04F8165
:10367000588569857A858B859C850E9453186FC013
:10368000DE011196FE01379686E001900D92815081
:10369000E1F71F810885EA84FB84812F602FA70151
:1036A0000E949218882309F05AC08091070290E086
:1036B000AC014F5F5F4F477050702091D60130E0F2
:1036C0004217530709F452C09C01220F331FF9011E
:1036D000E80FF91FEE0FFF1FE952FE4FDE011196B2
:1036E00066E00D9001926150E1F7F901E80FF91FD2
:1036F000EE0FFF1FE952FE4F10830183F482E38235
:10370000409307020E9463182AC030E0C901880F65
:10371000991F820F931F880F991F89529E4F0E94F5
:103720001819882389F18091D60190E0FC01EE0FF1
:10373000FF1FE80FF91FEE0FFF1FE952FE4F4081F8
:10374000518162817381848195810E945318809197
:10375000D60190E00196877090708093D6012091F9
:10376000D60180910702281781F60EC00E94131817
:10377000109207021092D601E0EDF1E086E0DF0141
:103780001D928A95E9F7EBCF2C960FB6F894DEBF21
:103790000FBECDBFDF91CF911F910F91FF90EF90A2
:1037A0000895DF92EF92FF920F931F93CF93DF93D1
:1037B000EC01009709F46FC0DD2481E0E82EF12CC4
:1037C0008E010F5F1F4FFE018491843748F48430CF
:1037D00008F04DC0813079F0823009F05CC01FC024
:1037E000853709F440C0853780F1982F9458903779
:1037F00008F051C03FC02296F8018491982F905E46
:10380000983050F48770FE2D01C0FF0F8A95EAF7BB
:103810008F2F0E94A01E13C00E9447142FC0229613
:10382000F8018491982F905E983060F48770FE2D97
:1038300001C0FF0F8A95EAF78F2F0E94A61E0E94F3
:10384000C91E1CC00E941A1519C02296F8010491C5
:1038500007C08FE99FE00197F1F700C00000015019
:103860000023B9F70BC02296F801D49007C00E943C
:10387000471403C08F770E941A15E8018D2D07C0E9
:10388000EFE9FFE03197F1F700C000008150882395
:1038900009F496CFF5CFDF91CF911F910F91FF9053
:1038A000EF90DF900895DC01CB0180930C029093A0
:1038B0000D02A0930E02B0930F020E94001808950B
:1038C000DC01CB018093080290930902A0930A02C5
:1038D000B0930B020E940018089508950E94531C93
:1038E00008950F931F9300910C0210910D022091E7
:1038F0000E0230910F02602B712B822B932B0E94B2
:10390000531C1F910F9108950F931F9300910C0268
:1039100010910D0220910E0230910F02602371234D
:10392000822393230E94531C1F910F9108950F939C
:103930001F9300910C0210910D0220910E02309104
:103940000F0260277127822793270E94531C1F9123
:103950000F91089560E070E0CB010E94601C089513
:1039600041E050E060E070E004C0440F551F661F66
:10397000771F8A95D2F7CB01BA010E94601C089587
:1039800041E050E060E070E004C0440F551F661F46
:10399000771F8A95D2F78091080290910902A09131
:1039A0000A02B0910B02482B592B6A2B7B2BCB01BF
:1039B000BA010E94601C089541E050E060E070E0B0
:1039C00004C0440F551F661F771F8A95D2F7409594
:1039D0005095609570958091080290910902A09190
:1039E0000A02B0910B02482359236A237B23CB019F
:1039F000BA010E94601C089541E050E060E070E070
:103A000004C0440F551F661F771F8A95D2F7809117
:103A1000080290910902A0910A02B0910B02482776
:103A200059276A277B27CB01BA010E94601C0895A1
:103A30000F931F93009108021091090220910A022E
:103A400030910B02602B712B822B932B0E94601CF8
:103A50001F910F9108950F931F93009108021091E9
:103A6000090220910A0230910B0260237123822304
:103A700093230E94601C1F910F9108950F931F9331
:103A8000009108021091090220910A0230910B0264
:103A900060277127822793270E94601C1F910F9136
:103AA00008950895CF92DF92EF92FF920F931F93A4
:103AB000CF93DF938C01C0900C02D0900D02E09068
:103AC0000E02F0900F028091080290910902A091DD
:103AD0000A02B0910B02C82AD92AEA2AFB2ACFE1AE
:103AE000D0E0D701C6010C2E04C0B695A7959795D6
:103AF00087950A94D2F781709070009739F08C2FD7
:103B0000B8010E94ED1F8130910549F421978FEF94
:103B1000CF3FD80731F780E0B8010E94ED1FDF9159
:103B2000CF911F910F91FF90EF90DF90CF9008956C
:103B3000809110020895809310020895109210024F
:103B400008958091110285958595859508958091B8
:103B5000110287700895982F990F990F990F962B3E
:103B6000909311020E94C01C0895109211020895B2
:103B7000409111028095842380931102982F9770B1
:103B800069F450E0282F332727FD3095421753075B
:103B900029F08595859585950E94DC1C0895909166
:103BA0001102977081E009F480E0089590910C0172
:103BB0009923B1F190910D01992391F1982F969548
:103BC000969596959F3090F4E0910E01F0910F013B
:103BD000E90FF11D877021E030E002C0220F331F92
:103BE0008A95E2F78181822B818308959091250245
:103BF00090FF39C000D000D0EDB7FEB7319625EA6E
:103C000033E0ADB7BEB712963C932E9311978283E3
:103C100013820E94E3060F900F900F900F9008956B
:103C200040910E0150910F0120E030E0EFEFDA01FA
:103C3000A20FB31F12969C9112979817A1F0EF3F15
:103C400019F4992309F4E22F2F5F3F4F2E303105ED
:103C500071F707C0FF27E7FDF095E40FF51F82839A
:103C60000895EF3FB9F7089590910C019923B9F1A8
:103C700090910D01992399F1982F96959695969587
:103C80009F3098F4E0910E01F0910F01E90FF11DC2
:103C9000877021E030E002C0220F331F8A95E2F7DF
:103CA000209581812823218308959091250290FFFA
:103CB00025C000D000D0EDB7FEB7319623EC33E03D
:103CC000ADB7BEB712963C932E93119782831382A1
:103CD0000E94E3060F900F900F900F90089520918F
:103CE0000E0130910F0190E0F901E90FF11D4281C1
:103CF000481709F412829F5F9E30B1F7089581E062
:103D000090E0E0910E01F0910F01E80FF91F108291
:103D1000019680319105A9F70895809112020895C6
:103D200090911202982B9093120208958095909191
:103D3000120298239093120208951092120208958D
:103D400090911302982B909313020895809590916F
:103D5000130298239093130208951092130208956A
:103D600080931402089510921402089540910E0158
:103D700050910F0120E030E080E0FA01E20FF31FE4
:103D8000918191118F5F2F5F3F4F2F303105A9F740
:103D90000895E0910E01F0910F018091120280834D
:103DA000E0910E01F0910F01808190911302892B17
:103DB000808390911402992369F0E0910E01F091B3
:103DC0000F018081892B80830E94B61E882311F009
:103DD0000E94B31E80910E0190910F010E94C312A8
:103DE000089590934B0180934A010895829590E045
:103DF0009C012C7C307035952795359527958373DC
:103E00009070880F991F880F991F282B30E0C901E7
:103E10008A7A90709595879525753070220F331F9B
:103E2000822B08951F93CF93DF930F92CDB7DEB708
:103E300099830E94F61E182F9981892F0E94F61EE1
:103E4000312F20E090E0822B932B0F90DF91CF91C8
:103E50001F91089580913C02843009F1109226024E
:103E600020E488E190E00FB6F894A8958093600074
:103E70000FBE2093600083B7817F846083BF83B7C8
:103E8000816083BF7894889583B78E7F83BF88E1F4
:103E90000FB6F89480936000109260000FBE0895F2
:103EA00008950895CF930E94501F0E9468080E94B1
:103EB000511FC0E08C2F0E94AB08882321F4CF5FF4
:103EC000CA30C1F701C081E0CF9108950E94131854
:103ED000089582E084BD93E095BD9AEF97BD8093ED
:103EE0006E0008958FB7F8944091270250912802F0
:103EF0006091290270912A028FBFCA0108950F9321
:103F00001F93FC018FB7F8940091270210912802AB
:103F10002091290230912A028FBFB901A801607057
:103F20007070CF01A0E0B0E0481759076A077B071F
:103F300020F0C8018E1B9F0B05C0CF018095909586
:103F4000800F911F1F910F9108951F920F920FB62E
:103F50000F9211248F939F93AF93BF938091270269
:103F600090912802A0912902B0912A020196A11DE8
:103F7000B11D8093270290932802A0932902B09349
:103F80002A02BF91AF919F918F910F900FBE0F901A
:103F90001F9018950E94B90FF8948FEF97EAA1E649
:103FA00081509040A040E1F700C0000087E090EB16
:103FB000DC018093460290934702A0934802B0939D
:103FC00049022CE088E190E00FB6F894A895809320
:103FD00060000FBE20936000FFCFE62FF0E0EE0FF1
:103FE000FF1F472F50E09A01220F331F240F351F68
:103FF000220F331F220F331FE20FF31F98E7899F11
:10400000C0011124E80FF91FE455FF4F85919491E9
:10401000089580E090E00895CF92DF92EF92FF92B2
:104020000F931F93CF937C01C0E08C2F0E94AB08AD
:1040300000E010E0C82EDD24C601002E02C09595D8
:1040400087950A94E2F780FF19C080E0602F7C2FEB
:104050000E94ED1F8E159F05D9F0292F207F51F06A
:10406000203141F0203231F0203321F0203A11F09C
:10407000203B21F490E08E159F0551F00F5F1F4FFC
:1040800006301105C9F6CF5FCA3079F680E001C06D
:1040900081E0CF911F910F91FF90EF90DF90CF9033
:1040A0000895CF93DF93EC018CE290E00E940C2006
:1040B000882321F0CE010E940C2001C080E0DF9116
:1040C000CF910895CF930E94BD21882311F40E94BF
:1040D000A22181EE93E00E944A06C5E608C00E9434
:1040E00068088FE39CE90197F1F700C00000C15018
:1040F000B1F786EF93E00E944A0689E290E00E94C1
:104100005120882309F01CC18AE290E00E945120CE
:10411000882311F00E94A22185E090E00E945120A6
:10412000882311F00E94CA1F0E94C9218093250292
:1041300087E090E00E945120882389F18BE190E094
:104140000E945120882339F080912502982F909564
:1041500092708D7F0CC08EE090E00E9451208823E9
:1041600051F080912502982F909594708B7F892B28
:104170008093250214C080E190E00E94512090912C
:104180002502882329F0892F80958870977F04C0A5
:10419000892F809581709E7F982B90932502809126
:1041A00025020E94CE210E94DF218093450280EEED
:1041B00090E00E945120882349F080914502982F79
:1041C000909591708E7F892B8093450289E390E0D2
:1041D0000E945120882349F080914502982F9095A4
:1041E00092708D7F892B8093450282EE90E00E9431
:1041F0005120882349F080914502982F9095947022
:104200008B7F892B8093450286EE90E00E9451209F
:10421000882349F080914502982F90959870877F68
:10422000892B8093450283EE90E00E9451208823E1
:1042300049F080914502982F909590718F7E892B3F
:104240008093450285E390E00E945120882349F045
:1042500080914502982F909590728F7D892B809345
:10426000450281E390E00E945120882349F080912B
:104270004502982F909590748F7B892B80934502EF
:1042800089E190E00E945120882379F090914502C5
:10429000892F881F8827881F21E0822787958827F4
:1042A00087959F77982B90934502809145020E94B5
:1042B000E42180914502881F8827881F80930D0183
:1042C0008DE190E00E945120C82F8BE190E00E9488
:1042D00051208111C26086E090E00E94512081113E
:1042E000C46080E290E00E9451208111C86081E2A8
:1042F00090E00E9451208111C06182E290E00E9412
:1043000051208111C06283E290E00E94512081110E
:10431000C06484E290E00E945120882311F0C068BC
:1043200002C0CC2329F08C2F0E94D9216C2F03C00E
:104330000E94D421682F70E080E090E00E946E1C03
:10434000CF91089580E090E06DEE7EEF0E94D32D36
:1043500082E090E060E00E94C52D83E090E060E0A4
:104360000E94C52D84E090E060E00E94C52D85E0AC
:1043700090E060E00E94C52D089580E090E00E94EA
:10438000BF2D21E03EEF8D3E930709F020E0822F04
:10439000089582E090E00E94B72D0895682F82E092
:1043A00090E00E94C52D089583E090E00E94B72D13
:1043B0000895682F83E090E00E94C52D089584E061
:1043C00090E00E94B72D0895682F84E090E00E944D
:1043D000C52D08958091330280FF0FC08091130195
:1043E00090E0BC01660F771F660F771F680F791F7B
:1043F00075956795759567953AC081FF0DC0809159
:10440000130190E0BC01660F771F660F771F680FDE
:10441000791F759567952BC082FF04C080911301A9
:1044200090E00BC040912D02442341F160911201B4
:104430008091130190E0461740F0BC01660F771F92
:10444000660F771F680F791F12C09C01220F331F60
:10445000220F331F280F391F50E0249FC001259FD2
:10446000900D349F900D112470E00E94902D6038C3
:10447000710540F46115710539F002C065E070E026
:10448000862F08958FE7089581E008958091330283
:1044900080FF08C06091110170E075956795759572
:1044A000679523C081FF06C06091110170E075958A
:1044B00067951BC082FF03C0609111010BC0809102
:1044C0002D028823D9F06091100190911101861777
:1044D00018F0692F70E006C0989FC001112470E0A9
:1044E0000E94902D6038710528F46115710521F046
:1044F000862F08958FE7089581E0089561E070E0C8
:10450000F4CF803F21F40E94EA21819504C0813FCD
:1045100029F40E94EA21809330020895823F21F419
:104520000E94EA21819504C0833F29F40E94EA2178
:1045300080932F020895893F19F40E94462205C0F6
:104540008A3F31F40E94462281958093310208957A
:104550008B3F21F40E944622819504C08C3F29F4B0
:104560000E944622809332020895843F21F4809174
:104570002E02816017C0853F21F480912E02826057
:1045800011C0863F21F480912E0284600BC0873FCA
:1045900021F480912E02886005C0883F31F480911B
:1045A0002E02806180932E0208958D3F21F4809128
:1045B0003302816005C08E3F31F480913302826006
:1045C0008093330208958F3F29F4809133028460F1
:1045D000809333020895803F29F48091300287FF51
:1045E0006DC007C0813F41F48091300218160CF075
:1045F00065C01092300262C090912F02823F19F480
:1046000097FF5CC005C0833F31F419160CF056C00B
:1046100010922F0253C0893F29F48091310218165D
:104620003CF04CC08A3F39F48091310287FF46C08C
:104630001092310243C08B3F29F48091320287FFF0
:104640003DC006C08C3F39F4809132021816B4F593
:104650001092320233C0843F21F480912E028E7F6B
:1046600005C0853F31F480912E028D7F80932E020C
:1046700025C0863F21F480912E028B7FF7CF873FA4
:1046800021F480912E02877FF1CF883F21F4809121
:104690002E028F7EEBCF8D3F21F4809133028E7FEF
:1046A0000BC08E3F21F4809133028D7F05C08F3F78
:1046B00029F4809133028B7F8093330280912F0203
:1046C000882371F480913002882351F48091310263
:1046D000882331F480913202882311F410922D0244
:1046E00008958091250283FFC1C08DEF93E00E9461
:1046F0004A0600D000D0EDB7FEB7319680E294E0D4
:10470000ADB7BEB712969C938E93119780912E02EF
:10471000828313820E94E3060F900F900F900F90F8
:1047200085E294E00E944A0600D000D087E294E03F
:10473000EDB7FEB79283818380912F02992787FD81
:104740009095948383830E94E3060F900F900F90BF
:104750000F908AE294E00E944A0600D000D08CE2DA
:1047600094E0ADB7BEB712969C938E93119780914B
:104770003002992787FD909514969C938E931397FA
:104780000E94E3060F900F900F900F908FE294E03D
:104790000E944A0600D000D081E394E0EDB7FEB756
:1047A0009283818380913102992787FD909594832C
:1047B00083830E94E3060F900F900F900F9084E385
:1047C00094E00E944A0600D000D086E394E0ADB7A2
:1047D000BEB712969C938E931197809132029927BF
:1047E00087FD909514969C938E9313970E94E306F1
:1047F0000F900F900F900F9089E394E00E944A066B
:1048000000D000D0EDB7FEB731968CE394E0ADB7A1
:10481000BEB712969C938E93119780912D0282833E
:1048200013820E94E3060F900F900F900F908FE37A
:1048300094E00E944A0600D000D0EDB7FEB7319652
:1048400081E494E0ADB7BEB712969C938E93119716
:1048500080913302828313820E94E3060F900F90AF
:104860000F900F9084E494E00E944A068EE292E05A
:104870000E940E130E94721F90932C0280932B02B1
:104880000895CF9380912B0290912C020E947F1F5C
:1048900060912D02662321F02091140130E00DC0BB
:1048A0004091150150E09A01220F331FE3E0440FBD
:1048B000551FEA95E1F7240F351F8217930708F477
:1048C00085C080912F02882369F49091300299234A
:1048D00049F490913102992329F49091320299235D
:1048E00009F474C06F3F19F06F5F60932D021816C2
:1048F00024F40E94EA2180932F0280912F0287FFE7
:1049000005C00E94EA21819580932F028091300298
:10491000181624F40E94EA2180933002809130021C
:1049200087FF05C00E94EA21819580933002609143
:104930002F02662339F1C0913002CC2319F1772779
:1049400067FD7095872F972F0E94952C23E333E303
:1049500043E35FE30E94F92C0E94622C60932F02D4
:104960006C2F772767FD7095872F972F0E94952CC6
:1049700023E333E343E35FE30E94F92C0E94622CBC
:104980006093300280913102181624F40E9446226E
:10499000809331028091310287FF05C00E94462238
:1049A00081958093310280913202181624F40E947E
:1049B0004622809332028091320287FF05C00E9416
:1049C00046228195809332020E947123CF910895EF
:1049D000EEE2F2E085E0DF011D928A95E9F71092A0
:1049E0002D0210923302089588E798E00E944A064B
:1049F00008958EEA98E00E944A0600D000D000D0C8
:104A0000EDB7FEB7319689EA99E0ADB7BEB7129619
:104A10009C938E93119785E090E09383828381E04D
:104A200090E0958384830E94E3068DB79EB7069637
:104A30000FB6F8949EBF0FBE8DBF0895833009F462
:104A400052C0843030F4813071F0823009F0DAC025
:104A50002AC0853009F487C0853008F464C08630E8
:104A600009F0D0C0A8C020911501862F90E0820FD8
:104A7000911D8F3F910520F4620F6093150103C0D3
:104A80008FEF8093150100D000D0EDB7FEB73196BF
:104A90008FEA9AE0ADB7BEB712969C938E931197AA
:104AA000809115017FC020911401862F90E0820F24
:104AB000911D8F3F910520F4620F6093140103C094
:104AC0008FEF8093140100D000D0EDB7FEB7319680
:104AD0008EEB9AE0ADB7BEB712969C938E9311976A
:104AE000809114015FC020911301862F90E0820F06
:104AF000911D8F3F910520F4620F6093130103C055
:104B00008FEF8093130100D000D0EDB7FEB7319640
:104B100080ED9AE0ADB7BEB712969C938E93119735
:104B2000809113013FC020911201862F90E0820FE7
:104B3000911D8F3F910520F4620F6093120103C015
:104B40008FEF8093120100D000D0EDB7FEB7319601
:104B500083EE9AE0ADB7BEB712969C938E931197F1
:104B6000809112011FC020911101862F90E0820FC9
:104B7000911D8F3F910520F4620F6093110103C0D6
:104B80008FEF8093110100D000D0EDB7FEB73196C2
:104B900088EF9AE0ADB7BEB712969C938E931197AB
:104BA00080911101828313820E94E3060F900F907F
:104BB0000F900F90089520911001862F90E0820FA2
:104BC000911D8F3F910520F4620F6093100103C087
:104BD0008FEF8093100100D000D0EDB7FEB7319673
:104BE00081E19BE0ADB7BEB712969C938E9311976F
:104BF00080911001828313820E94E3060F900F9030
:104C00000F900F900895833009F446C0843030F43B
:104C1000813071F0823009F0B6C024C0853009F4CB
:104C20006FC0853008F452C0863009F0ACC08AC02D
:104C300080911501681720F4861B8093150102C02E
:104C40001092150100D000D0EDB7FEB731968CE27E
:104C50009BE0ADB7BEB712969C938E93119780914F
:104C6000150167C080911401681720F4861B80939A
:104C7000140102C01092140100D000D0EDB7FEB7AD
:104C800031968BE39BE0ADB7BEB712969C938E93A3
:104C90001197809114014DC080911301681720F481
:104CA000861B8093130102C01092130100D000D024
:104CB000EDB7FEB731968DE49BE0ADB7BEB7129667
:104CC0009C938E9311978091130133C080911201B0
:104CD000681720F4861B8093120102C01092120103
:104CE00000D000D0EDB7FEB7319680E69BE0ADB7BF
:104CF000BEB712969C938E9311978091120119C0A2
:104D000080911101681720F4861B8093110102C065
:104D10001092110100D000D0EDB7FEB7319685E7B3
:104D20009BE0ADB7BEB712969C938E93119780917E
:104D30001101828313820E94E3060F900F900F905F
:104D40000F90089580911001681720F4861B8093BE
:104D5000100102C01092100100D000D0EDB7FEB7D4
:104D600031968EE89BE0ADB7BEB712969C938E93BA
:104D7000119780911001828313820E94E3060F90A5
:104D80000F900F900F900895CF93DF930F92CDB7B0
:104D9000DEB700D000D0EDB7FEB731962FE938E08E
:104DA000ADB7BEB712963C932E93119782831382B0
:104DB00089830E94E3060F900F900F900F9041E0BF
:104DC00050E060E070E0898104C0440F551F661F09
:104DD000771F8A95D2F7CB01BA010E946E1C0E9400
:104DE00013180F90DF91CF910895CF938D3109F46F
:104DF00049C08E3140F58E3009F488C28F3080F47E
:104E0000873009F459C2883020F4863009F043C352
:104E100032C2883009F441C08B3009F03CC328C24B
:104E2000863109F4B8C2873138F4803109F484C27C
:104E3000813109F030C317C3893109F495C28B3130
:104E400009F029C348C2853309F41DC3863350F4E1
:104E5000873209F418C3873208F417C3893209F07E
:104E60001AC311C3833438F48A3308F010C388336B
:104E700009F011C3FDC1833409F405C3883409F076
:104E80000AC308C287E494E00E944A060E941C2CD0
:104E90000E94B6120E94C00AE9C187E594E00E9410
:104EA0004A068EE796E00E944A060E94D42100D06E
:104EB00000D0EDB7FEB731962EE836E0ADB7BEB7FD
:104EC00012963C932E931197828313820E94E306DD
:104ED0000F900F900F900F9081E996E00E944A0684
:104EE0000E94C921C82F83E996E00E944A0600D09B
:104EF00000D0EDB7FEB7319686EA96E0ADB7BEB703
:104F000012969C938E931197C28313820E94E3069C
:104F10000F900F900F900F908BEA96E00E944A0638
:104F20008DEA96E00E944A0600D000D0EDB7FEB7A9
:104F3000319687EB96E0ADB7BEB712969C938E93F1
:104F400011978C2F8170828313820E94E3060F9049
:104F50000F900F900F908AEB96E00E944A068CEB20
:104F600096E00E944A0600D000D0EDB7FEB7319619
:104F700086EC96E0ADB7BEB712969C938E931197D0
:104F80008C2F86958170828313820E94E3060F9096
:104F90000F900F900F9089EC96E00E944A068BECE0
:104FA00096E00E944A0600D000D0EDB7FEB73196D9
:104FB00087ED96E0ADB7BEB712969C938E9311978E
:104FC0008C2F869586958170828313820E94E306DA
:104FD0000F900F900F900F908AED96E00E944A0676
:104FE0008CED96E00E944A0600D000D0EDB7FEB7E7
:104FF000319685EE96E0ADB7BEB712969C938E9330
:105000001197C695C695C695C170C28313820E943A
:10501000E3060F900F900F900F9088EE96E00E949D
:105020004A060E94DF21C82F8AEE96E00E944A06B7
:1050300000D000D0EDB7FEB731968EEF96E0ADB759
:10504000BEB712969C938E931197C28313820E94CF
:10505000E3060F900F900F900F9083E097E00E946F
:105060004A0685E097E00E944A0600D000D0EDB7DE
:10507000FEB731968EE197E0ADB7BEB712969C931E
:105080008E9311978C2F8170828313820E94E30686
:105090000F900F900F900F9081E297E00E944A06C8
:1050A00083E297E00E944A0600D000D0EDB7FEB739
:1050B00031968AE397E0ADB7BEB712969C938E9374
:1050C00011978C2F86958170828313820E94E3064C
:1050D0000F900F900F900F908DE397E00E944A067B
:1050E0008FE397E00E944A0600D000D0EDB7FEB7EC
:1050F000319681E597E0ADB7BEB712969C938E933B
:1051000011978C2F869586958170828313820E94D9
:10511000E3060F900F900F900F9084E597E00E94A8
:105120004A0686E597E00E944A0600D000D0EDB717
:10513000FEB7319688E697E0ADB7BEB712969C935E
:105140008E9311978C2F8695869586958170828394
:1051500013820E94E3060F900F900F900F908BE642
:1051600097E00E944A068DE697E00E944A0600D02A
:1051700000D0EDB7FEB7319687E797E0ADB7BEB781
:1051800012969C938E9311978C2F829581708283B7
:1051900013820E94E3060F900F900F900F908AE702
:1051A00097E00E944A068CE797E00E944A0600D0EA
:1051B00000D0EDB7FEB731968EE897E0ADB7BEB739
:1051C00012969C938E9311978C2F82958695817061
:1051D000828313820E94E3060F900F900F900F902E
:1051E00081E997E00E944A0683E997E00E944A0617
:1051F00000D000D0EDB7FEB731968FEA97E0ADB79B
:10520000BEB712969C938E9311978C2F829586959C
:1052100086958170828313820E94E3060F900F901F
:105220000F900F9082EB97E00E944A0684EB97E084
:105230000E944A0600D000D0EDB7FEB731968CEB45
:1052400097E0ADB7BEB712969C938E931197CC1F83
:10525000CC27CC1FC28313820E94E3060F900F90CD
:105260000F900F908FEB97E00E944A0681E018C1E3
:1052700081EC97E0F9CF80912502807F8093250211
:105280000E94F42482E694E00E944A0681E0809322
:10529000340206C10E94131886E694E00E944A0672
:1052A0008FEF93EDA0E381509040A040E1F700C064
:1052B00000000E94CA1FDACF8091250280FF08C03B
:1052C00087E794E00E944A0680912502807F18C0FB
:1052D00084E894E010C090912502892F86958095EE
:1052E0008170282F220F9D7F922B90932502882377
:1052F00051F080E994E00E944A0680912502816085
:1053000080932502B3CF8DE994E0AECF9091250232
:10531000892F8695869580958170282F220F220FE0
:105320009B7F922B90932502882319F08BEA94E0BF
:10533000E2CF8AEB94E098CF90912502892F869551
:105340008695869580958170282F220F220F220F37
:10535000977F922B90932502882319F08AEC94E092
:10536000CACF86ED94E080CF83EE94E00E944A0697
:1053700082EF94E00E944A0685E195E00E944A0689
:1053800081E595E00E944A068EE795E00E944A0674
:1053900083EC95E069CF8EEE95E00E944A060E946C
:1053A000B61200D000D0EDB7FEB731962CEF35E045
:1053B000ADB7BEB712963C932E931197828313829A
:1053C0000E94E306EDB7FEB7319686E196E0ADB7F1
:1053D000BEB712969C938E93119780910C01828395
:1053E00013820E94E306EDB7FEB731968DE296E098
:1053F000ADB7BEB712969C938E9311978091AA0178
:10540000828313820E94E306EDB7FEB7319680E4F3
:1054100096E0ADB7BEB712969C938E93119780918C
:105420000D01828313820E94E306809127029091EE
:105430002802A0912902B0912A0200D023E536E08B
:10544000EDB7FEB73283218383839483A583B6832C
:105450000E94E3068DB79EB706960FB6F8949EBFDE
:105460000FBE8DBF03CF0E94131880910D0191E0F4
:10547000892780930D01882319F087E696E0F4CE02
:1054800081E796E0F1CE80E003C08D5101C08953E1
:105490000E94C426EBCE8CE796E00E944A0680E08C
:1054A000CF91089580E0089580E00895CF93C82FAC
:1054B00080913402813079F0813020F0823009F01F
:1054C00098C149C0A0910E01B0910F018C918D300F
:1054D00009F091C107C0A0910E01B0910F018C910C
:1054E0008D3049F48C2F0E94522A882389F58C2F05
:1054F0000E94F52681C18C2F0E94542A882341F5F1
:10550000C43191F0C53128F4CB3039F0C031C9F441
:105510000EC0C93249F0C833A1F40E94F42484EAD1
:1055200098E00E944A0614C0109234020EC00E94F5
:10553000F92488EA98E00E944A0682E080933402C7
:1055400007C08CEA98E00E944A0680E090E054C1CF
:1055500081E090E051C1C43288F4CE3108F0F2C04D
:10556000CB3009F1CC3020F4C73009F01FC107C19E
:10557000C33159F1C43109F019C118C0CB3409F451
:10558000F2C0CC3430F4C93289F0C83309F00EC10E
:105590000AC0C13509F4E3C0C23509F4DCC0CE3419
:1055A00009F004C1E6C00E94F92403C180913502CC
:1055B000882319F010923502FCC087EF99E00E9411
:1055C0004A0681E08093340217C183E19AE00E9489
:1055D0004A0681E29AE00E944A0600D000D0EDB768
:1055E000FEB7319683E39AE0ADB7BEB712969C93AF
:1055F0008E93119780911501828313820E94E30696
:105600000F900F900F900F9086E39AE00E944A0649
:1056100088E39AE00E944A0600D000D0EDB7FEB7BA
:1056200031968AE49AE0ADB7BEB712969C938E93FA
:10563000119780911401828313820E94E3060F90D8
:105640000F900F900F908DE49AE00E944A068FE42D
:105650009AE00E944A0600D000D0EDB7FEB731961E
:105660008EE59AE0ADB7BEB712969C938E931197D4
:1056700080911301828313820E94E3060F900F90A2
:105680000F900F9081E69AE00E944A0683E69AE026
:105690000E944A0600D000D0EDB7FEB7319684E7ED
:1056A0009AE0ADB7BEB712969C938E9311978091F6
:1056B0001201828313820E94E3060F900F900F90D5
:1056C0000F9087E79AE00E944A0689E79AE00E94D5
:1056D0004A0600D000D0EDB7FEB731968EE89AE0CA
:1056E000ADB7BEB712969C938E931197809111011E
:1056F000828313820E94E3060F900F900F900F9009
:1057000081E99AE00E944A0683E99AE00E944A06EB
:1057100000D000D0EDB7FEB731968AEA9AE0ADB777
:10572000BEB712969C938E9311978091100182833D
:1057300013820E94E3060F900F900F900F908DEA56
:105740009AE031C0CE51EC2FF0E0E15CFE4F808159
:10575000809335022EC08091350261E007C08091B0
:10576000350261E009C0809135026AE00E941E2581
:1057700020C0809135026AE00E9403261AC08EE1A3
:105780008093150182E38093140185E080931301D7
:105790008AE08093120188E08093110188E280936F
:1057A00010018BEF99E00E944A0603C088E09AE05E
:1057B0001CC0209135022223B1F000D000D0EDB7FB
:1057C000FEB731968AE09AE0ADB7BEB712969C93C9
:1057D0008E931197228313820E94E3060F900F90FD
:1057E0000F900F9004C080E19AE00E944A0681E089
:1057F00003C01092340280E0CF910895E1E8F0E018
:105800008081886080838081816080838FB7F894F5
:1058100093E09093890090ED909388008FBF089556
:10582000EFE6F0E08081826080830895EFE6F0E0AB
:1058300080818D7F80830895EFE6F0E0808192E0A3
:105840008927808308951F920F920FB60F9211241B
:105850002F933F934F935F936F937F938F939F9378
:10586000AF93BF93EF93FF938091360290913702ED
:1058700001969093370280933602882319F482E0D0
:105880000E94C00AE0913702E695E695F0E0E75500
:10589000F44FE491809136028E1719F480E00E9453
:1058A000C00AFF91EF91BF91AF919F918F917F912E
:1058B0006F915F914F913F912F910F900FBE0F907D
:1058C0001F90189504D06894B1118DC0089570D0C0
:1058D00088F09F5790F0B92F9927B751A0F0D1F0D9
:1058E000660F771F881F991F1AF0BA95C9F712C063
:1058F000B13081F077D0B1E0089574C0672F782F70
:105900008827B85F39F0B93FCCF3869577956795CE
:10591000B395D9F73EF490958095709561957F4F3A
:105920008F4F9F4F0895E89409C097FB3EF49095E0
:105930008095709561957F4F8F4F9F4F9923A9F068
:10594000F92F96E9BB279395F695879577956795F7
:10595000B795F111F8CFFAF4BB0F11F460FF1BC03B
:105960006F5F7F4F8F4F9F4F16C0882311F096E9CE
:1059700011C0772321F09EE8872F762F05C066237C
:1059800071F096E8862F70E060E02AF09A95660F35
:10599000771F881FDAF7880F9695879597F90895EE
:1059A00057FD9058440F551F59F05F3F71F04795D0
:1059B000880F97FB991F61F09F3F79F087950895B5
:1059C000121613061406551FF2CF4695F1DF08C0D4
:1059D000161617061806991FF1CF869571056105F1
:1059E00008940895E894BB2766277727CB0197F999
:1059F00008950BD078C069D028F06ED018F09523A8
:105A000009F05AC05FC01124EECFCADFA0F3959F02
:105A1000D1F3950F50E0551F629FF001729FBB2795
:105A2000F00DB11D639FAA27F00DB11DAA1F649F41
:105A30006627B00DA11D661F829F2227B00DA11DF4
:105A4000621F739FB00DA11D621F839FA00D611D7A
:105A5000221F749F3327A00D611D231F849F600D9B
:105A6000211D822F762F6A2F11249F5750408AF0D4
:105A7000E1F088234AF0EE0FFF1FBB1F661F771F60
:105A8000881F91505040A9F79E3F510570F014C0F7
:105A9000AACF5F3FECF3983EDCF386957795679548
:105AA000B795F795E7959F5FC1F7FE2B880F911D7E
:105AB0009695879597F9089597F99F6780E870E024
:105AC00060E008959FEF80EC089500240A94161674
:105AD000170618060906089500240A9412161306DC
